:020000040800F2
:1000000000200020195E0008695E0008695E000893
:10001000695E0008695E0008695E00080000000073
:10002000000000000000000000000000695E000801
:10003000695E000800000000695E0008F505000820
:10004000695E0008695E0008695E0008695E000874
:10005000695E0008695E0008695E0008695E000864
:10006000695E0008695E0008695E0008695E000854
:10007000695E0008695E0008695E0008695E000844
:10008000695E0008695E0008695E00080000000003
:10009000000000000000000000000000695E000891
:1000A000695E0008695E0008695E0008695E000814
:1000B000695E0008695E0008695E0008695E000804
:1000C000695E0008695E0008695E0008695E0008F4
:1000D000695E0008695E0008695E0008695E0008E4
:1000E000695E0008695E0008695E000800000000A3
:1000F0000000000000000000000000000000000000
:1001000000000000000000000000000000000000EF
:100110000000000000000000695E0008695E000841
:1001200000000000000000000000000000000000CF
:1001300000000000000000000000000000000000BF
:1001400000000000000000000000000000000000AF
:10015000000000000000000000000000000000009F
:10016000000000000000000000000000000000008F
:10017000000000000000000000000000000000007F
:10018000000000000000000000000000000000006F
:10019000000000000000000000000000000000005F
:1001A000000000000000000000000000000000004F
:1001B000000000000000000000000000000000003F
:1001C0000000000000000000000000005FF808F1DF
:1001D00010B5054C237833B9044810B10448AFF387
:1001E00000800121217010BD6C040020000000007F
:1001F0000C66000808B5064B1BB106480649AFF36C
:1002000000800648016811B1054A02B1904708BD57
:10021000000000000C660008700400206404002048
:1002200000000000154B002B08BF134B9D46A3F5A3
:10023000803A00218B460F461348144A121A05F0E3
:10024000EDFE0F4B002B00D098470E4B002B00D03B
:1002500098470020002104460D4600200C4900224A
:10026000002305F003FE05F08FFE2046294600F02E
:1002700071F805F051FE00BF00000800000000000A
:1002800000000000000000006C0400209404002026
:10029000395F000880B483B000AF03463960FB715A
:1002A00097F90730002B10DA4FF46D43CEF20003BC
:1002B000FA7902F00F02A2F104013A68D2B24FEAD1
:1002C0000212D2B25B181A760DE04FF46143CEF2FF
:1002D000000397F907103A68D2B24FEA0212D2B27D
:1002E0005B1883F8002307F10C07BD4680BC7047FC
:1002F00080B582B000AF78607A686FF07F439A4231
:1003000002D94FF001031FE04EF21003CEF20003BA
:100310007A6822F07F4202F1FF325A604FF0FF30DC
:100320004FF00F01FFF7B6FF4EF21003CEF20003BD
:100330004FF000029A604EF21003CEF200034FF02D
:1003400007021A604FF00003184607F10807BD4680
:1003500080BD00BF80B5ADF5816D00AF4FF01000DE
:100360004FF0010101F09EFB07F58063184602F093
:1003700031F84FF44073A7F800344FF0100387F8BA
:1003800003344FF0030387F8023407F580634FF41A
:100390008050C4F20100194601F0C4FE4FF0200362
:1003A000A7F800344FF0480387F8033407F580635B
:1003B0004FF48050C4F20100194601F0B3FE40F240
:1003C0001803C2F200031A6844F6D353C1F2620361
:1003D000A3FB02134FEA93131846FFF789FF034666
:1003E000002B00D0FEE74FF46050C4F201004FF440
:1003F000164100F01DF900BF4FF48050C4F2010017
:100400004FF0200101F0FCFF0346002BF4D14FF424
:10041000FA7000F0D7F846F2F430C0F600004FF45E
:100420006051C4F2010100F0F9F946F2F830C0F66B
:1004300000004FF46051C4F2010100F0EFF94FF4F5
:10044000FA7000F0BFF800F085FC0346002B0AD0DC
:1004500046F20440C0F600004FF46051C4F20101BE
:1004600000F0DCF909E046F21840C0F600004FF455
:100470006051C4F2010100F0D1F94FF00003C7F858
:1004800004340DE007F50072D7F80434D3184FF0A8
:100490002A021A70D7F8043403F10103C7F80434B0
:1004A000D7F8042440F2FF139A42EBDD07F50073FE
:1004B0004FF048021A7007F500734FF045025A706A
:1004C00007F500734FF04C029A7007F500734FF078
:1004D0004C02DA7007F500734FF04F021A7107F5FE
:1004E000007318464FF0000100F00AFD0346002B90
:1004F00009D146F23040C0F600004FF46051C4F21A
:10050000010100F08BF93B4618464FF0000100F066
:100510001BFD0346002B0AD146F24840C0F60000FE
:100520004FF46051C4F2010100F078F909E046F29D
:100530006040C0F600004FF46051C4F2010100F0C9
:100540006DF94FF00003C7F8043411E03A46D7F8CC
:100550000434D3181B7818464FF46051C4F20101DB
:1005600000F0F0F8D7F8043403F10103C7F80434BD
:10057000D7F8042440F2FF139A42E7DD40F28C439F
:10058000C2F200031B68002B0CBF00230123DBB267
:100590004FF48050C4F201004FF400711A4602F08B
:1005A0008BF940F28C43C2F200031B68C3F10102D5
:1005B00040F28C43C2F200031A604FF0FA0000F0E0
:1005C00001F8DBE780B483B000AF786040F2884385
:1005D000C2F200037A681A6000BF40F28843C2F298
:1005E00000031B68002BF8D107F10C07BD4680BC47
:1005F000704700BF80B400AF40F28843C2F20003EE
:100600001B68002B0BD040F28843C2F200031B682A
:1006100003F1FF3240F28843C2F200031A60BD4684
:1006200080BC704780B483B000AF78603960FEE76B
:1006300080B588B000AF786039607A684FF4605355
:10064000C4F201039A4215D07A684FF48843C4F289
:1006500000039A420ED07A684FF49043C4F200032C
:100660009A4207D046F27040C0F600004FF00C01ED
:10067000FFF7D8FF7A684FF46053C4F201039A423F
:100680005AD144F205004FF0010101F00BFA07F1D5
:100690000C03184601F09EFE4FF40073BB814FF02F
:1006A0001803FB734FF00303BB7307F10C034FF404
:1006B0000060C4F20100194601F034FD07F108039F
:1006C000184601F087FE4FF480633B814FF004032E
:1006D000FB7207F108034FF40060C4F201001946F1
:1006E00001F020FD07F11003184603F0E3FF3B681B
:1006F0003B614FF00003BB824FF00003FB824FF0E1
:1007000000033B834FF00003BB834FF00C037B835C
:1007100007F110034FF46050C4F20100194603F0D2
:1007200023FE4FF46050C4F201004FF0010104F0C9
:1007300089F84FF00003FFE7184607F12007BD4690
:1007400080BD00BF80B582B000AF03463960FB7149
:100750003A684FF46053C4F201039A4215D03A68E4
:100760004FF48843C4F200039A420ED03A684FF423
:100770009043C4F200039A4207D046F27040C0F69C
:1007800000004FF03001FFF74DFF00BF38684FF019
:10079000800104F025FF0346002BF7D0FB799AB2C5
:1007A0003B689A804FF00003184607F10807BD46E2
:1007B00080BD00BF80B582B000AF78607A684FF42A
:1007C0006053C4F201039A4215D07A684FF488430B
:1007D000C4F200039A420ED07A684FF49043C4F2F8
:1007E00000039A4207D046F27040C0F600004FF076
:1007F0003801FFF717FF00BF78684FF0200104F0C1
:10080000EFFE0346002BF7D07B689B889BB2DBB2E0
:10081000184607F10807BD4680BD00BF80B584B00B
:1008200000AF786039604FF00003FB600BE0FB68BD
:100830007A68D3181B7818463968FFF783FFFB687E
:1008400003F10103FB60FB687A68D3181B78002B67
:10085000EDD1184607F11007BD4680BD80B588B0C0
:1008600000AF78607A684FF44053C4F201039A42B3
:1008700047D141F205004FF0010101F013F907F1F2
:100880001C03184601F0A6FD4FF02003BB834FF078
:100890001803FB774FF00303BB7707F11C034FF4FA
:1008A0000060C4F20100194601F03CFC07F11C0392
:1008B000184601F08FFD4FF04003BB834FF0480313
:1008C000FB7707F11C034FF40060C4F201001946E6
:1008D00001F028FC07F11C03184601F07BFD4FF0E6
:1008E0008003BB834FF01803FB774FF00303BB7704
:1008F00007F11C034FF40060C4F20100194601F037
:1009000011FC07F10803184602F034FF4FF0000312
:100910003B814FF482737B814FF00003BB814FF02A
:100920000003FB814FF000033B824FF400737B8296
:100930004FF01003BB824FF007033B8307F108031E
:100940007868194602F076FC78684FF0010102F0F1
:1009500061FF07F12007BD4680BD00BF80B586B0AE
:1009600000AFF860B9607A603B604FF000037B61D4
:1009700031E07B68002B0AD07B681B787A6802F133
:1009800001027A60F868194603F0A0F804E0F868FC
:100990004FF0FF0103F09AF800BFF8684FF0010133
:1009A00003F0FAFA0346002BF7D0BB68002B0BD0FC
:1009B000F86803F0B5F80346DAB2BB681A70BB6892
:1009C00003F10103BB6002E0F86803F0A9F87B695A
:1009D00003F101037B617A693B689A42C9DB7B6959
:1009E000184607F11807BD4680BD00BF80B483B02C
:1009F00000AF78600B467B807B681B889BB29BB204
:100A000023F038039AB27B8813439BB29AB27B6877
:100A10001A8007F10C07BD4680BC704780B582B0D4
:100A200000AF786039604FF44050C4F201004FF0DD
:100A300000017A683B68FFF791FF07F10807BD46A0
:100A400080BD00BF80B582B000AF786039604FF4E0
:100A50004050C4F2010079684FF000023B68FFF794
:100A60007DFF07F10807BD4680BD00BF80B582B09D
:100A700000AF4FF4FA737B6011E007F103031846EF
:100A80004FF00101FFF7DEFFFB78FF2B0BD04FF09B
:100A90000100FFF797FD7B6803F1FF337B607B6804
:100AA000002BEAD100E000BF7B68002B0CBF0023C5
:100AB0000123DBB2184607F10807BD4680BD00BF21
:100AC00080B582B000AF4FF48050C4F201004FF007
:100AD000080101F04DFE07F1070318464FF0010130
:100AE000FFF7B0FF07F10807BD4680BD80B582B0B3
:100AF00000AF4FF48050C4F201004FF0080101F044
:100B000089FE07F1070318464FF00101FFF79AFF2E
:100B1000FFF7ACFF0346002B02D04FF0010303E0C8
:100B2000FFF7CEFF4FF00003184607F10807BD4658
:100B300080BD00BF80B582B000AF4FF010004FF015
:100B4000010100F0AFFF4FF00803BB804FF010032E
:100B5000FB714FF00303BB7107F104034FF48050A6
:100B6000C4F20100194601F0DDFAFFF7A9FF07F111
:100B70000807BD4680BD00BF80B584B000AF786077
:100B800039604FF06403FB6011E007F10803184679
:100B90004FF00101FFF756FF3B7AFF2B0BD14FF0CF
:100BA0000100FFF70FFDFB6803F1FF33FB60FB68FB
:100BB000002BEAD100E000BF3B7AFE2B02D04FF0C1
:100BC00000030CE078683968FFF73CFF07F1080381
:100BD00018464FF00201FFF735FF4FF001031846AA
:100BE00007F11007BD4680BD80B584B000AF7860C6
:100BF0000B46FB70FFF73AFF0346002B02D14FF084
:100C0000000328E0FB783B7307F10C0318464FF014
:100C10000101FFF703FFFB78FD2B1AD078684FF432
:100C20000071FFF7FBFE07F10C0318464FF00201BD
:100C3000FFF708FF07F10C0318464FF00101FFF71B
:100C400001FF3B7B03F01F03052B02D04FF0000395
:100C500001E04FF00103184607F11007BD4680BDC3
:100C600080B584B000AF03463960FB71FB795BB29D
:100C7000002B10DAFB7903F07F03FB714FF0370094
:100C80004FF00001FFF7ECFF0346FB73FB7B012BEA
:100C900001D9FB7B59E0FFF713FFFFF727FF03465E
:100CA000002B02D14FF0FF034FE0FB7943F04003EC
:100CB000DBB23B723B684FEA1363DBB27B723B688B
:100CC0004FEA1343DBB2BB723B684FEA1323DBB23C
:100CD000FB723B68DBB23B734FF00103FB73FB79A4
:100CE000002B02D14FF09503FB73FB79082B02D147
:100CF0004FF08703FB73FB7B7B7307F108031846F8
:100D00004FF00601FFF78AFEFB790C2B06D107F1A5
:100D10000E0318464FF00101FFF794FE4FF00A034F
:100D2000FB7307F10E0318464FF00101FFF78AFE2F
:100D3000BB7BDBB25BB2002B06DAFB7B03F1FF333C
:100D4000FB73FB7B002BECD1BB7B184607F1100734
:100D5000BD4680BD80B586B000AF4FF44050C4F2B0
:100D60000100FFF77BFD4FF44050C4F201004FF04B
:100D70002801FFF73BFEFFF7DDFE4FF00A03FB60A3
:100D80000AE007F1040318464FF00101FFF75AFE8D
:100D9000FB6803F1FF33FB60FB68002BF1D14FF0E0
:100DA0000003FB754FF000004FF00001FFF758FF04
:100DB0000346012B40F08E804FF008004FF4D571B0
:100DC000FFF74EFF0346012B45D107F104031846F8
:100DD0004FF00401FFF736FEBB79012B7AD1FB7986
:100DE000AA2B77D14FF064033B6110E04FF0A900CC
:100DF0004FF08041FFF734FF0346002B0BD04FF03C
:100E00000A00FFF7DFFB3B6903F1FF333B613B69FE
:100E1000002BEBD100E000BF3B69002B5AD04FF014
:100E20003A004FF00001FFF71BFF0346002B51D1A2
:100E300007F1040318464FF00401FFF703FE3B7966
:100E400003F04003002B02D04FF00C0301E04FF001
:100E50000403FB753EE04FF0A9004FF00001FFF7DF
:100E6000FFFE0346012B06DC4FF00203FB754FF03B
:100E7000A903FB7205E04FF00103FB754FF001037E
:100E8000FB724FF064033B6110E04FF0A9004FF09C
:100E90000001FFF7E5FE0346002B0BD04FF00A00E0
:100EA000FFF790FB3B6903F1FF333B613B69002B8C
:100EB000EBD100E000BF3B69002B08D04FF01000E1
:100EC0004FF40071FFF7CCFE0346002B02D04FF029
:100ED0000003FB75FFF7F4FD40F29043C2F20003FC
:100EE000FA7D1A704FF44050C4F201004FF0100127
:100EF000FFF77CFDFB7D184607F11807BD4680BD56
:100F000080B584B000AF786039604FF00003FB73A8
:100F10004FF018003968FFF7A3FE0346002B0AD1F3
:100F200078684FF0FE01FFF75FFE0346002B02D00A
:100F30004FF00103FB73FFF7C3FDFB7B184607F17E
:100F40001007BD4680BD00BF80B584B000AF78609B
:100F500039604FF00003FB734FF011003968FFF761
:100F60007FFE0346002B0AD178684FF40071FFF72B
:100F700003FE0346002B02D04FF00103FB73FFF783
:100F80009FFDFB7B184607F11007BD4680BD00BFE3
:100F900080B400AF4FF48053C4F202034FF4805288
:100FA000C4F20202126842F001021A604FF4805249
:100FB000C4F202024FF48053C4F2020359684FF0A6
:100FC0000003CFF6FF030B4053604FF48053C4F28D
:100FD00002034FF48052C4F20202126822F08472BB
:100FE00022F480321A604FF48053C4F202034FF4AB
:100FF0008052C4F20202126822F480221A604FF476
:101000008053C4F202034FF48052C4F202025268C9
:1010100022F4FE025A604FF48053C4F202034FF4EC
:101020001F029A604FF48053C4F202034FF0000293
:10103000DA62BD4680BC704780B582B000AF786090
:101040007B68002B0FD07B68B3F5803F0BD07B68AB
:10105000B3F5802F07D046F27C40C0F600004FF475
:101060008D71FFF7DFFA4FF48053C4F202034FF49F
:101070008052C4F20202126822F480321A604FF4E5
:101080008053C4F202034FF48052C4F20202126889
:1010900022F480221A607B68B3F5803F03D0B3F559
:1010A000802F0DD019E04FF48053C4F202034FF4A7
:1010B0008052C4F20202126842F480321A600DE0DB
:1010C0004FF48053C4F202034FF48052C4F2020280
:1010D000126842F4A0221A6000E000BF07F108077E
:1010E000BD4680BD80B582B000AF4FF000033B60CD
:1010F0004FF00003FB714FF00003BB714FF0310064
:1011000000F05AFE0346BB713B6803F101033B60EC
:101110003B68B3F5A06F02D0BB79002BEED04FF047
:10112000310000F049FE0346002B03D04FF00103CD
:10113000FB7102E04FF00003FB71FB79184607F1E9
:101140000807BD4680BD00BF80B584B000AF034630
:10115000FB714FF00003FB60FB791F2B07D946F2B0
:101160007C40C0F6000040F25B11FFF75BFA4FF4E1
:101170008053C4F202031B68FB60FB6823F0F80392
:10118000FB60FB794FEAC303FA681343FB604FF43B
:101190008053C4F20203FA681A6007F11007BD46D3
:1011A00080BD00BF80B582B000AF0346FB71FB7904
:1011B000002B0AD0FB79012B07D046F27C40C0F609
:1011C00000004FF4B771FFF72DFA4FF00003C4F29F
:1011D0004223FA791A6007F10807BD4680BD00BFB7
:1011E00080B584B000AF786039604FF00003FB60D9
:1011F0007B68002B0BD07B68B3F5803F07D046F2AD
:101200007C40C0F600004FF4C471FFF70BFA3B6856
:10121000002B3FD03B68B3F5802F3BD03B68B3F544
:10122000002F37D03B68B3F5402F33D03B68B3F580
:10123000801F2FD03B68B3F5A01F2BD03B68B3F5C0
:10124000C01F27D03B68B3F5E01F23D03B68B3F540
:10125000001F1FD03B68B3F5101F1BD03B68B3F5D0
:10126000201F17D03B68B3F5301F13D03B68B3F590
:10127000401F0FD03B68B3F5501F0BD03B68B3F550
:10128000601F07D046F27C40C0F6000040F2891192
:10129000FFF7C8F94FF48053C4F202035B68FB60A8
:1012A000FB6823F47413FB607A683B681343FA68A5
:1012B0001343FB604FF48053C4F20203FA685A6090
:1012C00007F11007BD4680BD80B582B000AF034670
:1012D000FB71FB79002B0AD0FB79012B07D046F27A
:1012E0007C40C0F6000040F29D11FFF79BF94FF0E3
:1012F0006003C4F24223FA791A6007F10807BD4679
:1013000080BD00BF80B584B000AF786039604FF019
:101310000003FB607B68002B07D046F27C40C0F6E0
:1013200000004FF4DC71FFF77DF93B68002B34D0EF
:101330003B68012B31D03B68022B2ED03B68032B3E
:101340002BD03B68042B28D03B68052B25D03B686D
:10135000062B22D03B68072B1FD03B68082B1CD0E4
:101360003B68092B19D03B680A2B16D03B680B2B26
:1013700013D03B680C2B10D03B680D2B0DD03B6875
:101380000E2B0AD03B680F2B07D046F27C40C0F6EC
:10139000000040F2B911FFF745F94FF48053C4F251
:1013A0000203DB6AFB60FB6823F4803323F00F0346
:1013B000FB607A683B681343FA681343FB604FF4A1
:1013C0008053C4F20203FA68DA6207F11007BD46DF
:1013D00080BD00BF80B584B000AF78604FF00003DF
:1013E000FB607B68002B0DD07B68012B0AD07B68EB
:1013F000022B07D046F27C40C0F6000040F24121AB
:10140000FFF710F94FF48053C4F202035B68FB60EE
:10141000FB6823F00303FB60FA687B681343FB60FF
:101420004FF48053C4F20203FA685A6007F11007C0
:10143000BD4680BD80B400AF4FF48053C4F20203B8
:101440005B68DBB203F00C03DBB21846BD4680BC20
:10145000704700BF80B584B000AF78604FF00003E4
:10146000FB607B68002B1FD07B68802B1CD07B68C7
:10147000902B19D07B68A02B16D07B68B02B13D093
:101480007B68C02B10D07B68D02B0DD07B68E02B05
:101490000AD07B68F02B07D046F27C40C0F60000F3
:1014A00040F26D21FFF7BEF84FF48053C4F20203FF
:1014B0005B68FB60FB6823F0F003FB60FA687B6805
:1014C0001343FB604FF48053C4F20203FA685A607E
:1014D00007F11007BD4680BD80B584B000AF7860CD
:1014E0004FF00003FB607B68002B17D07B68B3F5DF
:1014F000806F13D07B68B3F5A06F0FD07B68B3F516
:10150000C06F0BD07B68B3F5E06F07D046F27C402C
:10151000C0F6000040F28721FFF784F84FF48053B3
:10152000C4F202035B68FB60FB6823F4E063FB60CA
:10153000FA687B681343FB604FF48053C4F20203E4
:10154000FA685A6007F11007BD4680BD80B584B0C7
:1015500000AF78604FF00003FB607B68002B17D072
:101560007B68B3F5806F13D07B68B3F5A06F0FD0A5
:101570007B68B3F5C06F0BD07B68B3F5E06F07D025
:1015800046F27C40C0F6000040F2A121FFF74AF885
:101590004FF48053C4F202035B68FB60FB6823F4E2
:1015A0006053FB607B684FEAC303FA681343FB6038
:1015B0004FF48053C4F20203FA685A6007F110072F
:1015C000BD4680BD80B582B000AF02460B46FA71C1
:1015D000BB71FB7903F0E003002B02D1FB79002BF8
:1015E00007D146F27C40C0F600004FF43271FFF79D
:1015F00019F8BB79002B0AD0BB79012B07D046F232
:101600007C40C0F6000040F2C921FFF70BF8BB791F
:10161000002B0ED041F20903C4F2020341F2090289
:10162000C4F202021278D1B2FA790A43D2B21A7025
:1016300010E041F20903C4F2020341F20902C4F2CC
:1016400002021278D1B2FA796FEA0202D2B20A40EB
:10165000D2B21A7007F10807BD4680BD80B582B0CE
:1016600000AF78607B68002B0AD07B68012B07D025
:1016700046F27C40C0F600004FF43971FEF7D2FF0D
:101680004FF0D803C4F242237A681A6007F10807C2
:10169000BD4680BD80B584B000AF78604FF00003D8
:1016A000FB607B68002B13D07B68B3F5804F0FD0B5
:1016B0007B68B3F5004F0BD07B68B3F5404F07D084
:1016C00046F27C40C0F6000040F20B31FEF7AAFF64
:1016D0004FF48053C4F202035B68FB60FB6823F4A1
:1016E0004043FB60FA687B681343FB604FF4805310
:1016F000C4F20203FA685A6007F11007BD4680BDC4
:1017000080B582B000AF0346FB71FB79002B0DD092
:10171000FB79012B0AD0FB79042B07D046F27C40E1
:10172000C0F6000040F24931FEF77CFF4FF48153D0
:10173000C4F202034FF000021A704FF48153C4F256
:1017400002034FF000021A70FB79012B02D0042B28
:1017500008D00FE04FF48153C4F202034FF00102AE
:101760001A7008E04FF48153C4F202034FF00502EF
:101770001A7000E000BF07F10807BD4680BD00BF3A
:1017800080B582B000AF0346FB71FB79002B0AD015
:10179000FB79012B07D046F27C40C0F6000040F2F6
:1017A0006A31FEF73FFF4FF49063C4F24223FA79A7
:1017B0001A6007F10807BD4680BD00BF80B582B042
:1017C00000AF78607B68B3F5807F0FD07B68B3F59E
:1017D000007F0BD07B68B3F5407F07D046F27C409A
:1017E000C0F6000040F27B31FEF71CFF4FF480533F
:1017F000C4F202034FF48052C4F20202116A7A6802
:101800000A431A6207F10807BD4680BD80B582B061
:1018100000AF0346FB71FB79002B0AD0FB79012B4B
:1018200007D046F27C40C0F6000040F28931FEF756
:10183000F9FE40F23C43C4F24223FA791A6007F100
:101840000807BD4680BD00BF80B489B000AF786096
:101850004FF00003FB614FF00003BB614FF000034A
:101860007B614FF000033B614FF00003FB604FF4DE
:101870008053C4F202035B6803F00C03FB61FB6955
:10188000042B0AD0082B0FD0002B47D17A684FF4D5
:101890009053C0F27A03136047E07A684FF4905394
:1018A000C0F27A03136040E04FF48053C4F20203A5
:1018B0005B6803F47013BB614FF48053C4F20203FE
:1018C0005B6803F480337B61BB694FEA934303F1A8
:1018D0000203BB617B69002B09D1BA694FF4106325
:1018E000C0F23D0303FB02F27B681A601DE04FF477
:1018F0008053C4F20203DB6A03F00F0303F1010318
:10190000FB604FF49053C0F27A03FA68B3FBF2F332
:10191000BA6902FB03F27B681A6006E07A684FF44A
:101920009053C0F27A03136000BF4FF48053C4F2A7
:1019300002035B6803F0F003FB61FB694FEA1313DA
:10194000FB6140F20403C2F20003FA699B181B78A2
:10195000DBB23B617B681A683B6922FA03F27B6861
:101960005A604FF48053C4F202035B6803F4E063EF
:10197000FB61FB694FEA1323FB6140F20403C2F2EF
:101980000003FA699B181B78DBB23B617B685A68DD
:101990003B6922FA03F27B689A604FF48053C4F2E9
:1019A00002035B6803F46053FB61FB694FEAD323D6
:1019B000FB6140F20403C2F20003FA699B181B7832
:1019C000DBB23B617B685A683B6922FA03F27B68B1
:1019D000DA604FF48053C4F202035B6803F44043BF
:1019E000FB61FB694FEA9333FB6140F21403C2F2DF
:1019F0000003FA699B181B78DBB23B617B68DA68ED
:101A00003B69B2FBF3F27B681A6107F12407BD461C
:101A100080BC704780B582B000AF78600B46FB7029
:101A20007B6823F4AA6323F00703002B02D17B68B1
:101A3000002B07D146F27C40C0F6000040F2324154
:101A4000FEF7F0FDFB78002B0AD0FB78012B07D0C6
:101A500046F27C40C0F6000040F23341FEF7E2FD62
:101A6000FB78002B0CD04FF48053C4F202034FF4E8
:101A70008052C4F2020251697A680A435A610DE049
:101A80004FF48053C4F202034FF48052C4F20202B6
:101A900051697A686FEA02020A405A6107F1080741
:101AA000BD4680BD80B582B000AF78600B46FB704C
:101AB0007A684FF00203CFF6C0731340002B02D1B7
:101AC0007B68002B07D146F27C40C0F6000040F254
:101AD0005141FEF7A7FDFB78002B0AD0FB78012BC4
:101AE00007D046F27C40C0F6000040F25241FEF7BB
:101AF00099FDFB78002B0CD04FF48053C4F2020305
:101B00004FF48052C4F2020291697A680A439A61E2
:101B10000DE04FF48053C4F202034FF48052C4F23C
:101B2000020291697A686FEA02020A409A6107F13B
:101B30000807BD4680BD00BF80B582B000AF7860A9
:101B40000B46FB707A684FF45853C8F201131340E8
:101B5000002B02D17B68002B07D146F27C40C0F6F7
:101B600000004FF48E61FEF75DFDFB78002B0AD07C
:101B7000FB78012B07D046F27C40C0F6000040F213
:101B80007141FEF74FFDFB78002B0CD04FF48053D2
:101B9000C4F202034FF48052C4F20202D1697A689F
:101BA0000A43DA610DE04FF48053C4F202034FF4AC
:101BB0008052C4F20202D1697A686FEA02020A40D6
:101BC000DA6107F10807BD4680BD00BF80B582B06D
:101BD00000AF78600B46FB707A684FF00203CFF6D7
:101BE000C0731340002B02D17B68002B07D146F253
:101BF0007C40C0F6000040F2AB41FEF713FDFB78DD
:101C0000002B0AD0FB78012B07D046F27C40C0F6AF
:101C1000000040F2AC41FEF705FDFB78002B0CD034
:101C20004FF48053C4F202034FF48052C4F2020214
:101C3000D1687A680A43DA600DE04FF48053C4F249
:101C400002034FF48052C4F20202D1687A686FEA4C
:101C500002020A40DA6007F10807BD4680BD00BFF6
:101C600080B582B000AF78600B46FB707A684FF4A5
:101C70005853C8F201131340002B02D17B68002B8C
:101C800007D146F27C40C0F6000040F2CA41FEF7A0
:101C9000C9FCFB78002B0AD0FB78012B07D046F259
:101CA0007C40C0F6000040F2CB41FEF7BBFCFB7865
:101CB000002B0CD04FF48053C4F202034FF4805237
:101CC000C4F2020211697A680A431A610DE04FF406
:101CD0008053C4F202034FF48052C4F2020211692D
:101CE0007A686FEA02020A401A6107F10807BD46E6
:101CF00080BD00BF80B582B000AF0346FB71FB79A9
:101D0000002B0AD0FB79012B07D046F27C40C0F6AD
:101D1000000040F2DF41FEF785FC4FF48863C4F217
:101D20004223FA791A6007F10807BD4680BD00BF5B
:101D300080B582B000AF0346FB71FB79002B0AD05F
:101D4000FB79012B07D046F27C40C0F6000040F240
:101D5000EC41FEF767FC4FF04C03C4F24223FA79E2
:101D60001A6007F10807BD4680BD00BF80B582B08C
:101D700000AF0346FB71FB79002B13D0FB79052BD9
:101D800010D0FB79042B0DD0FB79062B0AD0FB7900
:101D9000072B07D046F27C40C0F6000040F20C5101
:101DA000FEF740FC41F20703C4F20203FA791A700D
:101DB00007F10807BD4680BD80B586B000AF034679
:101DC000FB714FF00003FB604FF000037B614FF0AD
:101DD0000003FB74FB79212B25D0FB79312B22D01A
:101DE000FB79392B1FD0FB79412B1CD0FB79612B60
:101DF00019D0FB797A2B16D0FB797B2B13D0FB798A
:101E00007C2B10D0FB797D2B0DD0FB797E2B0AD05B
:101E1000FB797F2B07D046F27C40C0F6000040F2F1
:101E20003B51FEF7FFFBFB794FEA5313DBB2FB603C
:101E3000FB68012B06D14FF48053C4F202031B68E8
:101E40007B610FE0FB68022B06D14FF48053C4F294
:101E500002031B6A7B6105E04FF48053C4F2020366
:101E60005B6A7B61FB7903F01F03FB60FB687A69A7
:101E700022FA03F303F00103002B03D04FF0010318
:101E8000FB7402E04FF00003FB74FB7C184607F183
:101E90001807BD4680BD00BF80B400AF4FF480532B
:101EA000C4F202034FF48052C4F20202526A42F0BA
:101EB00080725A62BD4680BC704700BF80B584B056
:101EC00000AF0346FB714FF00003FB73FB79012B5E
:101ED00016D0FB79022B13D0FB79042B10D0FB79A1
:101EE000082B0DD0FB79102B0AD0FB79802B07D063
:101EF00046F27C40C0F6000040F28551FEF792FBAE
:101F00004FF48053C4F202039A68FB791340002B0C
:101F100003D04FF00103FB7302E04FF00003FB73AB
:101F2000FB7B184607F11007BD4680BD80B582B027
:101F300000AF0346FB71FB7903F06003002B02D175
:101F4000FB79002B07D146F27C40C0F6000040F23E
:101F5000B251FEF767FB41F20A03C4F20203FA79B9
:101F60001A7007F10807BD4680BD00BF80B582B07A
:101F700000AF78607A684FF40063C4F201039A42BC
:101F800031D07A684FF44063C4F201039A422AD0F8
:101F90007A684FF48053C4F201039A4223D07A68DE
:101FA0004FF4A053C4F201039A421CD07A684FF454
:101FB000C053C4F201039A4215D07A684FF4E0533B
:101FC000C4F201039A420ED07A684FF40053C4F26F
:101FD00001039A4207D046F2D840C0F600004FF005
:101FE0006E01FEF71FFB7A684FF40063C4F2010331
:101FF0009A420CD14FF004004FF00101FFF7E6FDCB
:102000004FF004004FF00001FFF7E0FD76E07A6842
:102010004FF44063C4F201039A420CD14FF0080020
:102020004FF00101FFF7D2FD4FF008004FF0000123
:10203000FFF7CCFD62E07A684FF48053C4F20103ED
:102040009A420CD14FF010004FF00101FFF7BEFD96
:102050004FF010004FF00001FFF7B8FD4EE07A6836
:102060004FF4A053C4F201039A420CD14FF0200068
:102070004FF00101FFF7AAFD4FF020004FF00001E3
:10208000FFF7A4FD3AE07A684FF4C053C4F20103AD
:102090009A420CD14FF040004FF00101FFF796FD3E
:1020A0004FF040004FF00001FFF790FD26E07A6806
:1020B0004FF4E053C4F201039A420CD14FF0800078
:1020C0004FF00101FFF782FD4FF080004FF000015B
:1020D000FFF77CFD12E07A684FF40053C4F201036D
:1020E0009A420BD14FF480704FF00101FFF76EFD63
:1020F0004FF480704FF00001FFF768FD07F108070B
:10210000BD4680BD80B500AF4FF001004FF001012A
:10211000FFF75CFD4FF001004FF00001FFF756FDA7
:1021200080BD00BF80B588B000AF786039604FF0E7
:102130000003FB614FF000033B614FF00003BB6104
:102140004FF00003FB604FF000037B614FF0000392
:10215000BB607A684FF40063C4F201039A4231D045
:102160007A684FF44063C4F201039A422AD07A6835
:102170004FF48053C4F201039A4223D07A684FF49B
:10218000A053C4F201039A421CD07A684FF4C053A2
:10219000C4F201039A4215D07A684FF4E053C4F2B6
:1021A00001039A420ED07A684FF40053C4F201033F
:1021B0009A4207D046F2D840C0F600004FF0B10175
:1021C000FEF730FA3B68DB78002B23D03B68DB78E6
:1021D000042B1FD03B68DB78282B1BD03B68DB78B7
:1021E000482B17D03B68DB78142B13D03B68DB7887
:1021F000102B0FD03B68DB781C2B0BD03B68DB78B7
:10220000182B07D046F2D840C0F600004FF0B201BC
:10221000FEF708FA3B681B88002B07D146F2D8402E
:10222000C0F600004FF0B301FEF7FCF93B68DB7825
:1022300003F00F03FB613B68DB7803F01003002B16
:1022400018D03B689B78012B0FD03B689B78022B02
:102250000BD03B689B78032B07D046F2D840C0F6E2
:1022600000004FF0BA01FEF7DDF93B689B78FA6990
:102270001343FB613B681B88DBB2002B4ED07B68AD
:102280001B687B614FF00003BB6141E0BB694FF00D
:10229000010202FA03F3FB603B681B881A46FB68E5
:1022A00013403B613A69FB689A422DD1BB694FEA02
:1022B0008303FB60FB684FF00F0202FA03F3BB607D
:1022C000BB686FEA03037A6913407B61FB68FA69B4
:1022D00002FA03F37A6913437B613B68DB78282BAE
:1022E00007D1BB694FF0010202FA03F27B685A6121
:1022F0000AE03B68DB78482B06D1BB694FF001024E
:1023000002FA03F27B681A61BB6903F10103BB6146
:10231000BB69072BBAD97B687A691A603B681B884E
:10232000FF2B53D97B685B687B614FF00003BB6177
:1023300046E0BB6903F108034FF0010202FA03F320
:10234000FB603B681B881A46FB6813403B613A6997
:10235000FB689A4230D1BB694FEA8303FB60FB689C
:102360004FF00F0202FA03F3BB60BB686FEA03038E
:102370007A6913407B61FB68FA6902FA03F37A69B0
:1023800013437B613B68DB78282B08D1BB6903F1E1
:1023900008034FF0010202FA03F27B685A613B68BE
:1023A000DB78482B08D1BB6903F108034FF0010229
:1023B00002FA03F27B681A61BB6903F10103BB6196
:1023C000BB69072BB5D97B687A695A6007F120078A
:1023D000BD4680BD80B483B000AF78607B684FF6A7
:1023E000FF721A807B684FF002029A707B684FF090
:1023F0000402DA7007F10C07BD4680BC704700BFCD
:1024000080B584B000AF78600B467B804FF000034E
:10241000FB737A684FF40063C4F201039A4231D02F
:102420007A684FF44063C4F201039A422AD07A6872
:102430004FF48053C4F201039A4223D07A684FF4D8
:10244000A053C4F201039A421CD07A684FF4C053DF
:10245000C4F201039A4215D07A684FF4E053C4F2F3
:1024600001039A420ED07A684FF40053C4F201037C
:102470009A4207D046F2D840C0F6000040F21D1143
:10248000FEF7D0F87B88012B3CD07B88022B39D01B
:102490007B88042B36D07B88082B33D07B88102B8D
:1024A00030D07B88202B2DD07B88402B2AD07B8876
:1024B000802B27D07B88B3F5807F23D07B88B3F532
:1024C000007F1FD07B88B3F5806F1BD07B88B3F56E
:1024D000006F17D07B88B3F5805F13D07B88B3F58E
:1024E000005F0FD07B88B3F5804F0BD07B88B3F5AE
:1024F000004F07D046F2D840C0F600004FF48F716D
:10250000FEF790F87B689A687B881340002B03D015
:102510004FF00103FB7302E04FF00003FB73FB7B02
:10252000184607F11007BD4680BD00BF80B582B0D8
:1025300000AF78607A684FF40063C4F201039A42F6
:1025400031D07A684FF44063C4F201039A422AD032
:102550007A684FF48053C4F201039A4223D07A6818
:102560004FF4A053C4F201039A421CD07A684FF48E
:10257000C053C4F201039A4215D07A684FF4E05375
:10258000C4F201039A420ED07A684FF40053C4F2A9
:1025900001039A4207D046F2D840C0F6000040F24C
:1025A0003311FEF73FF87B689B689BB2184607F132
:1025B0000807BD4680BD00BF80B584B000AF78601D
:1025C0000B467B804FF00003FB737A684FF4006387
:1025D000C4F201039A4231D07A684FF44063C4F2E6
:1025E00001039A422AD07A684FF48053C4F201035F
:1025F0009A4223D07A684FF4A053C4F201039A425E
:102600001CD07A684FF4C053C4F201039A4215D02B
:102610007A684FF4E053C4F201039A420ED07A680C
:102620004FF40053C4F201039A4207D046F2D84057
:10263000C0F6000040F24311FDF7F4FF7B88012B48
:102640003CD07B88022B39D07B88042B36D07B880A
:10265000082B33D07B88102B30D07B88202B2DD0BB
:102660007B88402B2AD07B88802B27D07B88B3F5B2
:10267000807F23D07B88B3F5007F1FD07B88B3F5A4
:10268000806F1BD07B88B3F5006F17D07B88B3F5C4
:10269000805F13D07B88B3F5005F0FD07B88B3F5E4
:1026A000804F0BD07B88B3F5004F07D046F2D8405F
:1026B000C0F600004FF4A271FDF7B4FF7B68DA6842
:1026C0007B881340002B03D04FF00103FB7302E023
:1026D0004FF00003FB73FB7B184607F11007BD4664
:1026E00080BD00BF80B582B000AF78607A684FF4DB
:1026F0000063C4F201039A4231D07A684FF4406318
:10270000C4F201039A422AD07A684FF48053C4F28B
:1027100001039A4223D07A684FF4A053C4F2010314
:102720009A421CD07A684FF4C053C4F201039A4213
:1027300015D07A684FF4E053C4F201039A420ED0E8
:102740007A684FF40053C4F201039A4207D046F26C
:10275000D840C0F6000040F25911FDF763FF7B68D6
:10276000DB689BB2184607F10807BD4680BD00BF75
:1027700080B582B000AF78600B467B807A684FF4FA
:102780000063C4F201039A4231D07A684FF4406387
:10279000C4F201039A422AD07A684FF48053C4F2FB
:1027A00001039A4223D07A684FF4A053C4F2010384
:1027B0009A421CD07A684FF4C053C4F201039A4283
:1027C00015D07A684FF4E053C4F201039A420ED058
:1027D0007A684FF40053C4F201039A4207D046F2DC
:1027E000D840C0F600004FF4B471FDF71BFF7B88A2
:1027F000002B07D146F2D840C0F6000040F2691124
:10280000FDF710FF7A887B681A6107F10807BD465B
:1028100080BD00BF80B582B000AF78600B467B8082
:102820007A684FF40063C4F201039A4231D07A68A7
:102830004FF44063C4F201039A422AD07A684FF4FD
:102840008053C4F201039A4223D07A684FF4A05314
:10285000C4F201039A421CD07A684FF4C053C4F208
:1028600001039A4215D07A684FF4E053C4F2010391
:102870009A420ED07A684FF40053C4F201039A4290
:1028800007D046F2D840C0F600004FF4BC71FDF707
:10289000C9FE7B88002B07D146F2D840C0F6000065
:1028A00040F27911FDF7BEFE7A887B685A6107F124
:1028B0000807BD4680BD00BF80B582B000AF78601C
:1028C00013460A467A807B707A684FF40063C4F23C
:1028D00001039A4231D07A684FF44063C4F2010395
:1028E0009A422AD07A684FF48053C4F201039A4284
:1028F00023D07A684FF4A053C4F201039A421CD04B
:102900007A684FF4C053C4F201039A4215D07A6832
:102910004FF4E053C4F201039A420ED07A684FF4A8
:102920000053C4F201039A4207D046F2D840C0F6E1
:1029300000004FF4C671FDF775FE7B88012B3CD07B
:102940007B88022B39D07B88042B36D07B88082BE0
:1029500033D07B88102B30D07B88202B2DD07B88E8
:10296000402B2AD07B88802B27D07B88B3F5807FB3
:1029700023D07B88B3F5007F1FD07B88B3F5806FB1
:102980001BD07B88B3F5006F17D07B88B3F5805FD1
:1029900013D07B88B3F5005F0FD07B88B3F5804FF1
:1029A0000BD07B88B3F5004F07D046F2D840C0F675
:1029B000000040F28D11FDF735FE7B78002B0AD028
:1029C0007B78012B07D046F2D840C0F600004FF4C8
:1029D000C771FDF727FE7B78002B03D07A887B68D0
:1029E0001A6102E07A887B685A6107F10807BD46E0
:1029F00080BD00BF80B582B000AF78600B467B80A1
:102A00007A684FF40063C4F201039A4231D07A68C5
:102A10004FF44063C4F201039A422AD07A684FF41B
:102A20008053C4F201039A4223D07A684FF4A05332
:102A3000C4F201039A421CD07A684FF4C053C4F226
:102A400001039A4215D07A684FF4E053C4F20103AF
:102A50009A420ED07A684FF40053C4F201039A42AE
:102A600007D046F2D840C0F6000040F2A311FDF7AF
:102A7000D9FD7A887B68DA6007F10807BD4680BD1A
:102A800080B584B000AF78600B467B804FF4803314
:102A9000FB607A684FF40063C4F201039A4231D0BC
:102AA0007A684FF44063C4F201039A422AD07A68EC
:102AB0004FF48053C4F201039A4223D07A684FF452
:102AC000A053C4F201039A421CD07A684FF4C05359
:102AD000C4F201039A4215D07A684FF4E053C4F26D
:102AE00001039A420ED07A684FF40053C4F20103F6
:102AF0009A4207D046F2D840C0F600004FF4DA718F
:102B0000FDF790FD7B88002B07D146F2D840C0F638
:102B1000000040F2B511FDF785FD7B88FA6813438C
:102B2000FB607B68FA689A617A887B689A617B6847
:102B3000FA689A617B689B69FB607B689B69FB60B4
:102B400007F11007BD4680BD80B584B000AF0246D6
:102B50000B46FA71BB714FF00003FB60FB79002B51
:102B600013D0FB79012B10D0FB79022B0DD0FB7910
:102B7000032B0AD0FB79042B07D046F2D840C0F6CD
:102B8000000040F2D111FDF74DFDBB79002B34D090
:102B9000BB79012B31D0BB79022B2ED0BB79032B13
:102BA0002BD0BB79042B28D0BB79052B25D0BB7942
:102BB000062B22D0BB79072B1FD0BB79082B1CD04A
:102BC000BB79092B19D0BB790A2B16D0BB790B2BFB
:102BD00013D0BB790C2B10D0BB790D2B0DD0BB794A
:102BE0000E2B0AD0BB790F2B07D046F2D840C0F687
:102BF00000004FF4E971FDF715FD4FF00003C4F23A
:102C000001031B68FB60FA684FF680731340FB609A
:102C1000FB794FEA0313FA681343FB60BB79FA6848
:102C20001343FB604FF00003C4F20103FA681A601B
:102C300007F11007BD4680BD80B582B000AF0346E6
:102C4000FB71FB79002B0AD0FB79012B07D046F2F0
:102C5000D840C0F6000040F2E511FDF7E3FC4FF06C
:102C60001C03C4F22023FA791A6007F10807BD4655
:102C700080BD00BF80B586B000AF78600B46FB70AA
:102C80004FF000033B614FF00003FB604FF0000387
:102C90007B614FF00003BB607B68012B00F0188163
:102CA0007B68022B00F014817B68042B00F01081FC
:102CB0007B68082B00F00C817A684FF01003C0F29B
:102CC00014039A4200F004817A684FF03003C0F296
:102CD00014039A4200F0FC807A684FF04003C0F27F
:102CE00016039A4200F0F4807A684FF0C003C0F2F5
:102CF00016039A4200F0EC807A684FF48073C0F2B9
:102D000018039A4200F0E4807A684FF40073C0F22E
:102D100018039A4200F0DC807A684FF44073C0F2E6
:102D200018039A4200F0D4807A684FF40063C0F22E
:102D30001A039A4200F0CC807A684FF44063C0F2E4
:102D40001A039A4200F0C4807B68B3F5805F00F0FC
:102D5000BF807B68B3F5EA1F00F0BA807B68B3F5EB
:102D6000EB1F00F0B5807B68B3F5004F00F0B0803A
:102D70007A684FF00103C0F220039A4200F0A88065
:102D80007A684FF00203C0F220039A4200F0A0805C
:102D90007A684FF00403C0F220039A4200F0988052
:102DA0007A684FF00803C0F220039A4200F0908046
:102DB0007A684FF01003C0F220039A4200F0888036
:102DC0007B68B3F1201F00F083807A684FF04003E6
:102DD000C0F220039A427BD07A684FF48073C0F22D
:102DE00030039A4274D07A684FF40073C0F2300313
:102DF0009A426DD07A684FF48063C0F230039A42F1
:102E000066D07A684FF48053C0F220039A425FD0B4
:102E10007A684FF40053C0F220039A4258D07B687E
:102E2000B3F5011F54D07A684FF00103C8F20003D4
:102E30009A424DD07A684FF00203C8F200039A42DA
:102E400046D07A684FF00403C8F200039A423FD09C
:102E50007A684FF00803C8F200039A4238D07A68C3
:102E60004FF01003C8F200039A4231D07A684FF055
:102E70002003C8F200039A422AD07A684FF0400338
:102E8000C8F200039A4223D07A684FF08003C8F258
:102E900000039A421CD07A684FF48073C8F2000392
:102EA0009A4215D07A684FF40073C8F200039A4230
:102EB0000ED07A684FF48063C8F200039A4207D0BC
:102EC00046F2D840C0F6000040F22221FDF7AAFBEE
:102ED000FB78002B0AD0FB78012B07D046F2D840B4
:102EE000C0F6000040F22321FDF79CFB7B68002B1D
:102EF00006DA4FF00003C4F20103DB697B6105E0F1
:102F00004FF00003C4F201035B687B617B6803F44C
:102F100070234FEA1343BB607B684FEA03434FEAD9
:102F200013433B617B6803F44013B3F5401F10D19A
:102F30007B6923F070637B614FF00003C4F20103EF
:102F40004FF00002C4F20102526822F070625A602F
:102F500026E07B6803F48013002B10D0BB684FF091
:102F6000030202FA03F3FB60FB686FEA03037A696A
:102F700013407B617B6943F070637B6110E07B6889
:102F80004FEA53534FEA03133A6902FA03F36FEA25
:102F900003037A6913407B617B6943F070637B6153
:102FA000FB78002B0AD07B684FEA53534FEA031398
:102FB0003A6902FA03F37A6913437B617B68002B59
:102FC00006DA4FF00003C4F201037A69DA6105E022
:102FD0004FF00003C4F201037A695A6007F1180741
:102FE000BD4680BD90B585B000AF02460B46FA7174
:102FF000BB714FF00003FB60FB79002B19D0FB790C
:10300000012B16D0FB79022B13D0FB79032B10D0A8
:10301000FB79042B0DD0FB79052B0AD0FB79062B0D
:1030200007D046F2D840C0F6000040F25D21FDF71F
:10303000F9FABB79002B34D0BB79012B31D0BB79A5
:10304000022B2ED0BB79032B2BD0BB79042B28D09D
:10305000BB79052B25D0BB79062B22D0BB79072B5A
:103060001FD0BB79082B1CD0BB79092B19D0BB7999
:103070000A2B16D0BB790B2B13D0BB790C2B10D09D
:10308000BB790D2B0DD0BB790E2B0AD0BB790F2B42
:1030900007D046F2D840C0F6000040F25E21FDF7AE
:1030A000C1FABB7903F003034FEA83034FF00F0229
:1030B00002FA03F3FB604FF00003C4F20103BA7994
:1030C0004FEA9202D2B210464FF00002C4F201025F
:1030D000B9794FEA9101C9B201F1020152F8211008
:1030E000FA686FEA0202114000F1020243F822106E
:1030F0004FF00003C4F20103BA794FEA9202D2B250
:1031000010464FF00002C4F20102B9794FEA910172
:10311000C9B201F1020152F82110FC79BA7902F02A
:1031200003024FEA820204FA02F2114300F10202A2
:1031300043F8221007F11407BD4690BD80B582B058
:1031400000AF78607B68002B0AD07B68012B07D02A
:1031500046F2D840C0F600004FF41C71FDF762FA49
:103160004FF0DC03C4F220237A681A6007F10807E5
:10317000BD4680BD80B582B000AF78607A684FF4FC
:103180004053C4F201039A4215D07A684FF4605359
:10319000C4F200039A420ED07A684FF47053C4F21E
:1031A00000039A4207D046F23450C0F600004FF0B8
:1031B0007901FDF737FA7A684FF44053C4F20103FE
:1031C0009A420CD14FF480504FF00101FEF7FEFC03
:1031D0004FF480504FF00001FEF7F8FC26E07A68CB
:1031E0004FF46053C4F200039A420CD14FF4804074
:1031F0004FF00101FEF734FD4FF480404FF0000125
:10320000FEF72EFD12E07A684FF47053C4F200030B
:103210009A420BD14FF400404FF00101FEF720FD20
:103220004FF400404FF00001FEF71AFD07F10807C8
:10323000BD4680BD80B584B000AF786039604FF086
:103240000003FB817A684FF44053C4F201039A42B1
:1032500015D07A684FF46053C4F200039A420ED03E
:103260007A684FF47053C4F200039A4207D046F2D2
:103270003450C0F600004FF0A201FDF7D3F93B68CF
:103280001B88002B16D03B681B88B3F5806F11D0CC
:103290003B681B88B3F5004F0CD03B681B88B3F527
:1032A000404F07D046F23450C0F600004FF0A50161
:1032B000FDF7B8F93B685B88B3F5827F0BD03B68BC
:1032C0005B88002B07D046F23450C0F600004FF068
:1032D000A601FDF7A7F93B689B88B3F5006F0BD0FB
:1032E0003B689B88002B07D046F23450C0F60000A4
:1032F0004FF0A701FDF796F93B68DB88002B0BD058
:103300003B68DB88022B07D046F23450C0F6000041
:103310004FF0A801FDF786F93B681B89002B0BD005
:103320003B681B89012B07D046F23450C0F60000E1
:103330004FF0A901FDF776F93B685B89B3F5007F93
:103340000BD03B685B89002B07D046F23450C0F6A7
:1033500000004FF0AA01FDF765F93B689B89002B3F
:1033600023D03B689B89082B1FD03B689B89102B7F
:103370001BD03B689B89182B17D03B689B89202B5F
:1033800013D03B689B89282B0FD03B689B89302B3F
:103390000BD03B689B89382B07D046F23450C0F6DF
:1033A00000004FF0AB01FDF73DF93B68DB89002BD6
:1033B0000BD03B68DB89802B07D046F23450C0F637
:1033C00000004FF0AC01FDF72DF93B681B8A002B84
:1033D00007D146F23450C0F600004FF0AD01FDF7C2
:1033E00021F97B681B88FB81FB8903F44153FB8136
:1033F0003B681A883B685B8813439AB23B689B889A
:1034000013439AB23B68DB8813439AB23B681B892B
:1034100013439AB23B685B8913439AB23B689B891A
:1034200013439AB23B68DB8913439AB2FB89134377
:10343000FB817B68FA891A807B689B8B9BB223F4A3
:1034400000639AB27B689A833B681A8A7B681A8207
:1034500007F11007BD4680BD80B58CB000AF786025
:1034600039604FF000037B844FF00203FB854FF07F
:103470000003BB854FF001037B854FF000037B62A7
:103480004FF00003FB617A684FF46053C4F200030D
:103490009A420ED07A684FF47053C4F200039A42F5
:1034A00007D046F23450C0F600004FF0E201FDF7BD
:1034B000B9F83B681B88002B16D03B681B88B3F516
:1034C000807F11D03B681B88B3F5007F0CD03B6830
:1034D0001B88B3F5407F07D046F23450C0F6000099
:1034E0004FF0E301FDF79EF83B685B88002B17D097
:1034F0003B685B88102B13D03B685B88202B0FD078
:103500003B685B88302B0BD03B685B88B02B07D0C7
:1035100046F23450C0F600004FF0E401FDF782F8A7
:103520003B689B88002B13D03B689B88012B0FD0F6
:103530003B689B88032B0BD03B689B88052B07D0EF
:1035400046F23450C0F600004FF0E501FDF76AF88E
:103550003B68DB88B3F5007F0BD03B68DB88002B32
:1035600007D046F23450C0F600004FF0E601FDF7F8
:1035700059F83B689A684FF4EE43C0F201039A424F
:1035800032D03B689A684BF680339A422CD03B6825
:103590009A684AF644439A4226D03B689B68B3F542
:1035A000FA4F21D03B689A6845F222639A421BD0B9
:1035B0003B689B68B3F57A5F16D03B689A6842F621
:1035C00011339A4210D03B689B68B3F5FA5F0BD079
:1035D0003B689B68022B07D046F23450C0F60000CF
:1035E0004FF0E701FDF71EF83B689B89002B0BD0DD
:1035F0003B689B89082B07D046F23450C0F6000088
:103600004FF0E801FDF70EF87B689B8B9BB223F42B
:103610007B6323F00F039AB27B689A837B684FF039
:1036200002021A847B689B8B7B843B689B68022B1D
:1036300006D14FF00003BB854FF00203FB8567E026
:103640003B689B88002B03D14FF001037B8502E090
:103650004FF002037B857A684FF46053C4F2000395
:103660009A4203D14FF400337B6202E04FF480238F
:103670007B6207F108031846FEF7E6F8BB68FB61BA
:103680003B68DB88B3F5007F13D1FB694FEA132257
:1036900013464FEA83039B184FEA43031A463B68DD
:1036A0009B68B2FBF3F39BB203F105039BB27B6211
:1036B00015E07B8D4FEA4313FA69B2FBF3F2134630
:1036C0004FEA83039B184FEA43031A463B689B6803
:1036D000B2FBF3F39BB203F105039BB27B627A6A00
:1036E0004CF6CD43CCF6CC43A3FB02134FEAD303F5
:1036F0007B627B6A9BB203F00103BB85BB8D7A6A58
:10370000D31A4FEA5303FB85BB8D4FEA0323BB85D6
:10371000FB8D012B02D9FB8DFF2B05D94FF0020346
:10372000FB854FF00003BB853B68DA88BB8D1343F4
:103730009AB2FB8D13439AB27B681A843B681A884D
:103740003B6859883B6898883B689B8903439BB2D8
:103750000B439BB213439AB27B8C13439BB243F44B
:1037600000637B847B687A8C9A8307F13007BD46BF
:1037700080BD00BF80B483B000AF78607B684FF03D
:1037800000021A807B684FF000025A807B684FF07D
:1037900000029A807B684FF00002DA807B684FF06D
:1037A00000021A817B684FF000025A817B684FF05B
:1037B00000029A817B684FF00002DA817B684FF04B
:1037C00007021A8207F10C07BD4680BC704700BF94
:1037D00080B483B000AF78607B684FF000021A803D
:1037E0007B684FF000025A807B684FF000029A809D
:1037F0007B684FF00002DA807B684FF002029A602B
:103800007B684FF000029A8107F10C07BD4680BC2F
:10381000704700BF80B582B000AF78600B46FB7088
:103820007A684FF44053C4F201039A4215D07A6883
:103830004FF46053C4F200039A420ED07A684FF4FA
:103840007053C4F200039A4207D046F23450C0F6D7
:10385000000040F2AD11FCF7E5FEFB78002B0AD02A
:10386000FB78012B07D046F23450C0F600004FF42D
:10387000D771FCF7D7FEFB78002B08D07B681B883C
:103880009BB243F040039AB27B681A8007E07B68E2
:103890001B889BB223F040039AB27B681A8007F121
:1038A0000807BD4680BD00BF80B582B000AF78601C
:1038B0000B46FB707A684FF46053C4F200039A42DF
:1038C0000ED07A684FF47053C4F200039A4207D0C6
:1038D00046F23450C0F6000040F2C511FCF7A2FEDB
:1038E000FB78002B0AD0FB78012B07D046F234502E
:1038F000C0F600004FF4E371FCF794FEFB78002B58
:1039000008D07B689B8B9BB243F480639AB27B6840
:103910009A8307E07B689B8B9BB223F480639AB207
:103920007B689A8307F10807BD4680BD80B584B0E7
:1039300000AF786013460A46FA70BB704FF0000380
:10394000FB814FF00003BB817A684FF44053C4F20F
:1039500001039A4215D07A684FF46053C4F2000311
:103960009A420ED07A684FF47053C4F200039A4220
:1039700007D046F23450C0F6000040F2E511FCF7E3
:1039800051FEBB78002B0AD0BB78012B07D046F242
:103990003450C0F600004FF4F371FCF743FEFB789F
:1039A000712B0DD0FB78602B0AD0FB78502B07D001
:1039B00046F23450C0F6000040F2E711FCF732FE48
:1039C000FB784FEA1313DBB2FB81FB894FF0010256
:1039D00002FA03F3BB81BB78002B08D07B689B887D
:1039E0009AB2BB8913439AB27B689A800AE07B68DB
:1039F0009B889AB2BB896FEA03039BB213409AB2C9
:103A00007B689A8007F11007BD4680BD80B582B003
:103A100000AF786013460A467A807B707A684FF46C
:103A20004053C4F201039A4215D07A684FF46053B0
:103A3000C4F200039A420ED07A684FF47053C4F275
:103A400000039A4207D046F23450C0F6000040F21C
:103A50000B21FCF7E7FD7B78002B0AD07B78012B4C
:103A600007D046F23450C0F600004FF40371FCF763
:103A7000D9FD7A884FF6FC731340002B02D17B8866
:103A8000002B07D146F23450C0F6000040F20D2161
:103A9000FCF7C8FD7B78002B08D07B689B889AB226
:103AA0007B8813439AB27B689A800AE07B689B8884
:103AB0009AB27B886FEA03039BB213409AB27B6889
:103AC0009A8007F10807BD4680BD00BF80B582B06F
:103AD00000AF78600B467B807A684FF44053C4F2A5
:103AE00001039A4215D07A684FF46053C4F2000380
:103AF0009A420ED07A684FF47053C4F200039A428F
:103B000007D046F23450C0F6000040F22521FCF701
:103B100089FD7B687A889A8107F10807BD4680BDD8
:103B200080B582B000AF78607A684FF44053C4F239
:103B300001039A4215D07A684FF46053C4F200032F
:103B40009A420ED07A684FF47053C4F200039A423E
:103B500007D046F23450C0F6000040F23521FCF7A1
:103B600061FD7B689B899BB2184607F10807BD463B
:103B700080BD00BF80B582B000AF78600B467B800F
:103B80007A684FF44053C4F201039A4215D07A6820
:103B90004FF46053C4F200039A420ED07A684FF497
:103BA0007053C4F200039A4207D046F23450C0F674
:103BB000000040F24721FCF735FD7B88B3F5807F9C
:103BC0000CD07A884FF6FF639A4207D046F2345001
:103BD000C0F600004FF41271FCF724FD7A884FF60E
:103BE000FF639A4208D07B681B889BB243F48073C2
:103BF0009AB27B681A8007E07B681B889BB223F42B
:103C000080739AB27B681A8007F10807BD4680BDB1
:103C100080B582B000AF78600B46FB707A684FF4D5
:103C20004053C4F201039A4215D07A684FF46053AE
:103C3000C4F200039A420ED07A684FF47053C4F273
:103C400000039A4207D046F23450C0F6000040F21A
:103C50005F21FCF7E7FCFB78002B0AD0FB78012BF7
:103C600007D046F23450C0F600004FF41871FCF74C
:103C7000D9FCFB78002B08D07B689B889BB243F073
:103C800004039AB27B689A8007E07B689B889BB2AA
:103C900023F004039AB27B689A8007F10807BD46B7
:103CA00080BD00BF80B582B000AF78600B467B80DE
:103CB0007A684FF44053C4F201039A4215D07A68EF
:103CC0004FF46053C4F200039A420ED07A684FF466
:103CD0007053C4F200039A4207D046F23450C0F643
:103CE000000040F27921FCF79DFC7B88B3F5006F62
:103CF0000AD07B88002B07D046F23450C0F6000073
:103D000040F27A21FCF78EFC7B681B889BB223F47F
:103D100000639AB27B681A807B681B889AB27B88A2
:103D200013439AB27B681A8007F10807BD4680BD2D
:103D300080B582B000AF78607A684FF44053C4F227
:103D400001039A4215D07A684FF46053C4F200031D
:103D50009A420ED07A684FF47053C4F200039A422C
:103D600007D046F23450C0F6000040F28921FCF73B
:103D700059FC7B681B889BB243F480539AB27B68E2
:103D80001A8007F10807BD4680BD00BF80B582B02C
:103D900000AF78600B46FB707A684FF44053C4F272
:103DA00001039A4215D07A684FF46053C4F20003BD
:103DB0009A420ED07A684FF47053C4F200039A42CC
:103DC00007D046F23450C0F6000040F29921FCF7CB
:103DD00029FCFB78002B0AD0FB78012B07D046F298
:103DE0003450C0F6000040F29A21FCF71BFCFB782F
:103DF000002B08D07B681B889BB243F400539AB217
:103E00007B681A8007E07B681B889BB223F4005311
:103E10009AB27B681A8007F10807BD4680BD00BFD3
:103E200080B584B000AF78600B46FB704FF00003A4
:103E3000FB817A684FF44053C4F201039A4215D0D3
:103E40007A684FF46053C4F200039A420ED07A6845
:103E50004FF47053C4F200039A4207D046F2345034
:103E6000C0F600004FF42D71FCF7DCFBFB78002B53
:103E70000AD0FB78012B07D046F23450C0F6000080
:103E800040F2B521FCF7CEFBFB78012B03D07B6819
:103E90001B8BFB8102E07B689B8AFB81FB891846B8
:103EA00007F11007BD4680BD80B582B000AF7860D5
:103EB0007A684FF44053C4F201039A4215D07A68ED
:103EC0004FF46053C4F200039A420ED07A684FF464
:103ED0007053C4F200039A4207D046F23450C0F641
:103EE00000004FF43371FCF79DFB7B681B8A9BB28B
:103EF000184607F10807BD4680BD00BF80B582B0F7
:103F000000AF78600B467B807A684FF44053C4F270
:103F100001039A4215D07A684FF46053C4F200034B
:103F20009A420ED07A684FF47053C4F200039A425A
:103F300007D046F23450C0F6000040F2DE21FCF714
:103F400071FB7A884BF6FF739A420BD07B88B3F5EE
:103F5000804F07D046F23450C0F6000040F2DF2117
:103F6000FCF760FB7B88B3F5804F08D17B681B882A
:103F70009BB243F480439AB27B681A8007E07B6867
:103F80001B889BB223F480439AB27B681A8007F1A6
:103F90000807BD4680BD00BF80B584B000AF786023
:103FA0000B467B804FF00003FB737A684FF440535D
:103FB000C4F201039A4215D07A684FF46053C4F2F8
:103FC00000039A420ED07A684FF47053C4F2000393
:103FD0009A4207D046F23450C0F6000040F2013158
:103FE000FCF720FB7B88802B1CD07B88402B19D0D2
:103FF0007B88202B16D07B88102B13D07B88082B36
:1040000010D07B88042B0DD07B88022B0AD07B88B4
:10401000012B07D046F23450C0F6000040F20231C6
:10402000FCF700FB7B681B899AB27B8813409BB22C
:10403000002B03D04FF00103FB7302E04FF00003AD
:10404000FB73FB7B184607F11007BD4680BD00BF20
:1040500080B582B000AF78600B467B807A684FF401
:104060004053C4F201039A4215D07A684FF460536A
:10407000C4F200039A420ED07A684FF47053C4F22F
:1040800000039A4207D046F23450C0F6000040F2D6
:104090002631FCF7C7FA7B88102B07D046F2345044
:1040A000C0F6000040F22731FCF7BCFA7B886FEACB
:1040B00003039AB27B681A8107F10807BD4680BDE9
:1040C00080B584B000AF78600B46FB704FF0000302
:1040D000FB734FF00003BB814FF000037B814FF077
:1040E00000033B817A684FF44053C4F201039A42C3
:1040F00015D07A684FF46053C4F200039A420ED090
:104100007A684FF47053C4F200039A4207D046F223
:104110003450C0F6000040F24231FCF783FAFB78DD
:10412000602B16D0FB78712B13D0FB78532B10D05B
:10413000FB78542B0DD0FB78552B0AD0FB78562BEF
:1041400007D046F23450C0F6000040F24331FCF78D
:1041500069FAFB7803F00F034FF0010202FA03F350
:10416000BB81FB784FEA1313DBB27B817B894FF075
:10417000010202FA03F37B817B689B889AB27B89F8
:1041800013403B817B681B899AB2BB8913409BB269
:10419000002B06D03B89002B03D04FF00103FB73AB
:1041A00002E04FF00003FB73FB7B184607F110079A
:1041B000BD4680BD80B584B000AF78600B46FB7013
:1041C0004FF00003FB817A684FF44053C4F20103BF
:1041D0009A4215D07A684FF46053C4F200039A42B1
:1041E0000ED07A684FF47053C4F200039A4207D09D
:1041F00046F23450C0F6000040F27631FCF712FA75
:10420000FB78542B07D046F23450C0F6000040F241
:104210007731FCF707FAFB7803F00F034FF0010248
:1042200002FA03F3FB81FB896FEA03039AB27B680E
:104230001A8107F11007BD4680BD00BF80B582B06E
:1042400000AF78607A684FF46053C4F201039A4279
:1042500023D07A684FF48843C4F200039A421CD0FA
:104260007A684FF49043C4F200039A4215D07A68FA
:104270004FF49843C4F200039A420ED07A684FF488
:10428000A043C4F200039A4207D046F29050C0F611
:1042900000004FF08301FCF7C5F97A684FF46053D2
:1042A000C4F201039A420CD14FF480404FF0010157
:1042B000FDF78CFC4FF480404FF00001FDF786FCC9
:1042C0004EE07A684FF48843C4F200039A420CD15E
:1042D0004FF400304FF00101FDF7C2FC4FF4003005
:1042E0004FF00001FDF7BCFC3AE07A684FF49043D0
:1042F000C4F200039A420CD14FF480204FF0010128
:10430000FDF7AEFC4FF480204FF00001FDF7A8FC54
:1043100026E07A684FF49843C4F200039A420CD125
:104320004FF400204FF00101FDF79AFC4FF40020FC
:104330004FF00001FDF794FC12E07A684FF4A043BF
:10434000C4F200039A420BD14FF480104FF00101E8
:10435000FDF786FC4FF480104FF00001FDF780FC64
:1043600007F10807BD4680BD80B58CB000AF78600E
:1043700039604FF00003FB624FF00003BB624FF067
:1043800000037B624FF000033B624FF00003FB61D0
:104390007A684FF46053C4F201039A4223D07A68DA
:1043A0004FF48843C4F200039A421CD07A684FF459
:1043B0009043C4F200039A4215D07A684FF49843B0
:1043C000C4F200039A420ED07A684FF4A043C4F2BC
:1043D00000039A4207D046F29050C0F600004FF01A
:1043E000B501FCF71FF93B681B68002B07D03B6841
:1043F0001A684AF62023C0F244039A4207D946F2CB
:104400009050C0F600004FF0B601FCF70BF93B6886
:104410009B88002B0CD03B689B88B3F5805F07D04E
:1044200046F29050C0F600004FF0B701FCF7FAF8E2
:104430003B68DB88002B16D03B68DB88B3F5805FD8
:1044400011D03B68DB88B3F5005F0CD03B68DB889C
:10445000B3F5405F07D046F29050C0F600004FF031
:10446000B801FCF7DFF83B681B89002B11D03B68D3
:104470001B89B3F5806F0CD03B681B89B3F5C06F07
:1044800007D046F29050C0F600004FF0B901FCF79B
:10449000C9F83B685B891A464FF6F3731340002B4B
:1044A00003D13B685B89002B07D146F29050C0F6E0
:1044B00000004FF0BA01FCF7B5F83B689B89002B70
:1044C00016D03B689B89B3F5807F11D03B689B89F0
:1044D000B3F5007F0CD03B689B89B3F5407F07D0D4
:1044E00046F29050C0F600004FF0BB01FCF79AF87E
:1044F0003B689B89002B1CD07A684FF46053C4F250
:1045000001039A4215D07A684FF48843C4F200033D
:104510009A420ED07A684FF49043C4F200039A4254
:1045200007D046F29050C0F600004FF0BF01FCF7F4
:1045300079F87B68FB617B681B8A9BB2FB62FA6A35
:104540004CF6FF731340FB623B68DB88FA6A134347
:10455000FB62FB6A9AB27B681A827B689B899BB27A
:10456000FB62FA6A4EF6F3131340FB623B689A88CB
:104570003B681B8913439AB23B685B8913439BB228
:10458000FA6A1343FB62FB6A9AB27B689A817B6882
:104590009B8A9BB2FB62FA6A4FF6FF431340FB62B1
:1045A0003B689B89FA6A1343FB62FB6A9AB27B6899
:1045B0009A8207F108031846FDF746F9FA694FF4A5
:1045C0006053C4F201039A4202D17B69BB6201E0ED
:1045D0003B69BB627B689B899BB29BB21BB2002B81
:1045E0000FDABA6A13464FEA83039B184FEA830235
:1045F0009A183B681B684FEA4303B2FBF3F37B62F4
:104600000EE0BA6A13464FEA83039B184FEA83020F
:104610009A183B681B684FEA8303B2FBF3F37B6293
:104620007A6A48F21F53C5F2EB13A3FB02134FEA59
:1046300053134FEA0313FB62FB6A4FEA13134FF065
:10464000640202FB03F37A6AD31A3B627B689B899C
:104650009BB29BB21BB2002B12DA3B6A4FEAC30338
:1046600003F1320248F21F53C5F2EB13A3FB02130E
:104670004FEA531303F00703FA6A1343FB6211E096
:104680003B6A4FEA031303F1320248F21F53C5F2AB
:10469000EB13A3FB02134FEA531303F00F03FA6A61
:1046A0001343FB62FB6A9AB27B681A8107F13007F9
:1046B000BD4680BD80B483B000AF78607B684FF4A6
:1046C00016521A607B684FF000029A807B684FF0A8
:1046D0000002DA807B684FF000021A817B684FF09D
:1046E0000C025A817B684FF000029A8107F10C0797
:1046F000BD4680BC704700BF80B584B000AF786015
:1047000039604FF00003FB607A684FF46053C4F2E5
:1047100001039A4215D07A684FF48843C4F200032B
:104720009A420ED07A684FF49043C4F200039A4242
:1047300007D046F29050C0F6000040F22F11FBF770
:1047400071FF3B681B88002B0CD03B681B88B3F5BE
:10475000006F07D046F29050C0F600004FF49871F9
:10476000FBF760FF3B685B88002B0CD03B685B88E5
:10477000B3F5806F07D046F29050C0F6000040F2CB
:104780003111FBF74FFF3B689B88002B0CD03B6837
:104790009B88B3F5007F07D046F29050C0F600002A
:1047A0004FF49971FBF73EFF3B68DB88002B0CD080
:1047B0003B68DB88B3F5807F07D046F29050C0F6A7
:1047C000000040F23311FBF72DFF7B681B8A9BB280
:1047D000FB60FA684FF2FF031340FB603B681A88E6
:1047E0003B685B8813439AB23B689B8813439AB239
:1047F0003B68DB8813439BB2FA681343FB60FB689A
:104800009AB27B681A8207F11007BD4680BD00BFCF
:1048100080B483B000AF78607B684FF000021A80EC
:104820007B684FF000025A807B684FF000029A804C
:104830007B684FF00002DA8007F10C07BD4680BCB0
:10484000704700BF80B582B000AF78600B46FB7048
:104850007A684FF46053C4F201039A4223D07A6815
:104860004FF48843C4F200039A421CD07A684FF494
:104870009043C4F200039A4215D07A684FF49843EB
:10488000C4F200039A420ED07A684FF4A043C4F2F7
:1048900000039A4207D046F29050C0F6000040F262
:1048A0005F11FBF7BFFEFB78002B0AD0FB78012BD2
:1048B00007D046F29050C0F600004FF4B071FBF7FD
:1048C000B1FEFB78002B08D07B689B899BB243F438
:1048D00000539AB27B689A8107E07B689B899BB200
:1048E00023F400539AB27B689A8107F10807BD460A
:1048F00080BD00BF80B586B000AF786013460A4621
:104900007A807B704FF000033B614FF00003FB6047
:104910004FF00003BB604FF000037B617A684FF4F7
:104920006053C4F201039A4223D07A684FF488435B
:10493000C4F200039A421CD07A684FF49043C4F248
:1049400000039A4215D07A684FF49843C4F20003EA
:104950009A420ED07A684FF4A043C4F200039A4200
:1049600007D046F29050C0F600004FF4C371FBF739
:1049700059FE7B88282B28D07A8840F227739A42E8
:1049800023D07A8840F226639A421ED07A8840F279
:1049900025539A4219D07A8840F224439A4214D07F
:1049A0007A8840F646039A420FD07A8840F66A1316
:1049B0009A420AD07B88602B07D046F29050C0F60E
:1049C000000040F28711FBF72DFE7B78002B0AD008
:1049D0007B78012B07D046F29050C0F600004FF4D0
:1049E000C471FBF71FFE7A8840F66A139A421CD105
:1049F0007A684FF46053C4F201039A4215D07A6882
:104A00004FF48843C4F200039A420ED07A684FF400
:104A10009043C4F200039A4207D046F29050C0F689
:104A200000004FF4C671FBF7FDFD7B687B617B885E
:104A3000DBB24FEA5313DBB23B617B8803F01F0309
:104A4000FB60FB684FF0010202FA03F3BB603B69B5
:104A5000012B04D17B6903F10C037B610BE03B6903
:104A6000022B04D17B6903F110037B6103E07B69B6
:104A700003F114037B617B78002B06D07B697A6994
:104A80001168BA680A431A6007E07B697A6911689D
:104A9000BA686FEA02020A401A6007F11807BD46B9
:104AA00080BD00BF80B582B000AF786013460A4673
:104AB0007A807B707A684FF46053C4F201039A42A3
:104AC0001CD07A684FF48843C4F200039A4215D090
:104AD0007A684FF49043C4F200039A420ED07A6889
:104AE0004FF49843C4F200039A4207D046F2905024
:104AF000C0F6000040F2BF11FBF794FD7A884FF634
:104B00003F731340002B02D17B88002B07D146F264
:104B10009050C0F600004FF4E071FBF783FD7B7806
:104B2000002B0AD07B78012B07D046F29050C0F6BC
:104B3000000040F2C111FBF775FD7B78002B08D017
:104B40007B689B8A9AB27B8813439AB27B689A826D
:104B50000AE07B689B8A9AB27B886FEA03039BB268
:104B600013409AB27B689A8207F10807BD4680BD60
:104B700080B582B000AF78600B46FB707A684FF466
:104B80006053C4F201039A4223D07A684FF48843F9
:104B9000C4F200039A421CD07A684FF49043C4F2E6
:104BA00000039A4215D07A684FF49843C4F2000388
:104BB0009A420ED07A684FF4A043C4F200039A429E
:104BC00007D046F29050C0F6000040F2DB11FBF730
:104BD00029FDFB780F2B07D946F29050C0F6000054
:104BE0004FF4EE71FBF71EFD7B681B8A9BB223F02E
:104BF0000F039AB27B681A827B681B8A9AB2FB7891
:104C00009BB213439AB27B681A8207F10807BD462C
:104C100080BD00BF80B582B000AF78600B467B805E
:104C20007A684FF46053C4F201039A4223D07A6841
:104C30004FF48843C4F200039A421CD07A684FF4C0
:104C40009043C4F200039A4215D07A684FF4984317
:104C5000C4F200039A420ED07A684FF4A043C4F223
:104C600000039A4207D046F29050C0F600004FF47D
:104C7000F971FBF7D7FC7B88002B0BD07B88B3F551
:104C8000006F07D046F29050C0F6000040F2F311DA
:104C9000FBF7C8FC7B689B899BB223F400639AB244
:104CA0007B689A817B689B899AB27B8813439AB20E
:104CB0007B689A8107F10807BD4680BD80B582B048
:104CC00000AF78600B46FB707A684FF46053C4F213
:104CD00001039A4223D07A684FF48843C4F2000358
:104CE0009A421CD07A684FF49043C4F200039A426F
:104CF00015D07A684FF49843C4F200039A420ED05C
:104D00007A684FF4A043C4F200039A4207D046F2F7
:104D10009050C0F6000040F20521FBF783FCFB78C1
:104D2000002B0AD0FB78012B07D046F29050C0F63A
:104D3000000040F20621FBF775FCFB78002B08D041
:104D40007B689B899BB243F002039AB27B689A818D
:104D500007E07B689B899BB223F002039AB27B68D1
:104D60009A8107F10807BD4680BD00BF80B582B0BB
:104D700000AF78600B467B807A684FF46053C4F2D2
:104D800001039A4223D07A684FF48843C4F20003A7
:104D90009A421CD07A684FF49043C4F200039A42BE
:104DA00015D07A684FF49843C4F200039A420ED0AB
:104DB0007A684FF4A043C4F200039A4207D046F247
:104DC0009050C0F6000040F22221FBF72BFC7B88BC
:104DD000002B0AD07B88202B07D046F29050C0F6DB
:104DE000000040F22321FBF71DFC7B681B8A9BB26D
:104DF00023F020039AB27B681A827B681B8A9AB2DE
:104E00007B8813439AB27B681A8207F10807BD4674
:104E100080BD00BF80B582B000AF78600B46FB70EC
:104E20007A684FF46053C4F201039A4223D07A683F
:104E30004FF48843C4F200039A421CD07A684FF4BE
:104E40009043C4F200039A4215D07A684FF4984315
:104E5000C4F200039A420ED07A684FF4A043C4F221
:104E600000039A4207D046F29050C0F6000040F28C
:104E70003521FBF7D7FBFB78002B0AD0FB78012B01
:104E800007D046F29050C0F6000040F23621FBF702
:104E9000C9FBFB78002B08D07B681B8A9BB243F4CC
:104EA00080439AB27B681A8207E07B681B8A9BB2B8
:104EB00023F480439AB27B681A8207F10807BD4643
:104EC00080BD00BF80B582B000AF78600B467B80AC
:104ED0007A684FF46053C4F201039A4223D07A688F
:104EE0004FF48843C4F200039A421CD07A684FF40E
:104EF0009043C4F200039A4215D07A684FF4984365
:104F0000C4F200039A420ED07A684FF4A043C4F270
:104F100000039A4207D046F29050C0F6000040F2DB
:104F20004F21FBF77FFB7A8840F2FF139A4207D9A3
:104F300046F29050C0F600004FF41471FBF772FB7C
:104F40007B884FEAC3534FEAD3539AB27B689A8067
:104F500007F10807BD4680BD80B582B000AF78601C
:104F60007A684FF46053C4F201039A4223D07A68FE
:104F70004FF48843C4F200039A421CD07A684FF47D
:104F80009043C4F200039A4215D07A684FF49843D4
:104F9000C4F200039A420ED07A684FF4A043C4F2E0
:104FA00000039A4207D046F29050C0F600004FF43A
:104FB0001871FBF737FB7B689B889BB24FEAC353A2
:104FC0004FEAD3539BB2184607F10807BD4680BD90
:104FD00080B582B000AF78607A684FF46053C4F255
:104FE00001039A4223D07A684FF48843C4F2000345
:104FF0009A421CD07A684FF49043C4F200039A425C
:1050000015D07A684FF49843C4F200039A420ED048
:105010007A684FF4A043C4F200039A4207D046F2E4
:105020009050C0F600004FF41C71FBF7FBFA7B6850
:105030009B899BB243F001039AB27B689A8107F186
:105040000807BD4680BD00BF80B582B000AF786064
:105050000B46FB707A684FF46053C4F201039A4226
:1050600015D07A684FF48843C4F200039A420ED0F8
:105070007A684FF49043C4F200039A4207D046F294
:105080009050C0F600004FF42071FBF7CBFA7B681C
:105090001B8B9BB2DBB29AB27B681A837B681B8B3B
:1050A0009AB2FB789BB24FEA03239BB213439AB2A6
:1050B0007B681A8307F10807BD4680BD80B582B0C2
:1050C00000AF78600B46FB707A684FF46053C4F20F
:1050D00001039A4223D07A684FF48843C4F2000354
:1050E0009A421CD07A684FF49043C4F200039A426B
:1050F00015D07A684FF49843C4F200039A420ED058
:105100007A684FF4A043C4F200039A4207D046F2F3
:105110009050C0F600004FF42571FBF783FA7B68CE
:105120001B8B9BB223F0FF039AB27B681A837B68C8
:105130001B8B9AB2FB789BB213439AB27B681A839B
:1051400007F10807BD4680BD80B582B000AF78602A
:105150000B46FB707A684FF46053C4F201039A4225
:1051600015D07A684FF48843C4F200039A420ED0F7
:105170007A684FF49043C4F200039A4207D046F293
:105180009050C0F6000040F2A721FBF74BFAFB78E5
:10519000002B0AD0FB78012B07D046F29050C0F6C6
:1051A00000004FF42A71FBF73DFAFB78002B08D082
:1051B0007B689B8A9BB243F020039AB27B689A82F9
:1051C00007E07B689B8A9BB223F020039AB27B683E
:1051D0009A8207F10807BD4680BD00BF80B582B046
:1051E00000AF78600B46FB707A684FF46053C4F2EE
:1051F00001039A4215D07A684FF48843C4F2000341
:105200009A420ED07A684FF49043C4F200039A4257
:1052100007D046F29050C0F600004FF43071FBF713
:1052200001FAFB78002B0AD0FB78012B07D046F25D
:105230009050C0F6000040F2C121FBF7F3F9FB7873
:10524000002B08D07B689B8A9BB243F010039AB274
:105250007B689A8207E07B689B8A9BB223F01003ED
:105260009AB27B689A8207F10807BD4680BD00BFED
:1052700080B582B000AF78600B46FB707A684FF45F
:105280006053C4F201039A4223D07A684FF48843F2
:10529000C4F200039A421CD07A684FF49043C4F2DF
:1052A00000039A4215D07A684FF49843C4F2000381
:1052B0009A420ED07A684FF4A043C4F200039A4297
:1052C00007D046F29050C0F6000040F2DA21FBF71A
:1052D000A9F9FB78002B0AD0FB78012B07D046F206
:1052E0009050C0F6000040F2DB21FBF79BF9FB7801
:1052F000002B08D07B689B8A9BB243F008039AB2CC
:105300007B689A8207E07B689B8A9BB223F0080344
:105310009AB27B689A8207F10807BD4680BD00BF3C
:1053200080B582B000AF78600B46FB707A684FF4AE
:105330006053C4F201039A4223D07A684FF4884341
:10534000C4F200039A421CD07A684FF49043C4F22E
:1053500000039A4215D07A684FF49843C4F20003D0
:105360009A420ED07A684FF4A043C4F200039A42E6
:1053700007D046F29050C0F6000040F2F921FBF74A
:1053800051F9FB78002B0AD0FB78012B07D046F2AD
:105390009050C0F6000040F2FA21FBF743F9FB7889
:1053A000002B0AD07B689B899BB26FEA43436FEA6C
:1053B00053439AB27B689A8109E07B689B899BB2D0
:1053C0004FEA43434FEA53439AB27B689A8107F10D
:1053D0000807BD4680BD00BF80B582B000AF7860D1
:1053E0000B46FB707A684FF46053C4F201039A4293
:1053F00023D07A684FF48843C4F200039A421CD049
:105400007A684FF49043C4F200039A4215D07A6848
:105410004FF49843C4F200039A420ED07A684FF4D6
:10542000A043C4F200039A4207D046F29050C0F65F
:1054300000004FF44571FBF7F5F8FB78002B0AD01C
:10544000FB78012B07D046F29050C0F6000040F2E6
:105450001531FBF7E7F8FB78002B08D07B689B8AB7
:105460009BB243F400639AB27B689A8207E07B6840
:105470009B8A9BB223F400639AB27B689A8207F1FD
:105480000807BD4680BD00BF80B582B000AF786020
:105490000B467B807A684FF46053C4F201039A4252
:1054A00023D07A684FF48843C4F200039A421CD098
:1054B0007A684FF49043C4F200039A4215D07A6898
:1054C0004FF49843C4F200039A420ED07A684FF426
:1054D000A043C4F200039A4207D046F29050C0F6AF
:1054E000000040F23131FBF79DF87B88042B0AD095
:1054F0007B88002B07D046F29050C0F6000040F2A7
:105500003231FBF78FF87B689B8A9BB223F0040350
:105510009AB27B689A827B689B8A9AB27B88134393
:105520009AB27B689A8207F10807BD4680BD00BF2A
:1055300080B582B000AF78600B46FB707A684FF49C
:105540006053C4F201039A4223D07A684FF488432F
:10555000C4F200039A421CD07A684FF49043C4F21C
:1055600000039A4215D07A684FF49843C4F20003BE
:105570009A420ED07A684FF4A043C4F200039A42D4
:1055800007D046F29050C0F600004FF45171FBF77F
:1055900049F8FB78002B0AD0FB78012B07D046F2A4
:1055A0009050C0F6000040F24531FBF73BF8FB7825
:1055B000002B08D07B689B8A9BB243F002039AB20F
:1055C0007B689A8207E07B689B8A9BB223F0020388
:1055D0009AB27B689A8207F10807BD4680BD00BF7A
:1055E00080B584B000AF78600B467B804FF000033D
:1055F000FB737A684FF46053C4F201039A4223D0DC
:105600007A684FF48843C4F200039A421CD07A6847
:105610004FF49043C4F200039A4215D07A684FF4D5
:105620009843C4F200039A420ED07A684FF4A04324
:10563000C4F200039A4207D046F29050C0F6000030
:1056400040F26A31FAF7EEFF7B88012B24D07B8889
:10565000802B21D07B88402B1ED07B88202B1BD019
:105660007B88102B18D07B88B3F5807F14D07B8883
:10567000B3F5007F10D07B88082B0DD07B88042BDE
:105680000AD07B88022B07D046F29050C0F600006B
:1056900040F26B31FAF7C6FF7B88B3F5007F1CD16F
:1056A0007A684FF46053C4F201039A4215D07A68C5
:1056B0004FF48843C4F200039A420ED07A684FF444
:1056C0009043C4F200039A4207D046F29050C0F6CD
:1056D000000040F26F31FAF7A5FF7B681B889AB291
:1056E0007B8813409BB2002B03D04FF00103FB7368
:1056F00002E04FF00003FB73FB7B184607F1100735
:10570000BD4680BD80B582B000AF78600B467B801F
:105710007A684FF46053C4F201039A4223D07A6846
:105720004FF48843C4F200039A421CD07A684FF4C5
:105730009043C4F200039A4215D07A684FF498431C
:10574000C4F200039A420ED07A684FF4A043C4F228
:1057500000039A4207D046F29050C0F6000040F293
:105760009A31FAF75FFF7A884FF69F431340002B78
:1057700002D17B88002B07D146F29050C0F6000082
:1057800040F29B31FAF74EFF7B8803F40073002B45
:105790001CD07A684FF46053C4F201039A4215D0CA
:1057A0007A684FF48843C4F200039A420ED07A68B4
:1057B0004FF49043C4F200039A4207D046F290504F
:1057C000C0F6000040F29F31FAF72CFF7B886FEAA9
:1057D00003039AB27B681A8007F10807BD4680BDB3
:1057E00080B586B000AF78600B467B804FF0000339
:1057F000FB604FF000037B614FF00003BB604FF094
:105800000003FB747A684FF46053C4F201039A42B8
:1058100023D07A684FF48843C4F200039A421CD024
:105820007A684FF49043C4F200039A4215D07A6824
:105830004FF49843C4F200039A420ED07A684FF4B2
:10584000A043C4F200039A4207D046F29050C0F63B
:10585000000040F2BD31FAF7E5FE7B88282B31D0FD
:105860007A8840F227739A422CD07A8840F22663D5
:105870009A4227D07A8840F225539A4222D07A88D9
:1058800040F224439A421DD07A8840F646039A4259
:1058900018D07A8840F66A139A4213D07B88B3F501
:1058A000587F0FD07B88B3F5187F0BD07B88B3F57A
:1058B000B07F07D046F29050C0F6000040F2BE31F3
:1058C000FAF7B0FE7A8840F66A139A421CD17A68D9
:1058D0004FF46053C4F201039A4215D07A684FF432
:1058E0008843C4F200039A420ED07A684FF4904382
:1058F000C4F200039A4207D046F29050C0F600006E
:1059000040F2C231FAF78EFE7B88DBB24FEA5313C6
:10591000DBB2BB607B8803F01F037B617B694FF0C8
:10592000010202FA03F37B61BB68012B06D17B689D
:105930009B899BB27A6913407B610FE0BB68022BA5
:1059400006D17B681B8A9BB27A6913407B6105E0B4
:105950007B689B8A9BB27A6913407B617B884FEAA4
:1059600013239BB2FB60FB684FF0010202FA03F3C2
:10597000FB607B681B889BB2FA681340FB607B6905
:10598000002B06D0FB68002B03D04FF00103FB7403
:1059900002E04FF00003FB74FB7C184607F1180788
:1059A000BD4680BD80B584B000AF78600B467B807B
:1059B0004FF00003FB814FF00003BB817A684FF486
:1059C0006053C4F201039A4223D07A684FF48843AB
:1059D000C4F200039A421CD07A684FF49043C4F298
:1059E00000039A4215D07A684FF49843C4F200033A
:1059F0009A420ED07A684FF4A043C4F200039A4250
:105A000007D046F29050C0F6000040F20641FAF787
:105A100009FE7A8840F226639A4216D07A8840F2CC
:105A200025539A4211D07A8840F646039A420CD008
:105A30007A8840F66A139A4207D046F29050C0F630
:105A4000000040F20741FAF7EDFD7A8840F66A134C
:105A50009A421CD17A684FF46053C4F201039A420F
:105A600015D07A684FF48843C4F200039A420ED0EE
:105A70007A684FF49043C4F200039A4207D046F28A
:105A80009050C0F6000040F20B41FAF7CBFD7B8846
:105A90004FEA1323FB81FB894FF0010202FA03F363
:105AA000BB81BB896FEA03039AB27B681A8007F156
:105AB0001007BD4680BD00BF18660008000000202A
:105AC0005C0400206C0400209404002080B500AF2A
:105AD0004FF48053C4F202034FF48052C4F2020226
