:020000040800F2
:10000000002000204544000895440008954400085D
:10001000954400089544000895440008000000003D
:1000200000000000000000000000000095440008EF
:100030009544000800000000954400081D060008D3
:10004000954400089544000895440008954400082C
:10005000954400089544000895440008954400081C
:1000600095440008954400081104000895440008D0
:1000700095440008954400089544000895440008FC
:1000800095440008954400089544000800000000CD
:10009000000000000000000000000000954400087F
:1000A00095440008954400089544000895440008CC
:1000B00095440008954400089544000895440008BC
:1000C00095440008954400089544000895440008AC
:1000D000954400089544000895440008954400089C
:1000E000954400089544000895440008000000006D
:1000F0000000000000000000000000000000000000
:1001000000000000000000000000000000000000EF
:10011000000000000000000095440008954400081D
:1001200000000000000000000000000000000000CF
:1001300000000000000000000000000000000000BF
:1001400000000000000000000000000000000000AF
:10015000000000000000000000000000000000009F
:10016000000000000000000000000000000000008F
:10017000000000000000000000000000000000007F
:10018000000000000000000000000000000000006F
:10019000000000000000000000000000000000005F
:1001A000000000000000000000000000000000004F
:1001B000000000000000000000000000000000003F
:1001C0000000000000000000000000005FF808F1DF
:1001D00010B5054C237833B9044810B10448AFF387
:1001E00000800121217010BD6C040020000000007F
:1001F000004C000808B5064B1BB106480649AFF392
:1002000000800648016811B1054A02B1904708BD57
:1002100000000000004C000870040020640400206E
:1002200000000000154B002B08BF134B9D46A3F5A3
:10023000803A00218B460F461348144A121A04F0E4
:1002400003FA0F4B002B00D098470E4B002B00D029
:1002500098470020002104460D4600200C4900224A
:10026000002304F019F904F0A5F92046294600F00E
:1002700071F804F067F900BF0000080000000000FA
:1002800000000000000000006C0400209404002026
:100290006545000880B483B000AF03463960FB7148
:1002A00097F90730002B10DA4FF46D43CEF20003BC
:1002B000FA7902F00F02A2F104013A68D2B24FEAD1
:1002C0000212D2B25B181A760DE04FF46143CEF2FF
:1002D000000397F907103A68D2B24FEA0212D2B27D
:1002E0005B1883F8002307F10C07BD4680BC7047FC
:1002F00080B582B000AF78607A686FF07F439A4231
:1003000002D94FF001031FE04EF21003CEF20003BA
:100310007A6822F07F4202F1FF325A604FF0FF30DC
:100320004FF00F01FFF7B6FF4EF21003CEF20003BD
:100330004FF000029A604EF21003CEF200034FF02D
:1003400007021A604FF00003184607F10807BD4680
:1003500080BD00BF80B582B000AF4FF010004FF0FD
:10036000010100F003FF07F10403184601F096FBBA
:100370004FF44073BB804FF01003FB714FF001034B
:10038000BB7107F104034FF48050C4F20100194619
:1003900001F02CFA40F21803C2F200031A6844F686
:1003A000D353C1F26203A3FB02134FEA931318461F
:1003B000FFF79EFF0346002B00D0FEE740F290437C
:1003C000C2F200034FF000021A6000F06BF840F236
:1003D0008C43C2F200031B68002B0CBF00230123D7
:1003E000DBB24FF48050C4F201004FF400711A46A2
:1003F00001F0C6FD40F28C43C2F200031B68C3F15A
:10040000010240F28C43C2F200031A60DFE700BF32
:1004100080B500AF4FF0100003F050FC0346002BF6
:100420003FD04FF0100003F029FC4FF44050C4F2CD
:1004300001004FF0450102F0ADFE00BF4FF4405007
:10044000C4F201004FF0010103F00AF90346002B4A
:10045000F4D04FF44050C4F2010002F0C5FE034650
:10046000AA2B1ED140F29043C2F200031B68002B5E
:100470000CBF00230123DBB24FF48050C4F2010013
:100480004FF480711A4601F07BFD40F29043C2F2B6
:1004900000031B68C3F1010240F29043C2F2000363
:1004A0001A6080BD80B58AB000AF41F205004FF000
:1004B000010100F05BFE4FF01003BB844FF004031A
:1004C00087F827304FF0030387F8263007F124031D
:1004D0004FF40060C4F20100194601F087F94FF0B3
:1004E00000004FF0040102F0E1F84FF010037B60D0
:1004F0004FF000033B724FF00C037B724FF001038F
:10050000BB7207F10403184603F026FA4FF00A0302
:1005100087F820304FF0000387F821304FF00003B8
:1005200087F822304FF0010387F8233007F12003CA
:10053000184603F08DFC4FF0A003BB844FF004037A
:1005400087F827304FF0030387F8263007F124039C
:100550004FF40060C4F20100194601F047F94FF072
:100560004003BB844FF0180387F8273007F12403BA
:100570004FF40060C4F20100194601F037F94FF45E
:100580004050C4F2010002F059F94FF00003BB8162
:100590004FF000033B824FF000037B824FF00003DB
:1005A000BB824FF00003FB824FF008033B834FF008
:1005B00000037B834FF00103BB834FF00003FB81FB
:1005C00007F10C034FF44050C4F20100194602F049
:1005D00095F94FF44050C4F201004FF0010102F0D0
:1005E0007DFC07F12807BD4680BD00BF80B483B005
:1005F00000AF786040F28843C2F200037A681A6064
:1006000000BF40F28843C2F200031B68002BF8D100
:1006100007F10C07BD4680BC704700BF80B400AF37
:1006200040F28843C2F200031B68002B0BD040F25B
:100630008843C2F200031B6803F1FF3240F2884393
:10064000C2F200031A60BD4680BC704780B483B01C
:1006500000AF78603960FEE780B400AF4FF480539C
:10066000C4F202034FF48052C4F20202126842F054
:1006700001021A604FF48052C4F202024FF4805318
:10068000C4F2020359684FF00003CFF6FF030B409A
:1006900053604FF48053C4F202034FF48052C4F20B
:1006A0000202126822F0847222F480321A604FF43F
:1006B0008053C4F202034FF48052C4F20202126863
:1006C00022F480221A604FF48053C4F202034FF4E4
:1006D0008052C4F20202526822F4FE025A604FF4C1
:1006E0008053C4F202034FF41F029A604FF4805308
:1006F000C4F202034FF00002DA62BD4680BC7047CC
:1007000080B582B000AF78607B68002B0FD07B682B
:10071000B3F5803F0BD07B68B3F5802F07D044F64C
:100720002020C0F600004FF48D71FFF78FFF4FF4CB
:100730008053C4F202034FF48052C4F202021268E2
:1007400022F480321A604FF48053C4F202034FF453
:100750008052C4F20202126822F480221A607B687E
:10076000B3F5803F03D0B3F5802F0DD019E04FF4DF
:100770008053C4F202034FF48052C4F202021268A2
:1007800042F480321A600DE04FF48053C4F2020349
:100790004FF48052C4F20202126842F4A0221A609E
:1007A00000E000BF07F10807BD4680BD80B582B0FC
:1007B00000AF4FF000033B604FF00003FB714FF0C0
:1007C0000003BB714FF0310000F05AFE0346BB71CD
:1007D0003B6803F101033B603B68B3F5A06F02D0B7
:1007E000BB79002BEED04FF0310000F049FE0346FC
:1007F000002B03D04FF00103FB7102E04FF0000328
:10080000FB71FB79184607F10807BD4680BD00BFA4
:1008100080B584B000AF0346FB714FF00003FB606E
:10082000FB791F2B07D944F62020C0F6000040F2C8
:100830005B11FFF70BFF4FF48053C4F202031B68F8
:10084000FB60FB6823F0F803FB60FB794FEAC3030E
:10085000FA681343FB604FF48053C4F20203FA6852
:100860001A6007F11007BD4680BD00BF80B582B099
:1008700000AF0346FB71FB79002B0AD0FB79012BFB
:1008800007D044F62020C0F600004FF4B771FFF700
:10089000DDFE4FF00003C4F24223FA791A6007F13B
:1008A0000807BD4680BD00BF80B584B000AF78604A
:1008B00039604FF00003FB607B68002B0BD07B6836
:1008C000B3F5803F07D044F62020C0F600004FF477
:1008D000C471FFF7BBFE3B68002B3FD03B68B3F50C
:1008E000802F3BD03B68B3F5002F37D03B68B3F582
:1008F000402F33D03B68B3F5801F2FD03B68B3F552
:10090000A01F2BD03B68B3F5C01F27D03B68B3F5C1
:10091000E01F23D03B68B3F5001F1FD03B68B3F541
:10092000101F1BD03B68B3F5201F17D03B68B3F5F1
:10093000301F13D03B68B3F5401F0FD03B68B3F5B1
:10094000501F0BD03B68B3F5601F07D044F6202042
:10095000C0F6000040F28911FFF778FE4FF4805393
:10096000C4F202035B68FB60FB6823F47413FB6052
:100970007A683B681343FA681343FB604FF4805373
:10098000C4F20203FA685A6007F11007BD4680BD41
:1009900080B582B000AF0346FB71FB79002B0AD013
:1009A000FB79012B07D044F62020C0F6000040F26E
:1009B0009D11FFF74BFE4FF06003C4F24223FA791A
:1009C0001A6007F10807BD4680BD00BF80B584B03E
:1009D00000AF786039604FF00003FB607B68002B4C
:1009E00007D044F62020C0F600004FF4DC71FFF77A
:1009F0002DFE3B68002B34D03B68012B31D03B6887
:100A0000022B2ED03B68032B2BD03B68042B28D025
:100A10003B68052B25D03B68062B22D03B68072B73
:100A20001FD03B68082B1CD03B68092B19D03B68B2
:100A30000A2B16D03B680B2B13D03B680C2B10D025
:100A40003B680D2B0DD03B680E2B0AD03B680F2B5B
:100A500007D044F62020C0F6000040F2B911FFF79D
:100A6000F5FD4FF48053C4F20203DB6AFB60FB68C0
:100A700023F4803323F00F03FB607A683B68134351
:100A8000FA681343FB604FF48053C4F20203FA6820
:100A9000DA6207F11007BD4680BD00BF80B584B0A3
:100AA00000AF78604FF00003FB607B68002B0DD037
:100AB0007B68012B0AD07B68022B07D044F62020EC
:100AC000C0F6000040F24121FFF7C0FD4FF4805313
:100AD000C4F202035B68FB60FB6823F00303FB6066
:100AE000FA687B681343FB604FF48053C4F202033F
:100AF000FA685A6007F11007BD4680BD80B400AFA8
:100B00004FF48053C4F202035B68DBB203F00C03C2
:100B1000DBB21846BD4680BC704700BF80B584B0CC
:100B200000AF78604FF00003FB607B68002B1FD0A4
:100B30007B68802B1CD07B68902B19D07B68A02B06
:100B400016D07B68B02B13D07B68C02B10D07B688D
:100B5000D02B0DD07B68E02B0AD07B68F02B07D020
:100B600044F62020C0F6000040F26D21FFF76EFD34
:100B70004FF48053C4F202035B68FB60FB6823F010
:100B8000F003FB60FA687B681343FB604FF480530B
:100B9000C4F20203FA685A6007F11007BD4680BD2F
:100BA00080B584B000AF78604FF00003FB607B68D5
:100BB000002B17D07B68B3F5806F13D07B68B3F53B
:100BC000A06F0FD07B68B3F5C06F0BD07B68B3F517
:100BD000E06F07D044F62020C0F6000040F28721E5
:100BE000FFF734FD4FF48053C4F202035B68FB60EF
:100BF000FB6823F4E063FB60FA687B681343FB60E7
:100C00004FF48053C4F20203FA685A6007F11007E8
:100C1000BD4680BD80B584B000AF78604FF0000362
:100C2000FB607B68002B17D07B68B3F5806F13D017
:100C30007B68B3F5A06F0FD07B68B3F5C06F0BD0A6
:100C40007B68B3F5E06F07D044F62020C0F60000C3
:100C500040F2A121FFF7FAFC4FF48053C4F20203E3
:100C60005B68FB60FB6823F46053FB607B684FEAC2
:100C7000C303FA681343FB604FF48053C4F20203CA
:100C8000FA685A6007F11007BD4680BD80B582B092
:100C900000AF02460B46FA71BB71FB7903F0E0032B
:100CA000002B02D1FB79002B07D144F62020C0F69F
:100CB00000004FF43271FFF7C9FCBB79002B0AD05A
:100CC000BB79012B07D044F62020C0F6000040F28B
:100CD000C921FFF7BBFCBB79002B0ED041F2090301
:100CE000C4F2020341F20902C4F202021278D1B244
:100CF000FA790A43D2B21A7010E041F20903C4F241
:100D0000020341F20902C4F202021278D1B2FA7966
:100D10006FEA0202D2B20A40D2B21A7007F1080793
:100D2000BD4680BD80B582B000AF78607B68002B87
:100D30000AD07B68012B07D044F62020C0F60000C3
:100D40004FF43971FFF782FC4FF0D803C4F242230D
:100D50007A681A6007F10807BD4680BD80B584B087
:100D600000AF78604FF00003FB607B68002B13D06E
:100D70007B68B3F5804F0FD07B68B3F5004F0BD085
:100D80007B68B3F5404F07D044F62020C0F6000042
:100D900040F20B31FFF75AFC4FF48053C4F20203C8
:100DA0005B68FB60FB6823F44043FB60FA687B6888
:100DB0001343FB604FF48053C4F20203FA685A6095
:100DC00007F11007BD4680BD80B582B000AF034675
:100DD000FB71FB79002B0DD0FB79012B0AD0FB793D
:100DE000042B07D044F62020C0F6000040F2493121
:100DF000FFF72CFC4FF48153C4F202034FF00002C2
:100E00001A704FF48153C4F202034FF000021A70BB
:100E1000FB79012B02D0042B08D00FE04FF4815353
:100E2000C4F202034FF001021A7008E04FF481533C
:100E3000C4F202034FF005021A7000E000BF07F190
:100E40000807BD4680BD00BF80B582B000AF034635
:100E5000FB71FB79002B0AD0FB79012B07D044F6FC
:100E60002020C0F6000040F26A31FFF7EFFB4FF49C
:100E70009063C4F24223FA791A6007F10807BD466D
:100E800080BD00BF80B582B000AF78607B68B3F5ED
:100E9000807F0FD07B68B3F5007F0BD07B68B3F504
:100EA000407F07D044F62020C0F6000040F27B319E
:100EB000FFF7CCFB4FF48053C4F202034FF480528F
:100EC000C4F20202116A7A680A431A6207F108073B
:100ED000BD4680BD80B582B000AF0346FB71FB7993
:100EE000002B0AD0FB79012B07D044F62020C0F656
:100EF000000040F28931FFF7A9FB40F23C43C4F205
:100F00004223FA791A6007F10807BD4680BD00BF89
:100F100080B489B000AF78604FF00003FB614FF000
:100F20000003BB614FF000037B614FF000033B61A6
:100F30004FF00003FB604FF48053C4F202035B6880
:100F400003F00C03FB61FB69042B0AD0082B0FD0C4
:100F5000002B47D17A684FF49053C0F27A031360A4
:100F600047E07A684FF49053C0F27A03136040E090
:100F70004FF48053C4F202035B6803F47013BB6147
:100F80004FF48053C4F202035B6803F480337B6147
:100F9000BB694FEA934303F10203BB617B69002BFA
:100FA00009D1BA694FF41063C0F23D0303FB02F2AA
:100FB0007B681A601DE04FF48053C4F20203DB6AC1
:100FC00003F00F0303F10103FB604FF49053C0F2F1
:100FD0007A03FA68B3FBF2F3BA6902FB03F27B68A7
:100FE0001A6006E07A684FF49053C0F27A031360F7
:100FF00000BF4FF48053C4F202035B6803F0F003B8
:10100000FB61FB694FEA1313FB6140F20403C2F278
:101010000003FA699B181B78DBB23B617B681A6896
:101020003B6922FA03F27B685A604FF48053C4F2A2
:1010300002035B6803F4E063FB61FB694FEA13237F
:10104000FB6140F20403C2F20003FA699B181B78AB
:10105000DBB23B617B685A683B6922FA03F27B682A
:101060009A604FF48053C4F202035B6803F4605348
:10107000FB61FB694FEAD323FB6140F20403C2F238
:101080000003FA699B181B78DBB23B617B685A68E6
:101090003B6922FA03F27B68DA604FF48053C4F2B2
:1010A00002035B6803F44043FB61FB694FEA93333F
:1010B000FB6140F21403C2F20003FA699B181B782B
:1010C000DBB23B617B68DA683B69B2FBF3F27B68B9
:1010D0001A6107F12407BD4680BC704780B582B015
:1010E00000AF78600B46FB707B6823F4AA6323F0A3
:1010F0000703002B02D17B68002B07D144F6202088
:10110000C0F6000040F23241FFF7A0FAFB78002B56
:101110000AD0FB78012B07D044F62020C0F600004F
:1011200040F23341FFF792FAFB78002B0CD04FF4DA
:101130008053C4F202034FF48052C4F20202516998
:101140007A680A435A610DE04FF48053C4F20203F7
:101150004FF48052C4F2020251697A686FEA0202C7
:101160000A405A6107F10807BD4680BD80B582B0CC
:1011700000AF78600B46FB707A684FF00203CFF641
:10118000C0731340002B02D17B68002B07D144F6BB
:101190002020C0F6000040F25141FFF757FAFB78DB
:1011A000002B0AD0FB78012B07D044F62020C0F694
:1011B000000040F25241FFF749FAFB78002B0CD0B7
:1011C0004FF48053C4F202034FF48052C4F202027F
:1011D00091697A680A439A610DE04FF48053C4F232
:1011E00002034FF48052C4F2020291697A686FEAF6
:1011F00002020A409A6107F10807BD4680BD00BFA0
:1012000080B582B000AF78600B46FB707A684FF40F
:101210005853C8F201131340002B02D17B68002BF6
:1012200007D144F62020C0F600004FF48E61FFF78E
:101230000DFAFB78002B0AD0FB78012B07D044F67F
:101240002020C0F6000040F27141FFF7FFF9FB7863
:10125000002B0CD04FF48053C4F202034FF48052A1
:10126000C4F20202D1697A680A43DA610DE04FF4F0
:101270008053C4F202034FF48052C4F20202D169D7
:101280007A686FEA02020A40DA6107F10807BD4690
:1012900080BD00BF80B582B000AF78600B46FB70A8
:1012A0007A684FF00203CFF6C0731340002B02D1CF
:1012B0007B68002B07D144F62020C0F6000040F2E6
:1012C000AB41FFF7C3F9FB78002B0AD0FB78012B69
:1012D00007D044F62020C0F6000040F2AC41FFF7F2
:1012E000B5F9FB78002B0CD04FF48053C4F2020305
:1012F0004FF48052C4F20202D1687A680A43DA607D
:101300000DE04FF48053C4F202034FF48052C4F254
:101310000202D1687A686FEA02020A40DA6007F1D5
:101320000807BD4680BD00BF80B582B000AF7860C1
:101330000B46FB707A684FF45853C8F20113134000
:10134000002B02D17B68002B07D144F62020C0F689
:10135000000040F2CA41FFF779F9FB78002B0AD070
:10136000FB78012B07D044F62020C0F6000040F2A5
:10137000CB41FFF76BF9FB78002B0CD04FF4805377
:10138000C4F202034FF48052C4F2020211697A6877
:101390000A431A610DE04FF48053C4F202034FF484
:1013A0008052C4F2020211697A686FEA02020A40AE
:1013B0001A6107F10807BD4680BD00BF80B582B045
:1013C00000AF0346FB71FB79002B0AD0FB79012BA0
:1013D00007D044F62020C0F6000040F2DF41FFF7BE
:1013E00035F94FF48863C4F24223FA791A6007F1A1
:1013F0000807BD4680BD00BF80B582B000AF034680
:10140000FB71FB79002B0AD0FB79012B07D044F646
:101410002020C0F6000040F2EC41FFF717F94FF032
:101420004C03C4F24223FA791A6007F10807BD465B
:1014300080BD00BF80B582B000AF0346FB71FB7971
:10144000002B13D0FB79052B10D0FB79042B0DD08A
:10145000FB79062B0AD0FB79072B07D044F6202016
:10146000C0F6000040F20C51FFF7F0F841F207031C
:10147000C4F20203FA791A7007F10807BD4680BD6D
:1014800080B586B000AF0346FB714FF00003FB60F0
:101490004FF000037B614FF00003FB74FB79212BBD
:1014A00025D0FB79312B22D0FB79392B1FD0FB794A
:1014B000412B1CD0FB79612B19D0FB797A2B16D0EC
:1014C000FB797B2B13D0FB797C2B10D0FB797D2B08
:1014D0000DD0FB797E2B0AD0FB797F2B07D044F609
:1014E0002020C0F6000040F23B51FFF7AFF8FB7937
:1014F0004FEA5313DBB2FB60FB68012B06D14FF4BC
:101500008053C4F202031B687B610FE0FB68022B6F
:1015100006D14FF48053C4F202031B6A7B6105E0DD
:101520004FF48053C4F202035B6A7B61FB7903F0E2
:101530001F03FB60FB687A6922FA03F303F00103DF
:10154000002B03D04FF00103FB7402E04FF00003C7
:10155000FB74FB7C184607F11807BD4680BD00BF31
:1015600080B400AF4FF48053C4F202034FF48052B2
:10157000C4F20202526A42F080725A62BD4680BCD6
:10158000704700BF80B584B000AF0346FB714FF0D9
:101590000003FB73FB79012B16D0FB79022B13D0D0
:1015A000FB79042B10D0FB79082B0DD0FB79102B85
:1015B0000AD0FB79802B07D044F62020C0F600002B
:1015C00040F28551FFF742F84FF48053C4F2020312
:1015D0009A68FB791340002B03D04FF00103FB7393
:1015E00002E04FF00003FB73FB7B184607F1100786
:1015F000BD4680BD80B582B000AF0346FB71FB796C
:1016000003F06003002B02D1FB79002B07D144F6D5
:101610002020C0F6000040F2B251FFF717F841F267
:101620000A03C4F20203FA791A7007F10807BD46EB
:1016300080BD00BF80B582B000AF78607A684FF49B
:101640000063C4F201039A4231D07A684FF44063D8
:10165000C4F201039A422AD07A684FF48053C4F24C
:1016600001039A4223D07A684FF4A053C4F20103D5
:101670009A421CD07A684FF4C053C4F201039A42D4
:1016800015D07A684FF4E053C4F201039A420ED0A9
:101690007A684FF40053C4F201039A4207D044F62B
:1016A0007C20C0F600004FF06E01FEF7CFFF7A6895
:1016B0004FF40063C4F201039A420CD14FF00400CE
:1016C0004FF00101FFF7E6FD4FF004004FF000017D
:1016D000FFF7E0FD76E07A684FF44063C4F201035F
:1016E0009A420CD14FF008004FF00101FFF7D2FDF4
:1016F0004FF008004FF00001FFF7CCFD62E07A6880
:101700004FF48053C4F201039A420CD14FF0100001
:101710004FF00101FFF7BEFD4FF010004FF0000148
:10172000FFF7B8FD4EE07A684FF4A053C4F201030E
:101730009A420CD14FF020004FF00101FFF7AAFDB3
:101740004FF020004FF00001FFF7A4FD3AE07A6867
:101750004FF4C053C4F201039A420CD14FF0400041
:101760004FF00101FFF796FD4FF040004FF00001F0
:10177000FFF790FD26E07A684FF4E053C4F20103CE
:101780009A420CD14FF080004FF00101FFF782FD2B
:101790004FF080004FF00001FFF77CFD12E07A6807
:1017A0004FF40053C4F201039A420BD14FF48070FE
:1017B0004FF00101FFF76EFD4FF480704FF0000114
:1017C000FFF768FD07F10807BD4680BD80B500AF93
:1017D0004FF001004FF00101FFF75CFD4FF00100F9
:1017E0004FF00001FFF756FD80BD00BF80B588B007
:1017F00000AF786039604FF00003FB614FF00003E9
:101800003B614FF00003BB614FF00003FB604FF002
:1018100000037B614FF00003BB607A684FF4006304
:10182000C4F201039A4231D07A684FF44063C4F2A3
:1018300001039A422AD07A684FF48053C4F201031C
:101840009A4223D07A684FF4A053C4F201039A421B
:101850001CD07A684FF4C053C4F201039A4215D0E9
:101860007A684FF4E053C4F201039A420ED07A68CA
:101870004FF40053C4F201039A4207D044F67C208F
:10188000C0F600004FF0B101FEF7E0FE3B68DB78E8
:10189000002B23D03B68DB78042B1FD03B68DB7820
:1018A000282B1BD03B68DB78482B17D03B68DB78B4
:1018B000142B13D03B68DB78102B0FD03B68DB7800
:1018C0001C2B0BD03B68DB78182B07D044F67C2010
:1018D000C0F600004FF0B201FEF7B8FE3B681B886F
:1018E000002B07D144F67C20C0F600004FF0B30176
:1018F000FEF7ACFE3B68DB7803F00F03FB613B684F
:10190000DB7803F01003002B18D03B689B78012B89
:101910000FD03B689B78022B0BD03B689B78032B46
:1019200007D044F67C20C0F600004FF0BA01FEF765
:101930008DFE3B689B78FA691343FB613B681B880B
:10194000DBB2002B4ED07B681B687B614FF000033D
:10195000BB6141E0BB694FF0010202FA03F3FB6097
:101960003B681B881A46FB6813403B613A69FB6879
:101970009A422DD1BB694FEA8303FB60FB684FF0AD
:101980000F0202FA03F3BB60BB686FEA03037A69D4
:1019900013407B61FB68FA6902FA03F37A69134327
:1019A0007B613B68DB78282B07D1BB694FF00102D4
:1019B00002FA03F27B685A610AE03B68DB78482B45
:1019C00006D1BB694FF0010202FA03F27B681A618B
:1019D000BB6903F10103BB61BB69072BBAD97B6803
:1019E0007A691A603B681B88FF2B53D97B685B6858
:1019F0007B614FF00003BB6146E0BB6903F1080364
:101A00004FF0010202FA03F3FB603B681B881A46A1
:101A1000FB6813403B613A69FB689A4230D1BB696D
:101A20004FEA8303FB60FB684FF00F0202FA03F3F7
:101A3000BB60BB686FEA03037A6913407B61FB6894
:101A4000FA6902FA03F37A6913437B613B68DB7836
:101A5000282B08D1BB6903F108034FF0010202FAF9
:101A600003F27B685A613B68DB78482B08D1BB697D
:101A700003F108034FF0010202FA03F27B681A61D6
:101A8000BB6903F10103BB61BB69072BB5D97B6857
:101A90007A695A6007F12007BD4680BD80B483B0E3
:101AA00000AF78607B684FF6FF721A807B684FF05A
:101AB00002029A707B684FF00402DA7007F10C079B
:101AC000BD4680BC704700BF80B584B000AF786071
:101AD0000B467B804FF00003FB737A684FF4006382
:101AE000C4F201039A4231D07A684FF44063C4F2E1
:101AF00001039A422AD07A684FF48053C4F201035A
:101B00009A4223D07A684FF4A053C4F201039A4258
:101B10001CD07A684FF4C053C4F201039A4215D026
:101B20007A684FF4E053C4F201039A420ED07A6807
:101B30004FF40053C4F201039A4207D044F67C20CC
:101B4000C0F6000040F21D11FEF780FD7B88012BDE
:101B50003CD07B88022B39D07B88042B36D07B8805
:101B6000082B33D07B88102B30D07B88202B2DD0B6
:101B70007B88402B2AD07B88802B27D07B88B3F5AD
:101B8000807F23D07B88B3F5007F1FD07B88B3F59F
:101B9000806F1BD07B88B3F5006F17D07B88B3F5BF
:101BA000805F13D07B88B3F5005F0FD07B88B3F5DF
:101BB000804F0BD07B88B3F5004F07D044F67C20D4
:101BC000C0F600004FF48F71FEF740FD7B689A6805
:101BD0007B881340002B03D04FF00103FB7302E01E
:101BE0004FF00003FB73FB7B184607F11007BD465F
:101BF00080BD00BF80B582B000AF78607A684FF4D6
:101C00000063C4F201039A4231D07A684FF4406312
:101C1000C4F201039A422AD07A684FF48053C4F286
:101C200001039A4223D07A684FF4A053C4F201030F
:101C30009A421CD07A684FF4C053C4F201039A420E
:101C400015D07A684FF4E053C4F201039A420ED0E3
:101C50007A684FF40053C4F201039A4207D044F665
:101C60007C20C0F6000040F23311FEF7EFFC7B68E9
:101C70009B689BB2184607F10807BD4680BD00BFB0
:101C800080B584B000AF78600B467B804FF00003D6
:101C9000FB737A684FF40063C4F201039A4231D0B7
:101CA0007A684FF44063C4F201039A422AD07A68FA
:101CB0004FF48053C4F201039A4223D07A684FF460
:101CC000A053C4F201039A421CD07A684FF4C05367
:101CD000C4F201039A4215D07A684FF4E053C4F27B
:101CE00001039A420ED07A684FF40053C4F2010304
:101CF0009A4207D044F67C20C0F6000040F243111F
:101D0000FEF7A4FC7B88012B3CD07B88022B39D0CA
:101D10007B88042B36D07B88082B33D07B88102B14
:101D200030D07B88202B2DD07B88402B2AD07B88FD
:101D3000802B27D07B88B3F5807F23D07B88B3F5B9
:101D4000007F1FD07B88B3F5806F1BD07B88B3F5F5
:101D5000006F17D07B88B3F5805F13D07B88B3F515
:101D6000005F0FD07B88B3F5804F0BD07B88B3F535
:101D7000004F07D044F67C20C0F600004FF4A2715B
:101D8000FEF764FC7B68DA687B881340002B03D085
:101D90004FF00103FB7302E04FF00003FB73FB7B8A
:101DA000184607F11007BD4680BD00BF80B582B060
:101DB00000AF78607A684FF40063C4F201039A427E
:101DC00031D07A684FF44063C4F201039A422AD0BA
:101DD0007A684FF48053C4F201039A4223D07A68A0
:101DE0004FF4A053C4F201039A421CD07A684FF416
:101DF000C053C4F201039A4215D07A684FF4E053FD
:101E0000C4F201039A420ED07A684FF40053C4F230
:101E100001039A4207D044F67C20C0F6000040F24D
:101E20005911FEF713FC7B68DB689BB2184607F17B
:101E30000807BD4680BD00BF80B582B000AF7860A6
:101E40000B467B807A684FF40063C4F201039A4228
:101E500031D07A684FF44063C4F201039A422AD029
:101E60007A684FF48053C4F201039A4223D07A680F
:101E70004FF4A053C4F201039A421CD07A684FF485
:101E8000C053C4F201039A4215D07A684FF4E0536C
:101E9000C4F201039A420ED07A684FF40053C4F2A0
:101EA00001039A4207D044F67C20C0F600004FF4AC
:101EB000B471FEF7CBFB7B88002B07D144F67C2066
:101EC000C0F6000040F26911FEF7C0FB7A887B681B
:101ED0001A6107F10807BD4680BD00BF80B582B01A
:101EE00000AF78600B467B807A684FF40063C4F2E1
:101EF00001039A4231D07A684FF44063C4F201037F
:101F00009A422AD07A684FF48053C4F201039A426D
:101F100023D07A684FF4A053C4F201039A421CD034
:101F20007A684FF4C053C4F201039A4215D07A681C
:101F30004FF4E053C4F201039A420ED07A684FF492
:101F40000053C4F201039A4207D044F67C20C0F645
:101F500000004FF4BC71FEF779FB7B88002B07D1A2
:101F600044F67C20C0F6000040F27911FEF76EFBCB
:101F70007A887B685A6107F10807BD4680BD00BFBB
:101F800080B582B000AF786013460A467A807B70D5
:101F90007A684FF40063C4F201039A4231D07A6840
:101FA0004FF44063C4F201039A422AD07A684FF496
:101FB0008053C4F201039A4223D07A684FF4A053AD
:101FC000C4F201039A421CD07A684FF4C053C4F2A1
:101FD00001039A4215D07A684FF4E053C4F201032A
:101FE0009A420ED07A684FF40053C4F201039A4229
:101FF00007D044F67C20C0F600004FF4C671FEF70F
:1020000025FB7B88012B3CD07B88022B39D07B8839
:10201000042B36D07B88082B33D07B88102B30D014
:102020007B88202B2DD07B88402B2AD07B88802B4F
:1020300027D07B88B3F5807F23D07B88B3F5007FE2
:102040001FD07B88B3F5806F1BD07B88B3F5006F02
:1020500017D07B88B3F5805F13D07B88B3F5005F22
:102060000FD07B88B3F5804F0BD07B88B3F5004F42
:1020700007D044F67C20C0F6000040F28D11FEF738
:10208000E5FA7B78002B0AD07B78012B07D044F649
:102090007C20C0F600004FF4C771FEF7D7FA7B78BA
:1020A000002B03D07A887B681A6102E07A887B680B
:1020B0005A6107F10807BD4680BD00BF80B582B0F8
:1020C00000AF78600B467B807A684FF40063C4F2FF
:1020D00001039A4231D07A684FF44063C4F201039D
:1020E0009A422AD07A684FF48053C4F201039A428C
:1020F00023D07A684FF4A053C4F201039A421CD053
:102100007A684FF4C053C4F201039A4215D07A683A
:102110004FF4E053C4F201039A420ED07A684FF4B0
:102120000053C4F201039A4207D044F67C20C0F663
:10213000000040F2A311FEF789FA7A887B68DA6022
:1021400007F10807BD4680BD80B584B000AF786058
:102150000B467B804FF48033FB607A684FF400635A
:10216000C4F201039A4231D07A684FF44063C4F25A
:1021700001039A422AD07A684FF48053C4F20103D3
:102180009A4223D07A684FF4A053C4F201039A42D2
:102190001CD07A684FF4C053C4F201039A4215D0A0
:1021A0007A684FF4E053C4F201039A420ED07A6881
:1021B0004FF40053C4F201039A4207D044F67C2046
:1021C000C0F600004FF4DA71FEF740FA7B88002B6E
:1021D00007D144F67C20C0F6000040F2B511FEF7AE
:1021E00035FA7B88FA681343FB607B68FA689A616A
:1021F0007A887B689A617B68FA689A617B689B69D8
:10220000FB607B689B69FB6007F11007BD4680BDE2
:1022100080B584B000AF02460B46FA71BB714FF037
:102220000003FB60FB79002B13D0FB79012B10D04E
:10223000FB79022B0DD0FB79032B0AD0FB79042B01
:1022400007D044F67C20C0F6000040F2D111FEF722
:10225000FDF9BB79002B34D0BB79012B31D0BB7990
:10226000022B2ED0BB79032B2BD0BB79042B28D08B
:10227000BB79052B25D0BB79062B22D0BB79072B48
:102280001FD0BB79082B1CD0BB79092B19D0BB7987
:102290000A2B16D0BB790B2B13D0BB790C2B10D08B
:1022A000BB790D2B0DD0BB790E2B0AD0BB790F2B30
:1022B00007D044F67C20C0F600004FF4E971FEF729
:1022C000C5F94FF00003C4F201031B68FB60FA6814
:1022D0004FF680731340FB60FB794FEA0313FA68F3
:1022E0001343FB60BB79FA681343FB604FF00003B4
:1022F000C4F20103FA681A6007F11007BD4680BDF9
:1023000080B582B000AF0346FB71FB79002B0AD089
:10231000FB79012B07D044F67C20C0F6000040F288
:10232000E511FEF793F94FF01C03C4F22023FA796C
:102330001A6007F10807BD4680BD00BF80B586B0B2
:1023400000AF78600B46FB704FF000033B614FF02D
:102350000003FB604FF000037B614FF00003BB60A4
:102360007B68012B00F018817B68022B00F0148140
:102370007B68042B00F010817B68082B00F00C8137
:102380007A684FF01003C0F214039A4200F00481FF
:102390007A684FF03003C0F214039A4200F0FC80D8
:1023A0007A684FF04003C0F216039A4200F0F480BE
:1023B0007A684FF0C003C0F216039A4200F0EC8036
:1023C0007A684FF48073C0F218039A4200F0E480F8
:1023D0007A684FF40073C0F218039A4200F0DC8070
:1023E0007A684FF44073C0F218039A4200F0D48028
:1023F0007A684FF40063C0F21A039A4200F0CC806E
:102400007A684FF44063C0F21A039A4200F0C48025
:102410007B68B3F5805F00F0BF807B68B3F5EA1F8F
:1024200000F0BA807B68B3F5EB1F00F0B5807B68E5
:10243000B3F5004F00F0B0807A684FF00103C0F2AE
:1024400020039A4200F0A8807A684FF00203C0F29D
:1024500020039A4200F0A0807A684FF00403C0F293
:1024600020039A4200F098807A684FF00803C0F287
:1024700020039A4200F090807A684FF01003C0F277
:1024800020039A4200F088807B68B3F1201F00F09F
:1024900083807A684FF04003C0F220039A427BD0D9
:1024A0007A684FF48073C0F230039A4274D07A682D
:1024B0004FF40073C0F230039A426DD07A684FF443
:1024C0008063C0F230039A4266D07A684FF480533A
:1024D000C0F220039A425FD07A684FF40053C0F2F2
:1024E00020039A4258D07B68B3F5011F54D07A6814
:1024F0004FF00103C8F200039A424DD07A684FF0C2
:102500000203C8F200039A4246D07A684FF00403EF
:10251000C8F200039A423FD07A684FF00803C8F22D
:1025200000039A4238D07A684FF01003C8F20003D3
:102530009A4231D07A684FF02003C8F200039A42E1
:102540002AD07A684FF04003C8F200039A4223D0A1
:102550007A684FF08003C8F200039A421CD07A6870
:102560004FF48073C8F200039A4215D07A684FF492
:102570000073C8F200039A420ED07A684FF4806369
:10258000C8F200039A4207D044F67C20C0F600004F
:1025900040F22221FEF75AF8FB78002B0AD0FB7894
:1025A000012B07D044F67C20C0F6000040F2232126
:1025B000FEF74CF87B68002B06DA4FF00003C4F2FC
:1025C0000103DB697B6105E04FF00003C4F2010306
:1025D0005B687B617B6803F470234FEA1343BB6045
:1025E0007B684FEA03434FEA13433B617B6803F484
:1025F0004013B3F5401F10D17B6923F070637B61FA
:102600004FF00003C4F201034FF00002C4F20102D4
:10261000526822F070625A6026E07B6803F48013EF
:10262000002B10D0BB684FF0030202FA03F3FB60EB
:10263000FB686FEA03037A6913407B617B6943F0AF
:1026400070637B6110E07B684FEA53534FEA0313DA
:102650003A6902FA03F36FEA03037A6913407B6174
:102660007B6943F070637B61FB78002B0AD07B6849
:102670004FEA53534FEA03133A6902FA03F37A69B4
:1026800013437B617B68002B06DA4FF00003C4F232
:1026900001037A69DA6105E04FF00003C4F2010337
:1026A0007A695A6007F11807BD4680BD90B585B0BC
:1026B00000AF02460B46FA71BB714FF00003FB609E
:1026C000FB79002B19D0FB79012B16D0FB79022B5B
:1026D00013D0FB79032B10D0FB79042B0DD0FB79A1
:1026E000052B0AD0FB79062B07D044F67C20C0F6D8
:1026F000000040F25D21FDF7A9FFBB79002B34D02B
:10270000BB79012B31D0BB79022B2ED0BB79032BA7
:102710002BD0BB79042B28D0BB79052B25D0BB79D6
:10272000062B22D0BB79072B1FD0BB79082B1CD0DE
:10273000BB79092B19D0BB790A2B16D0BB790B2B8F
:1027400013D0BB790C2B10D0BB790D2B0DD0BB79DE
:102750000E2B0AD0BB790F2B07D044F67C20C0F695
:10276000000040F25E21FDF771FFBB7903F0030327
:102770004FEA83034FF00F0202FA03F3FB604FF0BE
:102780000003C4F20103BA794FEA9202D2B21046B2
:102790004FF00002C4F20102B9794FEA9101C9B2C7
:1027A00001F1020152F82110FA686FEA02021140A9
:1027B00000F1020243F822104FF00003C4F20103BB
:1027C000BA794FEA9202D2B210464FF00002C4F238
:1027D0000102B9794FEA9101C9B201F1020152F83F
:1027E0002110FC79BA7902F003024FEA820204FA5E
:1027F00002F2114300F1020243F8221007F114071C
:10280000BD4690BD80B582B000AF78607B68002B7C
:102810000AD07B68012B07D044F67C20C0F600006C
:102820004FF41C71FDF712FF4FF0DC03C4F22023BC
:102830007A681A6007F10807BD4680BD80B582B08E
:1028400000AF78607A684FF44053C4F201039A42B3
:1028500015D07A684FF46053C4F200039A420ED048
:102860007A684FF47053C4F200039A4207D044F6DA
:10287000D820C0F600004FF07901FDF7E7FE7A6836
:102880004FF44053C4F201039A420CD14FF48050EC
:102890004FF00101FEF7FEFC4FF480504FF00001B5
:1028A000FEF7F8FC26E07A684FF46053C4F20003A8
:1028B0009A420CD14FF480404FF00101FEF734FDF5
:1028C0004FF480404FF00001FEF72EFD12E07A68D1
:1028D0004FF47053C4F200039A420BD14FF40040FE
:1028E0004FF00101FEF720FD4FF400404FF00001D2
:1028F000FEF71AFD07F10807BD4680BD80B584B01C
:1029000000AF786039604FF00003FB817A684FF4C4
:102910004053C4F201039A4215D07A684FF46053D1
:10292000C4F200039A420ED07A684FF47053C4F296
:1029300000039A4207D044F6D820C0F600004FF0BA
:10294000A201FDF783FE3B681B88002B16D03B6875
:102950001B88B3F5806F11D03B681B88B3F5004F1F
:102960000CD03B681B88B3F5404F07D044F6D82005
:10297000C0F600004FF0A501FDF768FE3B685B88DC
:10298000B3F5827F0BD03B685B88002B07D044F601
:10299000D820C0F600004FF0A601FDF757FE3B68B7
:1029A0009B88B3F5006F0BD03B689B88002B07D04A
:1029B00044F6D820C0F600004FF0A701FDF746FE10
:1029C0003B68DB88002B0BD03B68DB88022B07D0F1
:1029D00044F6D820C0F600004FF0A801FDF736FEFF
:1029E0003B681B89002B0BD03B681B89012B07D050
:1029F00044F6D820C0F600004FF0A901FDF726FEEE
:102A00003B685B89B3F5007F0BD03B685B89002B8B
:102A100007D044F6D820C0F600004FF0AA01FDF719
:102A200015FE3B689B89002B23D03B689B89082BB4
:102A30001FD03B689B89102B1BD03B689B89182BB0
:102A400017D03B689B89202B13D03B689B89282B90
:102A50000FD03B689B89302B0BD03B689B89382B70
:102A600007D044F6D820C0F600004FF0AB01FDF7C8
:102A7000EDFD3B68DB89002B0BD03B68DB89802BAD
:102A800007D044F6D820C0F600004FF0AC01FDF7A7
:102A9000DDFD3B681B8A002B07D144F6D820C0F629
:102AA00000004FF0AD01FDF7D1FD7B681B88FB8175
:102AB000FB8903F44153FB813B681A883B685B88C0
:102AC00013439AB23B689B8813439AB23B68DB88F6
:102AD00013439AB23B681B8913439AB23B685B89E4
:102AE00013439AB23B689B8913439AB23B68DB89D4
:102AF00013439AB2FB891343FB817B68FA891A80DE
:102B00007B689B8B9BB223F400639AB27B689A83A9
:102B10003B681A8A7B681A8207F11007BD4680BDA0
:102B200080B58CB000AF786039604FF000037B84D3
:102B30004FF00203FB854FF00003BB854FF001030C
:102B40007B854FF000037B624FF00003FB617A68E6
:102B50004FF46053C4F200039A420ED07A684FF4E7
:102B60007053C4F200039A4207D044F6D820C0F64E
:102B700000004FF0E201FDF769FD3B681B88002B68
:102B800016D03B681B88B3F5807F11D03B681B884B
:102B9000B3F5007F0CD03B681B88B3F5407F07D0AE
:102BA00044F6D820C0F600004FF0E301FDF74EFDDB
:102BB0003B685B88002B17D03B685B88102B13D0D9
:102BC0003B685B88202B0FD03B685B88302B0BD099
:102BD0003B685B88B02B07D044F6D820C0F60000D5
:102BE0004FF0E401FDF732FD3B689B88002B13D0CA
:102BF0003B689B88012B0FD03B689B88032B0BD035
:102C00003B689B88052B07D044F6D820C0F600000F
:102C10004FF0E501FDF71AFD3B68DB88B3F5007F57
:102C20000BD03B68DB88002B07D044F6D820C0F6D9
:102C300000004FF0E601FDF709FD3B689A684FF48C
:102C4000EE43C0F201039A4232D03B689A684BF6D9
:102C500080339A422CD03B689A684AF644439A42A1
:102C600026D03B689B68B3F5FA4F21D03B689A6841
:102C700045F222639A421BD03B689B68B3F57A5FAA
:102C800016D03B689A6842F611339A4210D03B68DE
:102C90009B68B3F5FA5F0BD03B689B68022B07D0AB
:102CA00044F6D820C0F600004FF0E701FDF7CEFC57
:102CB0003B689B89002B0BD03B689B89082B07D076
:102CC00044F6D820C0F600004FF0E801FDF7BEFC46
:102CD0007B689B8B9BB223F47B6323F00F039AB238
:102CE0007B689A837B684FF002021A847B689B8B17
:102CF0007B843B689B68022B06D14FF00003BB85A9
:102D00004FF00203FB8567E03B689B88002B03D1F3
:102D10004FF001037B8502E04FF002037B857A6868
:102D20004FF46053C4F200039A4203D14FF40033CE
:102D30007B6202E04FF480237B6207F108031846B0
:102D4000FEF7E6F8BB68FB613B68DB88B3F5007F04
:102D500013D1FB694FEA132213464FEA83039B18F2
:102D60004FEA43031A463B689B68B2FBF3F39BB2FE
:102D700003F105039BB27B6215E07B8D4FEA4313A1
:102D8000FA69B2FBF3F213464FEA83039B184FEA4A
:102D900043031A463B689B68B2FBF3F39BB203F113
:102DA00005039BB27B627A6A4CF6CD43CCF6CC43EA
:102DB000A3FB02134FEAD3037B627B6A9BB203F04F
:102DC0000103BB85BB8D7A6AD31A4FEA5303FB8597
:102DD000BB8D4FEA0323BB85FB8D012B02D9FB8DF5
:102DE000FF2B05D94FF00203FB854FF00003BB8595
:102DF0003B68DA88BB8D13439AB2FB8D13439AB2BA
:102E00007B681A843B681A883B6859883B689888B5
:102E10003B689B8903439BB20B439BB213439AB21B
:102E20007B8C13439BB243F400637B847B687A8C76
:102E30009A8307F13007BD4680BD00BF80B483B0E0
:102E400000AF78607B684FF000021A807B684FF01B
:102E500000025A807B684FF000029A807B684FF036
:102E60000002DA807B684FF000021A817B684FF025
:102E700000025A817B684FF000029A817B684FF014
:102E80000002DA817B684FF007021A8207F10C0713
:102E9000BD4680BC704700BF80B483B000AF78608F
:102EA0007B684FF000021A807B684FF000025A8066
:102EB0007B684FF000029A807B684FF00002DA8056
:102EC0007B684FF002029A607B684FF000029A81A3
:102ED00007F10C07BD4680BC704700BF80B582B0CB
:102EE00000AF78600B46FB707A684FF44053C4F231
:102EF00001039A4215D07A684FF46053C4F200037C
:102F00009A420ED07A684FF47053C4F200039A428A
:102F100007D044F6D820C0F6000040F2AD11FDF70E
:102F200095FBFB78002B0AD0FB78012B07D044F6E9
:102F3000D820C0F600004FF4D771FDF787FBFB786F
:102F4000002B08D07B681B889BB243F040039AB2E9
:102F50007B681A8007E07B681B889BB223F04003E4
:102F60009AB27B681A8007F10807BD4680BD00BF92
:102F700080B582B000AF78600B46FB707A684FF482
:102F80006053C4F200039A420ED07A684FF4705333
:102F9000C4F200039A4207D044F6D820C0F60000DD
:102FA00040F2C511FDF752FBFB78002B0AD0FB78ED
:102FB000012B07D044F6D820C0F600004FF4E3718F
:102FC000FDF744FBFB78002B08D07B689B8B9BB202
:102FD00043F480639AB27B689A8307E07B689B8B9B
:102FE0009BB223F480639AB27B689A8307F1080747
:102FF000BD4680BD80B584B000AF786013460A46F8
:10300000FA70BB704FF00003FB814FF00003BB81EF
:103010007A684FF44053C4F201039A4215D07A689B
:103020004FF46053C4F200039A420ED07A684FF412
:103030007053C4F200039A4207D044F6D820C0F679
:10304000000040F2E511FDF701FBBB78002B0AD030
:10305000BB78012B07D044F6D820C0F600004FF40F
:10306000F371FDF7F3FAFB78712B0DD0FB78602B31
:103070000AD0FB78502B07D044F6D820C0F60000C9
:1030800040F2E711FDF7E2FAFB784FEA1313DBB2E7
:10309000FB81FB894FF0010202FA03F3BB81BB788D
:1030A000002B08D07B689B889AB2BB8913439AB2E5
:1030B0007B689A800AE07B689B889AB2BB896FEA3A
:1030C00003039BB213409AB27B689A8007F1100702
:1030D000BD4680BD80B582B000AF786013460A4619
:1030E0007A807B707A684FF44053C4F201039A42AD
:1030F00015D07A684FF46053C4F200039A420ED0A0
:103100007A684FF47053C4F200039A4207D044F631
:10311000D820C0F6000040F20B21FDF797FA7B782B
:10312000002B0AD07B78012B07D044F6D820C0F6BC
:1031300000004FF40371FDF789FA7A884FF6FC73AB
:103140001340002B02D17B88002B07D144F6D820F6
:10315000C0F6000040F20D21FDF778FA7B78002BD5
:1031600008D07B689B889AB27B8813439AB27B68AD
:103170009A800AE07B689B889AB27B886FEA030397
:103180009BB213409AB27B689A8007F10807BD464C
:1031900080BD00BF80B582B000AF78600B467B80F9
:1031A0007A684FF44053C4F201039A4215D07A680A
:1031B0004FF46053C4F200039A420ED07A684FF481
:1031C0007053C4F200039A4207D044F6D820C0F6E8
:1031D000000040F22521FDF739FA7B687A889A8150
:1031E00007F10807BD4680BD80B582B000AF7860AA
:1031F0007A684FF44053C4F201039A4215D07A68BA
:103200004FF46053C4F200039A420ED07A684FF430
:103210007053C4F200039A4207D044F6D820C0F697
:10322000000040F23521FDF711FA7B689B899BB2C3
:10323000184607F10807BD4680BD00BF80B582B0C3
:1032400000AF78600B467B807A684FF44053C4F23D
:1032500001039A4215D07A684FF46053C4F2000318
:103260009A420ED07A684FF47053C4F200039A4227
:1032700007D044F6D820C0F6000040F24721FDF701
:10328000E5F97B88B3F5807F0CD07A884FF6FF6331
:103290009A4207D044F6D820C0F600004FF41271CD
:1032A000FDF7D4F97A884FF6FF639A4208D07B681D
:1032B0001B889BB243F480739AB27B681A8007E044
:1032C0007B681B889BB223F480739AB27B681A8058
:1032D00007F10807BD4680BD80B582B000AF7860B9
:1032E0000B46FB707A684FF44053C4F201039A42D4
:1032F00015D07A684FF46053C4F200039A420ED09E
:103300007A684FF47053C4F200039A4207D044F62F
:10331000D820C0F6000040F25F21FDF797F9FB7856
:10332000002B0AD0FB78012B07D044F6D820C0F63A
:1033300000004FF41871FDF789F9FB78002B08D0D5
:103340007B689B889BB243F004039AB27B689A80A7
:1033500007E07B689B889BB223F004039AB27B68EA
:103360009A8007F10807BD4680BD00BF80B582B0D6
:1033700000AF78600B467B807A684FF44053C4F20C
:1033800001039A4215D07A684FF46053C4F20003E7
:103390009A420ED07A684FF47053C4F200039A42F6
:1033A00007D044F6D820C0F6000040F27921FDF79E
:1033B0004DF97B88B3F5006F0AD07B88002B07D0CE
:1033C00044F6D820C0F6000040F27A21FDF73EF91D
:1033D0007B681B889BB223F400639AB27B681A80D7
:1033E0007B681B889AB27B8813439AB27B681A80E9
:1033F00007F10807BD4680BD80B582B000AF786098
:103400007A684FF44053C4F201039A4215D07A68A7
:103410004FF46053C4F200039A420ED07A684FF41E
:103420007053C4F200039A4207D044F6D820C0F685
:10343000000040F28921FDF709F97B681B889BB2E7
:1034400043F480539AB27B681A8007F10807BD469F
:1034500080BD00BF80B582B000AF78600B46FB70C6
:103460007A684FF44053C4F201039A4215D07A6847
:103470004FF46053C4F200039A420ED07A684FF4BE
:103480007053C4F200039A4207D044F6D820C0F625
:10349000000040F29921FDF7D9F8FB78002B0AD003
:1034A000FB78012B07D044F6D820C0F6000040F28C
:1034B0009A21FDF7CBF8FB78002B08D07B681B889E
:1034C0009BB243F400539AB27B681A8007E07B6892
:1034D0001B889BB223F400539AB27B681A8007F1D1
:1034E0000807BD4680BD00BF80B584B000AF7860DE
:1034F0000B46FB704FF00003FB817A684FF440539A
:10350000C4F201039A4215D07A684FF46053C4F2B2
:1035100000039A420ED07A684FF47053C4F200034D
:103520009A4207D044F6D820C0F600004FF42D711F
:10353000FDF78CF8FB78002B0AD0FB78012B07D025
:1035400044F6D820C0F6000040F2B521FDF77EF821
:10355000FB78012B03D07B681B8BFB8102E07B682F
:103560009B8AFB81FB89184607F11007BD4680BD89
:1035700080B582B000AF78607A684FF44053C4F2EF
:1035800001039A4215D07A684FF46053C4F20003E5
:103590009A420ED07A684FF47053C4F200039A42F4
:1035A00007D044F6D820C0F600004FF43371FDF781
:1035B0004DF87B681B8A9BB2184607F10807BD4689
:1035C00080BD00BF80B582B000AF78600B467B80C5
:1035D0007A684FF44053C4F201039A4215D07A68D6
:1035E0004FF46053C4F200039A420ED07A684FF44D
:1035F0007053C4F200039A4207D044F6D820C0F6B4
:10360000000040F2DE21FDF721F87A884BF6FF73C7
:103610009A420BD07B88B3F5804F07D044F6D82070
:10362000C0F6000040F2DF21FDF710F87B88B3F50B
:10363000804F08D17B681B889BB243F480439AB2C9
:103640007B681A8007E07B681B889BB223F4804369
:103650009AB27B681A8007F10807BD4680BD00BF9B
:1036600080B584B000AF78600B467B804FF00003DC
:10367000FB737A684FF44053C4F201039A4215D0A9
:103680007A684FF46053C4F200039A420ED07A680D
:103690004FF47053C4F200039A4207D044F6D82086
:1036A000C0F6000040F20131FCF7D0FF7B88802B90
:1036B0001CD07B88402B19D07B88202B16D07B8890
:1036C000102B13D07B88082B10D07B88042B0DD0B7
:1036D0007B88022B0AD07B88012B07D044F6D820A8
:1036E000C0F6000040F20231FCF7B0FF7B681B8996
:1036F0009AB27B8813409BB2002B03D04FF001039A
:10370000FB7302E04FF00003FB73FB7B184607F1ED
:103710001007BD4680BD00BF80B582B000AF7860A5
:103720000B467B807A684FF44053C4F201039A42FF
:1037300015D07A684FF46053C4F200039A420ED059
:103740007A684FF47053C4F200039A4207D044F6EB
:10375000D820C0F6000040F22631FCF777FF7B88C6
:10376000102B07D044F6D820C0F6000040F22731D5
:10377000FCF76CFF7B886FEA03039AB27B681A81BF
:1037800007F10807BD4680BD80B584B000AF786002
:103790000B46FB704FF00003FB734FF00003BB813F
:1037A0004FF000037B814FF000033B817A684FF4B8
:1037B0004053C4F201039A4215D07A684FF4605323
:1037C000C4F200039A420ED07A684FF47053C4F2E8
:1037D00000039A4207D044F6D820C0F6000040F219
:1037E0004231FCF733FFFB78602B16D0FB78712B4E
:1037F00013D0FB78532B10D0FB78542B0DD0FB78D3
:10380000552B0AD0FB78562B07D044F6D820C0F6AB
:10381000000040F24331FCF719FFFB7803F00F037F
:103820004FF0010202FA03F3BB81FB784FEA131356
:10383000DBB27B817B894FF0010202FA03F37B81CB
:103840007B689B889AB27B8913403B817B681B898C
:103850009AB2BB8913409BB2002B06D03B89002B48
:1038600003D04FF00103FB7302E04FF00003FB7342
:10387000FB7B184607F11007BD4680BD80B584B0BC
:1038800000AF78600B46FB704FF00003FB817A6855
:103890004FF44053C4F201039A4215D07A684FF4B2
:1038A0006053C4F200039A420ED07A684FF470530A
:1038B000C4F200039A4207D044F6D820C0F60000B4
:1038C00040F27631FCF7C2FEFB78542B07D044F669
:1038D000D820C0F6000040F27731FCF7B7FEFB7845
:1038E00003F00F034FF0010202FA03F3FB81FB899F
:1038F0006FEA03039AB27B681A8107F11007BD468D
:1039000080BD00BF80B400AF4FF48063C4F20103F8
:103910004FF000021A604FF48063C4F201034FF0CD
:1039200000025A604FF48063C4F201034FF00002BA
:103930009A604FF48063C4F201034FF00002DA6032
:103940004FF48063C4F201034FF6FF72C0F20F021E
:103950005A61BD4680BC704780B584B000AF7860C6
:103960004FF00003FB607B681B79002B0BD07B685A
:103970001B79042B07D044F63430C0F600004FF01A
:103980006901FCF763FE7B685B79082B0FD07B68CD
:103990005B790C2B0BD07B685B79102B07D044F63E
:1039A0003430C0F600004FF06A01FCF74FFE7B6830
:1039B0001B684FEA13534FEA0353002B03D17B6874
:1039C0001B68002B07D144F63430C0F600004FF0DE
:1039D0006B01FCF73BFE7B689B79002B0BD07B686F
:1039E0009B79012B07D044F63430C0F600004FF02D
:1039F0006C01FCF72BFE4FF48063C4F20103FB6003
:103A00007B689B79002B78D04FF48063C4F201036C
:103A10004FF48062C4F2010211687A6812686FEA9A
:103A200002020A401A604FF48063C4F201034FF4AB
:103A30008062C4F2010251687A6812686FEA020279
:103A40000A405A607B681B79FA68D318FB60FB68F0
:103A5000FA6811687A6812680A431A604FF4806342
:103A6000C4F201034FF48062C4F2010291687A68E3
:103A700012686FEA02020A409A604FF48063C4F24F
:103A800001034FF48062C4F20102D1687A681268BF
:103A90006FEA02020A40DA607B685B79102B1AD168
:103AA0004FF48063C4F201034FF48062C4F2010258
:103AB00091687A6812680A439A604FF48063C4F28E
:103AC00001034FF48062C4F20102D1687A6812687F
:103AD0000A43DA601FE04FF48063C4F20103FB6025
:103AE0007B685B79FA68D318FB60FB68FA68116839
:103AF0007A6812680A431A600DE07B681B79FA68DD
:103B0000D318FB60FB68FA6811687A6812686FEA7C
:103B100002020A401A6007F11007BD4680BD00BFCF
:103B200080B483B000AF78607B684FF000021A6009
:103B30007B684FF000021A717B684FF00C025A71DB
:103B40007B684FF000029A7107F10C07BD4680BCFC
:103B5000704700BF80B582B000AF78607B684FEAE5
:103B600013534FEA0353002B02D17B68002B07D17C
:103B700044F63430C0F600004FF0AD01FCF766FDAE
:103B80004FF48063C4F201034FF48062C4F2010277
:103B900011697A680A431A6107F10807BD4680BDBA
:103BA00080B584B000AF78604FF00003FB737B6892
:103BB000012B4CD07B68022B49D07B68042B46D06C
:103BC0007B68082B43D07B68102B40D07B68202B70
:103BD0003DD07B68402B3AD07B68802B37D07B6808
:103BE000B3F5807F33D07B68B3F5007F2FD07B683F
:103BF000B3F5806F2BD07B68B3F5006F27D07B685F
:103C0000B3F5805F23D07B68B3F5005F1FD07B687E
:103C1000B3F5804F1BD07B68B3F5004F17D07B689E
:103C2000B3F5803F13D07B68B3F5003F0FD07B68BE
:103C3000B3F5802F0BD07B68B3F5002F07D044F687
:103C40003430C0F600004FF0BD01FCF7FFFC4FF42C
:103C50008063C4F201035A697B681340002B03D0D0
:103C60004FF00103FB7302E04FF00003FB73FB7B9B
:103C7000184607F11007BD4680BD00BF80B582B071
:103C800000AF78607B684FEA13534FEA0353002B71
:103C900002D17B68002B07D144F63430C0F6000017
:103CA0004FF0D301FCF7D2FC4FF48063C4F2010360
:103CB0007A685A6107F10807BD4680BD80B584B0B7
:103CC00000AF78604FF00003FB734FF00003BB6060
:103CD0007B68012B4CD07B68022B49D07B68042B7E
:103CE00046D07B68082B43D07B68102B40D07B6884
:103CF000202B3DD07B68402B3AD07B68802B37D07F
:103D00007B68B3F5807F33D07B68B3F5007F2FD01D
:103D10007B68B3F5806F2BD07B68B3F5006F27D03D
:103D20007B68B3F5805F23D07B68B3F5005F1FD05D
:103D30007B68B3F5804F1BD07B68B3F5004F17D07D
:103D40007B68B3F5803F13D07B68B3F5003F0FD09D
:103D50007B68B3F5802F0BD07B68B3F5002F07D0BD
:103D600044F63430C0F600004FF0E401FCF76EFC7E
:103D70004FF48063C4F201031A687B681340BB6090
:103D80004FF48063C4F201035A697B681340002B2F
:103D900006D0BB68002B03D04FF00103FB7302E099
:103DA0004FF00003FB73FB7B184607F11007BD467D
:103DB00080BD00BF80B582B000AF78607B684FEAFD
:103DC00013534FEA0353002B02D17B68002B07D11A
:103DD00044F63430C0F600004FF0FB01FCF736FC2F
:103DE0004FF48063C4F201037A685A6107F108074F
:103DF000BD4680BD80B582B000AF78607B68B3F50A
:103E0000E06F17D07B68B3F5C06F13D07B68B3F554
:103E1000A06F0FD07B68B3F5806F0BD07B68B3F5D4
:103E2000407F07D044F69030C0F600004FF06201AA
:103E3000FCF70CFC4FF46D43CEF200037A6842F0BD
:103E4000BF6242F40032DA6007F10807BD4680BD68
:103E500080B586B000AF78604FF000037B614FF013
:103E600000033B614FF00F03FB607B68DB78002BA6
:103E70000BD07B68DB78012B07D044F69030C0F67E
:103E800000004FF07401FCF7E1FB7B685B780F2BBF
:103E900007D944F69030C0F600004FF07501FCF7EA
:103EA000D5FB7B689B780F2B07D944F69030C0F682
:103EB00000004FF07601FCF7C9FB7B68DB78002B34
:103EC00047D04FF46D43CEF20003DB686FEA030383
:103ED00003F4E0634FEA13237B617B69C3F10403BE
:103EE0003B617B69FA6822FA03F3FB607B685B78CD
:103EF0001A463B6902FA03F37B617B689B781A469A
:103F0000FB6813407A6913437B617B694FEA0313B3
:103F10007B614FF46143CEF200037A681278114658
:103F20007A69D2B25B1883F800234FF46143CEF272
:103F300000037A6812784FEA5212D2B2796809788F
:103F400001F01F014FF0010000FA01F143F82210C7
:103F500014E04FF46143CEF200037A6812784FEA1E
:103F60005212D2B27968097801F01F014FF00100B6
:103F700000FA01F102F1200243F8221007F11807BC
:103F8000BD4680BD80B582B000AF786039607B6887
:103F9000B3F1005F0BD07B68B3F1006F07D044F63C
:103FA0009030C0F600004FF09D01FCF74FFB3A68DF
:103FB0004FF6FE73C0F20F039A4207D944F69030D1
:103FC000C0F600004FF09E01FCF740FB4FF46D433C
:103FD000CEF200033A6822F0604222F07F02796854
:103FE0000A439A6007F10807BD4680BD80B582B0DC
:103FF00000AF02460B46FA71BB71FB79102B0DD056
:10400000FB79042B0AD0FB79022B07D044F69030C1
:10401000C0F600004FF0B001FCF718FBBB79002B95
:104020000AD0BB79012B07D044F69030C0F60000CF
:104030004FF0B101FCF70AFBBB79002B0CD04FF419
:104040006D43CEF200034FF46D42CEF200021169CF
:10405000FA790A431A610DE04FF46D43CEF2000382
:104060004FF46D42CEF200021169FA796FEA020252
:104070000A401A6107F10807BD4680BD80B582B0CD
:1040800000AF78607B68042B0BD07B6813F1050FC1
:1040900007D044F69030C0F600004FF0C801FCF79E
:1040A000D5FA7B68042B0CD14EF21003CEF200033C
:1040B0004EF21002CEF20002126842F004021A60C0
:1040C0000BE04EF21003CEF200034EF21002CEF2DD
:1040D0000002126822F004021A6007F10807BD46C8
:1040E00080BD00BF0C4C0008000000205C040020D4
:1040F0006C0400209404002080B500AF4FF480537E
:10410000C4F202034FF48052C4F20202126842F079
:1041100001021A604FF48052C4F202024FF480533D
:10412000C4F2020359684FF00003CFF6FF030B40BF
:1041300053604FF48053C4F202034FF48052C4F230
:104140000202126822F0847222F480321A604FF464
:104150008053C4F202034FF48052C4F20202126888
:1041600022F480221A604FF48053C4F202034FF409
:104170008052C4F20202526822F4FE025A604FF4E6
:104180008053C4F202034FF41F029A604FF480532D
:10419000C4F202034FF00002DA6200F09FF880BD23
:1041A00080B485B000AF4FF00003FB604FF0000318
:1041B000BB604FF000037B604FF000033B604FF4A7
:1041C0008053C4F202035B6803F00C03FB60FB68DE
:1041D000042B0DD0082B15D0002B53D140F218031F
:1041E000C2F200034FF49052C0F27A021A6053E018
:1041F00040F21803C2F200034FF49052C0F27A0268
:104200001A6049E04FF48053C4F202035B6803F480
:104210007013BB604FF48053C4F202035B6803F475
:1042200080337B60BB684FEA934303F10203BB60BA
:104230007B68002B0CD1BA684FF41063C0F23D03C9
:1042400003FB02F240F21803C2F200031A6023E0FB
:104250004FF48053C4F20203DB6A03F00F0303F14F
:1042600001033B604FF49053C0F27A033A68B3FB0A
:10427000F2F3BA6802FB03F240F21803C2F2000341
:104280001A6009E040F21803C2F200034FF49052A2
:10429000C0F27A021A6000BF4FF48053C4F20203E6
:1042A0005B6803F0F0034FEA131240F21C03C2F202
:1042B00000039B5CDBB2FB6040F21803C2F2000318
:1042C0001A68FB6822FA03F240F21803C2F20003F4
:1042D0001A6007F11407BD4680BC704780B500AF77
:1042E00000F002F880BD00BF80B483B000AF4FF093
:1042F00000037B604FF000033B604FF48053C4F237
:1043000002034FF48052C4F20202126842F4803277
:104310001A604FF48053C4F202031B6803F40033A5
:104320003B607B6803F101037B603B68002B03D19A
:104330007B68B3F5A06FECD14FF48053C4F2020355
:104340001B6803F40033002B03D04FF001033B60E4
:1043500002E04FF000033B603B68012B6DD14FF44E
:104360008053C4F202034FF48052C4F20202526836
:104370005A604FF48053C4F202034FF48052C4F2E7
:10438000020252685A604FF48053C4F202034FF4A1
:104390008052C4F2020252685A604FF48053C4F251
:1043A00002034FF48052C4F20202526822F47C12DB
:1043B0005A604FF48053C4F202034FF48052C4F2A7
:1043C0000202526842F498125A604FF48053C4F2C9
:1043D00002034FF48052C4F20202126842F080726B
:1043E0001A6000BF4FF48053C4F202031B6803F04D
:1043F0000073002BF6D04FF48053C4F202034FF445
:104400008052C4F20202526822F003025A604FF452
:104410008053C4F202034FF48052C4F20202526885
:1044200042F002025A6000BF4FF48053C4F202030C
:104430005B6803F00C03082BF6D107F10C07BD46AF
:1044400080BC7047002100F004B80D4B5B5843500E
:1044500004310C480C4B42189A42FFF4F6AF0B4A59
:1044600000F003B8002342F8043B094B9A42FFF4E2
:10447000F9AFFFF741FE00F09DF8FBF76BFF7047C7
:104480000C4C0008000000205C0400206C0400209C
:1044900094040020FFF7FEBF2DE9F041274C84B0C3
:1044A00025680746D5F84841002C41D066681F2E84
:1044B0001CDD234810B94FF0FF301FE04FF4C870E7
:1044C000039102920193AFF3008003990446029A8C
:1044D000019B0028EFD0D5F848610020606026607D
:1044E000C5F84841C4F88801C4F88C01656847B92B
:1044F000A81C013544F820106560002004B0BDE818
:10450000F081012000FA05F0D4F8886104EB8508F9
:104510000643022FC8F88820C4F88861C8F808311B
:10452000E6D1D4F88C3143EA0002C4F88C21DFE7ED
:1045300005F5A674C5F84841B8E700BFE44B00088C
:104540000000000008B50021044600F01DF9044BEE
:104550001868C16B01B18847204600F05FFA00BFC0
:10456000E44B0008114B124A70B5981A831018D00A
:10457000591E02EB83040D4654F8042D01F0010688
:10458000904775B126B154F8040D8047013D08D01D
:1045900054F8043D9847013D54F8041D8847013DF7
:1045A000F6D1BDE8704000F025BB00BF0000000060
:1045B00000000000F8B5204F204C381B871017D0A2
:1045C0007A1E2368012502F001069847AF420FD0FA
:1045D0002EB154F8041F02258847AF4208D0606806
:1045E00080470235A268261D90470834AF42F6D1B5
:1045F000134F144C00F0F8FA3B1B9F1018D07D1E8F
:10460000216805F0010601258847AF4211D02EB17F
:1046100054F8040F02258047AF420BD062689047E0
:104620000235A368261D98470834AF42F6D1F8BD7D
:10463000F8BDF8BDF8BD00BF00000000000000009C
:104640000000000000000000F0B48407034600F002
:104650008D80541E002A00F08780E507CEB211D469
:104660001A4602F8016B13461546920710D0621ED7
:10467000002C79D003F8016B14469A071D4607D029
:10468000013CEDE7034603F8016B9A071D46F7D19D
:10469000032C52D9CEB246EA06270F2C47EA07432D
:1046A0002DD9A4F1100217460F2FC2F300162B606C
:1046B0006B60AB60EB6005F1100216D93EB1103FA4
:1046C000136053609360D36010320F2F0DD9203FD9
:1046D00002F11006136053609360D360136153615D
:1046E0009361D36120320F2FF1D8A4F1100222F090
:1046F0000F0204F00F041032032C15441DD9271F9C
:104700003E462A46032E42F8043BC7F380070DD9E4
:1047100027B1043E032E42F8043B07D9174647F859
:10472000043B083E53603A1D032EF7D8231F23F0A5
:104730000302131D04F00304ED18ACB1C9B2EA433F
:104740002C1905F8011BA318A54203F001020BD098
:104750001AB105F8011BA54206D02B4603F8011B30
:1047600069705D1CA542F8D1F0BC7047054614463F
:104770008EE700BF024B13B1024800F049B9704701
:1047800000000000654500082DE9F04F9F4B87B001
:104790001A68049002F5A47003920D4605904FF03C
:1047A000010A0399DDF81490D1F84841002C43D058
:1047B0006268B2F1010838D404F1880B1F320BEBA8
:1047C000820308F0010C002D00F08C805BF8226061
:1047D000AE4200F087801E1F08F1FF37B8F1000FCE
:1047E00023D0BCF1000F0BD0002D00F0A28053F8B5
:1047F000043CAB4200F09D80013F043E7B1C14D082
:10480000B846E5B13768AF4219D008F1FF37A6F1D5
:104810000408002D3FD056F8046CAE423BD0A8F1FE
:10482000040607F1FF38002FEBD140F20000C0F280
:104830000000002840F0DA8007B0BDE8F08F616822
:10484000CBEB06004F1E2218474552F8783C00F08B
:104850009280002142F8781C002BD6D00AFA08F08A
:10486000D4F88821676810423AD0D4F88C110842F5
:1048700040F09780049856F8801C98476368BB42C4
:104880008FD1D9F80000A0428BD108F1FF37A6F1F3
:104890000408002DBFD16168CBEB0802481EA618A2
:1048A000B84256F8783C69D0002146F8781C002BB5
:1048B000B5D00AFA07F2D4F888016668024236D009
:1048C000D4F88C110A4270D058F8800C984763686D
:1048D000B3427FF466AFD9F80020A2429FD060E7D0
:1048E0009847CBE76068CBEB030101386618404579
:1048F00056F8782C70D0002146F8781C002A3FF436
:104900006AAF0AFA08F1D4F888016668014237D024
:10491000D4F88C01014255D153F8801C04980293BD
:10492000CDF804C09047029BDDF804C02FE0984703
:10493000CDE76068CBEB0602411EA218B94252F8DF
:10494000783C4CD0002042F8780C002B3FF454AF58
:104950000AFA07F2D4F88811D4F804800A4229D15F
:104960009847636843457FF41CAFD9F80020A24202
:104970003FF442AF15E7C4F804806DE7676096E73F
:104980000293CDF804C09047029BDDF804C0626832
:10499000B2427FF406AFD9F80010A1423FF41BAF3A
:1049A000FFE656F8800C984768E7049858F8801C92
:1049B00098478CE7D4F88C01024212D056F8800C4C
:1049C0009847CEE753F8800C0293CDF804C0904787
:1049D000029BDDF804C0DAE7C4F804808EE7676064
:1049E000B3E7049856F8801C9847BAE7616849B95C
:1049F000236843B12046C9F80030AFF30080D9F8EE
:104A00000040D3E62368A1461C46CFE6E44B0008ED
:104A10000146002002460346FFF73EBDFEE700BF09
:104A20002E2E2F2E2E2F53544D3332564C2D44699B
:104A300073636F766572795F5061636B6167652F31
:104A40004C69627261726965732F53544D333246FB
:104A50003130785F5374645065726970685F447276
:104A6000697665722F7372632F73746D333266319A
:104A700030785F7263632E63000000002E2E2F2EAD
:104A80002E2F53544D3332564C2D446973636F7639
:104A90006572795F5061636B6167652F4C69627203
:104AA00061726965732F53544D3332463130785FEC
:104AB0005374645065726970685F44726976657298
:104AC0002F7372632F73746D3332663130785F6782
:104AD00070696F2E630000002E2E2F2E2E2F535440
:104AE0004D3332564C2D446973636F766572795F2E
:104AF0005061636B6167652F4C69627261726965B1
:104B0000732F53544D3332463130785F53746450B1
:104B100065726970685F4472697665722F7372633B
:104B20002F73746D3332663130785F7370692E6322
:104B3000000000002E2E2F2E2E2F53544D333256B0
:104B40004C2D446973636F766572795F5061636B56
:104B50006167652F4C69627261726965732F535486
:104B60004D3332463130785F5374645065726970EA
:104B7000685F4472697665722F7372632F73746D08
:104B80003332663130785F657874692E63000000D7
:104B90002E2E2F2E2E2F53544D3332564C2D44692A
:104BA00073636F766572795F5061636B6167652FC0
:104BB0004C69627261726965732F53544D3332468A
:104BC0003130785F5374645065726970685F447205
:104BD000697665722F7372632F6D6973632E63003C
:084BE00043000000300000203A
:0C4BE800F8B500BFF8BC08BC9E46704742
:0C4BF400F8B500BFF8BC08BC9E46704736
:044C000000000000B0
:084C040020B6FF7F0100000053
:104C0C000000000000000000010203040102030484
:104C1C00060708090204060800366E0100000000B1
:104C2C000000000001020304060708090000000050
:104C3C00000000001C03002084030020EC03002073
:104C4C000000000000000000000000000000000058
:104C5C000000000000000000000000000000000048
:104C6C0000000000E04B0008000000000000000005
:104C7C000000000000000000000000000000000028
:104C8C000000000000000000000000000000000018
:104C9C000000000000000000000000000000000008
:104CAC0000000000000000000000000000000000F8
:104CBC0000000000000000000000000000000000E8
:104CCC0000000000000000000000000000000000D8
:104CDC0000000000000000000100000000000000C7
:104CEC000E33CDAB34126DE6ECDE05000B0000008C
:104CFC0000000000000000000000000000000000A8
:104D0C000000000000000000000000000000000097
:104D1C000000000000000000000000000000000087
:104D2C000000000000000000000000000000000077
:0C505C00000000000000000030000020F8
:04506800F501000846
:04506C00D101000866
:04507000000000003C
:045074007547000874
:040000050800444566
:00000001FF
