:020000040800F2
:10000000002000200D3D00085D3D00085D3D00081A
:100010005D3D00085D3D00085D3D000800000000FA
:100020000000000000000000000000005D3D00082E
:100030005D3D0008000000005D3D0008350500083A
:100040005D3D00085D3D00085D3D00085D3D000828
:100050005D3D00085D3D00085D3D00085D3D000818
:100060005D3D00085D3D00085D3D00085D3D000808
:100070005D3D00085D3D00085D3D00085D3D0008F8
:100080005D3D00085D3D00085D3D0008000000008A
:100090000000000000000000000000005D3D0008BE
:1000A0005D3D00085D3D00085D3D00085D3D0008C8
:1000B0005D3D00085D3D00085D3D00085D3D0008B8
:1000C0005D3D00085D3D00085D3D00085D3D0008A8
:1000D0005D3D00085D3D00085D3D00085D3D000898
:1000E0005D3D00085D3D00085D3D0008000000002A
:1000F0000000000000000000000000000000000000
:1001000000000000000000000000000000000000EF
:1001100000000000000000005D3D00085D3D00089B
:1001200000000000000000000000000000000000CF
:1001300000000000000000000000000000000000BF
:1001400000000000000000000000000000000000AF
:10015000000000000000000000000000000000009F
:10016000000000000000000000000000000000008F
:10017000000000000000000000000000000000007F
:10018000000000000000000000000000000000006F
:10019000000000000000000000000000000000005F
:1001A000000000000000000000000000000000004F
:1001B000000000000000000000000000000000003F
:1001C0000000000000000000000000005FF808F1DF
:1001D00010B5054C237833B9044810B10448AFF387
:1001E00000800121217010BD6C040020000000007F
:1001F0002844000808B5064B1BB106480649AFF372
:1002000000800648016811B1054A02B1904708BD57
:10021000000000002844000870040020640400204E
:1002200000000000154B002B08BF134B9D46A3F5A3
:10023000803A00218B460F461348144A121A03F0E5
:1002400067FE0F4B002B00D098470E4B002B00D0C1
:1002500098470020002104460D4600200C4900224A
:10026000002303F07DFD03F009FE2046294600F03F
:1002700071F803F0CBFD00BF000008000000000093
:1002800000000000000000006C0400209804002022
:100290002D3E000880B483B000AF03463960FB7187
:1002A00097F90730002B10DA4FF46D43CEF20003BC
:1002B000FA7902F00F02A2F104013A68D2B24FEAD1
:1002C0000212D2B25B181A760DE04FF46143CEF2FF
:1002D000000397F907103A68D2B24FEA0212D2B27D
:1002E0005B1883F8002307F10C07BD4680BC7047FC
:1002F00080B582B000AF78607A686FF07F439A4231
:1003000002D94FF001031FE04EF21003CEF20003BA
:100310007A6822F07F4202F1FF325A604FF0FF30DC
:100320004FF00F01FFF7B6FF4EF21003CEF20003BD
:100330004FF000029A604EF21003CEF200034FF02D
:1003400007021A604FF00003184607F10807BD4680
:1003500080BD00BF80B584B000AF4FF010004FF0FB
:10036000010100F057FF07F10403184601F0EAFB12
:100370004FF40273BB804FF01003FB714FF0030387
:10038000BB7107F104034FF48050C4F20100194619
:1003900001F080FA4FF44050C4F2010000F0E8F898
:1003A0004FF48050C4F201004FF0080101F098FDB5
:1003B00040F21803C2F200031A6844F6D353C1F2A4
:1003C0006203A3FB02134FEA93131846FFF790FF53
:1003D0000346002B00D0FEE74FF4FA6000F092F8DD
:1003E0004FF00003FB6065E04FF00003BB6013E0DB
:1003F000FB68DBB24FEA8303DAB2BB68DBB2D31827
:10040000DAB240F29443C2F20003B9685B181A7082
:10041000BB6803F10103BB60BB68032BE8DD4FF44D
:100420008050C4F201004FF008014FF0000201F0CB
:10043000FBFD4FF44050C4F2010040F29041C2F283
:10044000000140F29442C2F200024FF0040300F0B7
:100450000FF94FF48050C4F201004FF008014FF043
:10046000010201F0E1FD4FF00003BB601BE040F230
:100470009043C2F20003BA689B181A7840F2944382
:10048000C2F20003B9685B181B789A4207D044F2A5
:10049000E820C0F600004FF0270100F063F8BB68C9
:1004A00003F10103BB60BB68032BE0DDFB6803F1D4
:1004B0000103FB60FB68072B96DD40F28C43C2F220
:1004C00000031B68002B0CBF00230123DBB24FF499
:1004D0008050C4F201004FF400711A4601F0A4FDEF
:1004E00040F28C43C2F200031B68C3F1010240F2E8
:1004F0008C43C2F200031A604FF0FA0000F002F8D9
:10050000DBE700BF80B483B000AF786040F288437F
:10051000C2F200037A681A6000BF40F28843C2F258
:1005200000031B68002BF8D107F10C07BD4680BC07
:10053000704700BF80B400AF40F28843C2F20003AE
:100540001B68002B0BD040F28843C2F200031B68EB
:1005500003F1FF3240F28843C2F200031A60BD4645
:1005600080BC704780B483B000AF78603960FEE72C
:1005700080B588B000AF78607A684FF44053C4F219
:1005800001039A4247D141F205004FF0010100F00A
:1005900041FE07F11C03184601F0D4FA4FF0200386
:1005A000BB834FF01803FB774FF00303BB7707F1D2
:1005B0001C034FF40060C4F20100194601F06AF90F
:1005C00007F11C03184601F0BDFA4FF04003BB834E
:1005D0004FF04803FB7707F11C034FF40060C4F2AF
:1005E0000100194601F056F907F11C03184601F005
:1005F000A9FA4FF08003BB834FF01803FB774FF04D
:100600000303BB7707F11C034FF40060C4F2010041
:10061000194601F03FF907F10803184602F062FCA1
:100620004FF000033B814FF482737B814FF0000356
:10063000BB814FF00003FB814FF000033B824FF47E
:1006400000737B824FF01003BB824FF007033B83A4
:1006500007F108037868194602F0A4F978684FF0AA
:10066000010102F08FFC07F12007BD4680BD00BFED
:1006700080B586B000AFF860B9607A603B604FF03B
:1006800000037B6131E07B68002B0AD07B681B781C
:100690007A6802F101027A60F868194602F0CEFD2C
:1006A00004E0F8684FF0FF0102F0C8FD00BFF868F1
:1006B0004FF0010103F028F80346002BF7D0BB6888
:1006C000002B0BD0F86802F0E3FD0346DAB2BB68FA
:1006D0001A70BB6803F10103BB6002E0F86802F026
:1006E000D7FD7B6903F101037B617A693B689A421C
:1006F000C9DB7B69184607F11807BD4680BD00BFFE
:1007000080B400AF4FF48053C4F202034FF4805220
:10071000C4F20202126842F001021A604FF48052E1
:10072000C4F202024FF48053C4F2020359684FF03E
:100730000003CFF6FF030B4053604FF48053C4F225
:1007400002034FF48052C4F20202126822F0847253
:1007500022F480321A604FF48053C4F202034FF443
:100760008052C4F20202126822F480221A604FF40E
:100770008053C4F202034FF48052C4F20202526862
:1007800022F4FE025A604FF48053C4F202034FF485
:100790001F029A604FF48053C4F202034FF000022C
:1007A000DA62BD4680BC704780B582B000AF786029
:1007B0007B68002B0FD07B68B3F5803F0BD07B6844
:1007C000B3F5802F07D044F2F420C0F600004FF4B8
:1007D0008D71FFF7C7FE4FF48053C4F202034FF44C
:1007E0008052C4F20202126822F480321A604FF47E
:1007F0008053C4F202034FF48052C4F20202126822
:1008000022F480221A607B68B3F5803F03D0B3F5F1
:10081000802F0DD019E04FF48053C4F202034FF43F
:100820008052C4F20202126842F480321A600DE073
:100830004FF48053C4F202034FF48052C4F2020218
:10084000126842F4A0221A6000E000BF07F1080716
:10085000BD4680BD80B582B000AF4FF000033B6065
:100860004FF00003FB714FF00003BB714FF03100FC
:1008700000F05AFE0346BB713B6803F101033B6085
:100880003B68B3F5A06F02D0BB79002BEED04FF0E0
:10089000310000F049FE0346002B03D04FF0010366
:1008A000FB7102E04FF00003FB71FB79184607F182
:1008B0000807BD4680BD00BF80B584B000AF0346C9
:1008C000FB714FF00003FB60FB791F2B07D944F24B
:1008D000F420C0F6000040F25B11FFF743FE4FF436
:1008E0008053C4F202031B68FB60FB6823F0F8032B
:1008F000FB60FB794FEAC303FA681343FB604FF4D4
:100900008053C4F20203FA681A6007F11007BD466B
:1009100080BD00BF80B582B000AF0346FB71FB799C
:10092000002B0AD0FB79012B07D044F2F420C0F64B
:1009300000004FF4B771FFF715FE4FF00003C4F24B
:100940004223FA791A6007F10807BD4680BD00BF4F
:1009500080B584B000AF786039604FF00003FB6071
:100960007B68002B0BD07B68B3F5803F07D044F247
:10097000F420C0F600004FF4C471FFF7F3FD3B68AC
:10098000002B3FD03B68B3F5802F3BD03B68B3F5DD
:10099000002F37D03B68B3F5402F33D03B68B3F519
:1009A000801F2FD03B68B3F5A01F2BD03B68B3F559
:1009B000C01F27D03B68B3F5E01F23D03B68B3F5D9
:1009C000001F1FD03B68B3F5101F1BD03B68B3F569
:1009D000201F17D03B68B3F5301F13D03B68B3F529
:1009E000401F0FD03B68B3F5501F0BD03B68B3F5E9
:1009F000601F07D044F2F420C0F6000040F28911D5
:100A0000FFF7B0FD4FF48053C4F202035B68FB6054
:100A1000FB6823F47413FB607A683B681343FA683D
:100A20001343FB604FF48053C4F20203FA685A6028
:100A300007F11007BD4680BD80B582B000AF034608
:100A4000FB71FB79002B0AD0FB79012B07D044F214
:100A5000F420C0F6000040F29D11FFF783FD4FF037
:100A60006003C4F24223FA791A6007F10807BD4611
:100A700080BD00BF80B584B000AF786039604FF0B2
:100A80000003FB607B68002B07D044F2F420C0F623
:100A900000004FF4DC71FFF765FD3B68002B34D09C
:100AA0003B68012B31D03B68022B2ED03B68032BD7
:100AB0002BD03B68042B28D03B68052B25D03B6806
:100AC000062B22D03B68072B1FD03B68082B1CD07D
:100AD0003B68092B19D03B680A2B16D03B680B2BBF
:100AE00013D03B680C2B10D03B680D2B0DD03B680E
:100AF0000E2B0AD03B680F2B07D044F2F420C0F62F
:100B0000000040F2B911FFF72DFD4FF48053C4F2FD
:100B10000203DB6AFB60FB6823F4803323F00F03DE
:100B2000FB607A683B681343FA681343FB604FF439
:100B30008053C4F20203FA68DA6207F11007BD4677
:100B400080BD00BF80B584B000AF78604FF0000377
:100B5000FB607B68002B0DD07B68012B0AD07B6883
:100B6000022B07D044F2F420C0F6000040F24121ED
:100B7000FFF7F8FC4FF48053C4F202035B68FB609C
:100B8000FB6823F00303FB60FA687B681343FB6098
:100B90004FF48053C4F20203FA685A6007F1100759
:100BA000BD4680BD80B400AF4FF48053C4F2020351
:100BB0005B68DBB203F00C03DBB21846BD4680BCB9
:100BC000704700BF80B584B000AF78604FF000037D
:100BD000FB607B68002B1FD07B68802B1CD07B6860
:100BE000902B19D07B68A02B16D07B68B02B13D02C
:100BF0007B68C02B10D07B68D02B0DD07B68E02B9E
:100C00000AD07B68F02B07D044F2F420C0F6000035
:100C100040F26D21FFF7A6FC4FF48053C4F20203AB
:100C20005B68FB60FB6823F0F003FB60FA687B689D
:100C30001343FB604FF48053C4F20203FA685A6016
:100C400007F11007BD4680BD80B584B000AF786065
:100C50004FF00003FB607B68002B17D07B68B3F577
:100C6000806F13D07B68B3F5A06F0FD07B68B3F5AE
:100C7000C06F0BD07B68B3F5E06F07D044F2F4206F
:100C8000C0F6000040F28721FFF76CFC4FF4805360
:100C9000C4F202035B68FB60FB6823F4E063FB6063
:100CA000FA687B681343FB604FF48053C4F202037D
:100CB000FA685A6007F11007BD4680BD80B584B060
:100CC00000AF78604FF00003FB607B68002B17D00B
:100CD0007B68B3F5806F13D07B68B3F5A06F0FD03E
:100CE0007B68B3F5C06F0BD07B68B3F5E06F07D0BE
:100CF00044F2F420C0F6000040F2A121FFF732FCDC
:100D00004FF48053C4F202035B68FB60FB6823F47A
:100D10006053FB607B684FEAC303FA681343FB60D0
:100D20004FF48053C4F20203FA685A6007F11007C7
:100D3000BD4680BD80B582B000AF02460B46FA7159
:100D4000BB71FB7903F0E003002B02D1FB79002B90
:100D500007D144F2F420C0F600004FF43271FFF7DF
:100D600001FCBB79002B0AD0BB79012B07D044F2E0
:100D7000F420C0F6000040F2C921FFF7F3FBBB7975
:100D8000002B0ED041F20903C4F2020341F2090222
:100D9000C4F202021278D1B2FA790A43D2B21A70BE
:100DA00010E041F20903C4F2020341F20902C4F265
:100DB00002021278D1B2FA796FEA0202D2B20A4084
:100DC000D2B21A7007F10807BD4680BD80B582B067
:100DD00000AF78607B68002B0AD07B68012B07D0BE
:100DE00044F2F420C0F600004FF43971FFF7BAFB6B
:100DF0004FF0D803C4F242237A681A6007F108075B
:100E0000BD4680BD80B584B000AF78604FF0000370
:100E1000FB607B68002B13D07B68B3F5804F0FD04D
:100E20007B68B3F5004F0BD07B68B3F5404F07D01C
:100E300044F2F420C0F6000040F20B31FFF792FBC1
:100E40004FF48053C4F202035B68FB60FB6823F439
:100E50004043FB60FA687B681343FB604FF48053A8
:100E6000C4F20203FA685A6007F11007BD4680BD5C
:100E700080B582B000AF0346FB71FB79002B0DD02B
:100E8000FB79012B0AD0FB79042B07D044F2F42024
:100E9000C0F6000040F24931FFF764FB4FF4815384
:100EA000C4F202034FF000021A704FF48153C4F2EF
:100EB00002034FF000021A70FB79012B02D0042BC1
:100EC00008D00FE04FF48153C4F202034FF0010247
:100ED0001A7008E04FF48153C4F202034FF0050288
:100EE0001A7000E000BF07F10807BD4680BD00BFD3
:100EF00080B582B000AF0346FB71FB79002B0AD0AE
:100F0000FB79012B07D044F2F420C0F6000040F238
:100F10006A31FFF727FB4FF49063C4F24223FA795A
:100F20001A6007F10807BD4680BD00BF80B582B0DA
:100F300000AF78607B68B3F5807F0FD07B68B3F536
:100F4000007F0BD07B68B3F5407F07D044F2F420DC
:100F5000C0F6000040F27B31FFF704FB4FF48053F2
:100F6000C4F202034FF48052C4F20202116A7A689A
:100F70000A431A6207F10807BD4680BD80B582B0FA
:100F800000AF0346FB71FB79002B0AD0FB79012BE4
:100F900007D044F2F420C0F6000040F28931FFF798
:100FA000E1FA40F23C43C4F24223FA791A6007F1B5
:100FB0000807BD4680BD00BF80B489B000AF78602F
:100FC0004FF00003FB614FF00003BB614FF00003E3
:100FD0007B614FF000033B614FF00003FB604FF477
:100FE0008053C4F202035B6803F00C03FB61FB69EE
:100FF000042B0AD0082B0FD0002B47D17A684FF46E
:101000009053C0F27A03136047E07A684FF490532C
:10101000C0F27A03136040E04FF48053C4F202033D
:101020005B6803F47013BB614FF48053C4F2020396
:101030005B6803F480337B61BB694FEA934303F140
:101040000203BB617B69002B09D1BA694FF41063BD
:10105000C0F23D0303FB02F27B681A601DE04FF40F
:101060008053C4F20203DB6A03F00F0303F10103B0
:10107000FB604FF49053C0F27A03FA68B3FBF2F3CB
:10108000BA6902FB03F27B681A6006E07A684FF4E3
:101090009053C0F27A03136000BF4FF48053C4F240
:1010A00002035B6803F0F003FB61FB694FEA131373
:1010B000FB6140F20403C2F20003FA699B181B783B
:1010C000DBB23B617B681A683B6922FA03F27B68FA
:1010D0005A604FF48053C4F202035B6803F4E06388
:1010E000FB61FB694FEA1323FB6140F20403C2F288
:1010F0000003FA699B181B78DBB23B617B685A6876
:101100003B6922FA03F27B689A604FF48053C4F281
:1011100002035B6803F46053FB61FB694FEAD3236E
:10112000FB6140F20403C2F20003FA699B181B78CA
:10113000DBB23B617B685A683B6922FA03F27B6849
:10114000DA604FF48053C4F202035B6803F4404357
:10115000FB61FB694FEA9333FB6140F21403C2F277
:101160000003FA699B181B78DBB23B617B68DA6885
:101170003B69B2FBF3F27B681A6107F12407BD46B5
:1011800080BC704780B582B000AF78600B46FB70C2
:101190007B6823F4AA6323F00703002B02D17B684A
:1011A000002B07D144F2F420C0F6000040F2324197
:1011B000FFF7D8F9FB78002B0AD0FB78012B07D07A
:1011C00044F2F420C0F6000040F23341FFF7CAF9C0
:1011D000FB78002B0CD04FF48053C4F202034FF481
:1011E0008052C4F2020251697A680A435A610DE0E2
:1011F0004FF48053C4F202034FF48052C4F202024F
:1012000051697A686FEA02020A405A6107F10807D9
:10121000BD4680BD80B582B000AF78600B46FB70E4
:101220007A684FF00203CFF6C0731340002B02D14F
:101230007B68002B07D144F2F420C0F6000040F296
:101240005141FFF78FF9FB78002B0AD0FB78012B77
:1012500007D044F2F420C0F6000040F25241FFF7FC
:1012600081F9FB78002B0CD04FF48053C4F20203B9
:101270004FF48052C4F2020291697A680A439A617B
:101280000DE04FF48053C4F202034FF48052C4F2D5
:10129000020291697A686FEA02020A409A6107F1D4
:1012A0000807BD4680BD00BF80B582B000AF786042
:1012B0000B46FB707A684FF45853C8F20113134081
:1012C000002B02D17B68002B07D144F2F420C0F63A
:1012D00000004FF48E61FFF745F9FB78002B0AD030
:1012E000FB78012B07D044F2F420C0F6000040F256
:1012F0007141FFF737F9FB78002B0CD04FF4805386
:10130000C4F202034FF48052C4F20202D1697A6837
:101310000A43DA610DE04FF48053C4F202034FF444
:101320008052C4F20202D1697A686FEA02020A406E
:10133000DA6107F10807BD4680BD00BF80B582B005
:1013400000AF78600B46FB707A684FF00203CFF66F
:10135000C0731340002B02D17B68002B07D144F2ED
:10136000F420C0F6000040F2AB41FFF7FBF8FB7839
:10137000002B0AD0FB78012B07D044F2F420C0F6F2
:10138000000040F2AC41FFF7EDF8FB78002B0CD0E9
:101390004FF48053C4F202034FF48052C4F20202AD
:1013A000D1687A680A43DA600DE04FF48053C4F2E2
:1013B00002034FF48052C4F20202D1687A686FEAE5
:1013C00002020A40DA6007F10807BD4680BD00BF8F
:1013D00080B582B000AF78600B46FB707A684FF43E
:1013E0005853C8F201131340002B02D17B68002B25
:1013F00007D144F2F420C0F6000040F2CA41FFF7E2
:10140000B1F8FB78002B0AD0FB78012B07D044F20F
:10141000F420C0F6000040F2CB41FFF7A3F8FB78C0
:10142000002B0CD04FF48053C4F202034FF48052CF
:10143000C4F2020211697A680A431A610DE04FF49E
:101440008053C4F202034FF48052C4F202021169C5
:101450007A686FEA02020A401A6107F10807BD467E
:1014600080BD00BF80B582B000AF0346FB71FB7941
:10147000002B0AD0FB79012B07D044F2F420C0F6F0
:10148000000040F2DF41FFF76DF84FF48863C4F2CB
:101490004223FA791A6007F10807BD4680BD00BFF4
:1014A00080B582B000AF0346FB71FB79002B0AD0F8
:1014B000FB79012B07D044F2F420C0F6000040F283
:1014C000EC41FFF74FF84FF04C03C4F24223FA7996
:1014D0001A6007F10807BD4680BD00BF80B582B025
:1014E00000AF0346FB71FB79002B13D0FB79052B72
:1014F00010D0FB79042B0DD0FB79062B0AD0FB7999
:10150000072B07D044F2F420C0F6000040F20C5143
:10151000FFF728F841F20703C4F20203FA791A70C0
:1015200007F10807BD4680BD80B586B000AF034611
:10153000FB714FF00003FB604FF000037B614FF045
:101540000003FB74FB79212B25D0FB79312B22D0B2
:10155000FB79392B1FD0FB79412B1CD0FB79612BF8
:1015600019D0FB797A2B16D0FB797B2B13D0FB7922
:101570007C2B10D0FB797D2B0DD0FB797E2B0AD0F4
:10158000FB797F2B07D044F2F420C0F6000040F234
:101590003B51FEF7E7FFFB794FEA5313DBB2FB60E9
:1015A000FB68012B06D14FF48053C4F202031B6881
:1015B0007B610FE0FB68022B06D14FF48053C4F22D
:1015C00002031B6A7B6105E04FF48053C4F20203FF
:1015D0005B6A7B61FB7903F01F03FB60FB687A6940
:1015E00022FA03F303F00103002B03D04FF00103B1
:1015F000FB7402E04FF00003FB74FB7C184607F11C
:101600001807BD4680BD00BF80B400AF4FF48053C3
:10161000C4F202034FF48052C4F20202526A42F052
:1016200080725A62BD4680BC704700BF80B584B0EE
:1016300000AF0346FB714FF00003FB73FB79012BF6
:1016400016D0FB79022B13D0FB79042B10D0FB7939
:10165000082B0DD0FB79102B0AD0FB79802B07D0FB
:1016600044F2F420C0F6000040F28551FEF77AFF04
:101670004FF48053C4F202039A68FB791340002BA5
:1016800003D04FF00103FB7302E04FF00003FB7344
:10169000FB7B184607F11007BD4680BD80B582B0C0
:1016A00000AF0346FB71FB7903F06003002B02D10E
:1016B000FB79002B07D144F2F420C0F6000040F281
:1016C000B251FEF74FFF41F20A03C4F20203FA7966
:1016D0001A7007F10807BD4680BD00BF80B582B013
:1016E00000AF78607A684FF40063C4F201039A4255
:1016F00031D07A684FF44063C4F201039A422AD091
:101700007A684FF48053C4F201039A4223D07A6876
:101710004FF4A053C4F201039A421CD07A684FF4EC
:10172000C053C4F201039A4215D07A684FF4E053D3
:10173000C4F201039A420ED07A684FF40053C4F207
:1017400001039A4207D044F25030C0F600004FF037
:101750006E01FEF707FF7A684FF40063C4F20103DD
:101760009A420CD14FF004004FF00101FFF7E6FD63
:101770004FF004004FF00001FFF7E0FD76E07A68DB
:101780004FF44063C4F201039A420CD14FF00800B9
:101790004FF00101FFF7D2FD4FF008004FF00001BC
:1017A000FFF7CCFD62E07A684FF48053C4F2010386
:1017B0009A420CD14FF010004FF00101FFF7BEFD2F
:1017C0004FF010004FF00001FFF7B8FD4EE07A68CF
:1017D0004FF4A053C4F201039A420CD14FF0200001
:1017E0004FF00101FFF7AAFD4FF020004FF000017C
:1017F000FFF7A4FD3AE07A684FF4C053C4F2010346
:101800009A420CD14FF040004FF00101FFF796FDD6
:101810004FF040004FF00001FFF790FD26E07A689E
:101820004FF4E053C4F201039A420CD14FF0800010
:101830004FF00101FFF782FD4FF080004FF00001F3
:10184000FFF77CFD12E07A684FF40053C4F2010305
:101850009A420BD14FF480704FF00101FFF76EFDFB
:101860004FF480704FF00001FFF768FD07F10807A3
:10187000BD4680BD80B500AF4FF001004FF00101C3
:10188000FFF75CFD4FF001004FF00001FFF756FD40
:1018900080BD00BF80B588B000AF786039604FF080
:1018A0000003FB614FF000033B614FF00003BB619D
:1018B0004FF00003FB604FF000037B614FF000032B
:1018C000BB607A684FF40063C4F201039A4231D0DE
:1018D0007A684FF44063C4F201039A422AD07A68CE
:1018E0004FF48053C4F201039A4223D07A684FF434
:1018F000A053C4F201039A421CD07A684FF4C0533B
:10190000C4F201039A4215D07A684FF4E053C4F24E
:1019100001039A420ED07A684FF40053C4F20103D7
:101920009A4207D044F25030C0F600004FF0B101A7
:10193000FEF718FE3B68DB78002B23D03B68DB7892
:10194000042B1FD03B68DB78282B1BD03B68DB784F
:10195000482B17D03B68DB78142B13D03B68DB781F
:10196000102B0FD03B68DB781C2B0BD03B68DB784F
:10197000182B07D044F25030C0F600004FF0B201EF
:10198000FEF7F0FD3B681B88002B07D144F2503076
:10199000C0F600004FF0B301FEF7E4FD3B68DB78D2
:1019A00003F00F03FB613B68DB7803F01003002BAF
:1019B00018D03B689B78012B0FD03B689B78022B9B
:1019C0000BD03B689B78032B07D044F25030C0F615
:1019D00000004FF0BA01FEF7C5FD3B689B78FA693D
:1019E0001343FB613B681B88DBB2002B4ED07B6846
:1019F0001B687B614FF00003BB6141E0BB694FF0A6
:101A0000010202FA03F3FB603B681B881A46FB687D
:101A100013403B613A69FB689A422DD1BB694FEA9A
:101A20008303FB60FB684FF00F0202FA03F3BB6015
:101A3000BB686FEA03037A6913407B61FB68FA694C
:101A400002FA03F37A6913437B613B68DB78282B46
:101A500007D1BB694FF0010202FA03F27B685A61B9
:101A60000AE03B68DB78482B06D1BB694FF00102E6
:101A700002FA03F27B681A61BB6903F10103BB61DF
:101A8000BB69072BBAD97B687A691A603B681B88E7
:101A9000FF2B53D97B685B687B614FF00003BB6110
:101AA00046E0BB6903F108034FF0010202FA03F3B9
:101AB000FB603B681B881A46FB6813403B613A6930
:101AC000FB689A4230D1BB694FEA8303FB60FB6835
:101AD0004FF00F0202FA03F3BB60BB686FEA030327
:101AE0007A6913407B61FB68FA6902FA03F37A6949
:101AF00013437B613B68DB78282B08D1BB6903F17A
:101B000008034FF0010202FA03F27B685A613B6856
:101B1000DB78482B08D1BB6903F108034FF00102C1
:101B200002FA03F27B681A61BB6903F10103BB612E
:101B3000BB69072BB5D97B687A695A6007F1200722
:101B4000BD4680BD80B483B000AF78607B684FF63F
:101B5000FF721A807B684FF002029A707B684FF028
:101B60000402DA7007F10C07BD4680BC704700BF65
:101B700080B584B000AF78600B467B804FF00003E7
:101B8000FB737A684FF40063C4F201039A4231D0C8
:101B90007A684FF44063C4F201039A422AD07A680B
:101BA0004FF48053C4F201039A4223D07A684FF471
:101BB000A053C4F201039A421CD07A684FF4C05378
:101BC000C4F201039A4215D07A684FF4E053C4F28C
:101BD00001039A420ED07A684FF40053C4F2010315
:101BE0009A4207D044F25030C0F6000040F21D1176
:101BF000FEF7B8FC7B88012B3CD07B88022B39D0C8
:101C00007B88042B36D07B88082B33D07B88102B25
:101C100030D07B88202B2DD07B88402B2AD07B880E
:101C2000802B27D07B88B3F5807F23D07B88B3F5CA
:101C3000007F1FD07B88B3F5806F1BD07B88B3F506
:101C4000006F17D07B88B3F5805F13D07B88B3F526
:101C5000005F0FD07B88B3F5804F0BD07B88B3F546
:101C6000004F07D044F25030C0F600004FF48F719F
:101C7000FEF778FC7B689A687B881340002B03D0C2
:101C80004FF00103FB7302E04FF00003FB73FB7B9B
:101C9000184607F11007BD4680BD00BF80B582B071
:101CA00000AF78607A684FF40063C4F201039A428F
:101CB00031D07A684FF44063C4F201039A422AD0CB
:101CC0007A684FF48053C4F201039A4223D07A68B1
:101CD0004FF4A053C4F201039A421CD07A684FF427
:101CE000C053C4F201039A4215D07A684FF4E0530E
:101CF000C4F201039A420ED07A684FF40053C4F242
:101D000001039A4207D044F25030C0F6000040F27E
:101D10003311FEF727FC7B689B689BB2184607F1DE
:101D20000807BD4680BD00BF80B584B000AF7860B5
:101D30000B467B804FF00003FB737A684FF400631F
:101D4000C4F201039A4231D07A684FF44063C4F27E
:101D500001039A422AD07A684FF48053C4F20103F7
:101D60009A4223D07A684FF4A053C4F201039A42F6
:101D70001CD07A684FF4C053C4F201039A4215D0C4
:101D80007A684FF4E053C4F201039A420ED07A68A5
:101D90004FF40053C4F201039A4207D044F250308A
:101DA000C0F6000040F24311FEF7DCFB7B88012BFC
:101DB0003CD07B88022B39D07B88042B36D07B88A3
:101DC000082B33D07B88102B30D07B88202B2DD054
:101DD0007B88402B2AD07B88802B27D07B88B3F54B
:101DE000807F23D07B88B3F5007F1FD07B88B3F53D
:101DF000806F1BD07B88B3F5006F17D07B88B3F55D
:101E0000805F13D07B88B3F5005F0FD07B88B3F57C
:101E1000804F0BD07B88B3F5004F07D044F2503091
:101E2000C0F600004FF4A271FEF79CFB7B68DA68F5
:101E30007B881340002B03D04FF00103FB7302E0BB
:101E40004FF00003FB73FB7B184607F11007BD46FC
:101E500080BD00BF80B582B000AF78607A684FF473
:101E60000063C4F201039A4231D07A684FF44063B0
:101E7000C4F201039A422AD07A684FF48053C4F224
:101E800001039A4223D07A684FF4A053C4F20103AD
:101E90009A421CD07A684FF4C053C4F201039A42AC
:101EA00015D07A684FF4E053C4F201039A420ED081
:101EB0007A684FF40053C4F201039A4207D044F207
:101EC0005030C0F6000040F25911FEF74BFB7B6822
:101ED000DB689BB2184607F10807BD4680BD00BF0E
:101EE00080B582B000AF78600B467B807A684FF493
:101EF0000063C4F201039A4231D07A684FF4406320
:101F0000C4F201039A422AD07A684FF48053C4F293
:101F100001039A4223D07A684FF4A053C4F201031C
:101F20009A421CD07A684FF4C053C4F201039A421B
:101F300015D07A684FF4E053C4F201039A420ED0F0
:101F40007A684FF40053C4F201039A4207D044F276
:101F50005030C0F600004FF4B471FEF703FB7B88ED
:101F6000002B07D144F25030C0F6000040F2691156
:101F7000FEF7F8FA7A887B681A6107F10807BD4610
:101F800080BD00BF80B582B000AF78600B467B801B
:101F90007A684FF40063C4F201039A4231D07A6840
:101FA0004FF44063C4F201039A422AD07A684FF496
:101FB0008053C4F201039A4223D07A684FF4A053AD
:101FC000C4F201039A421CD07A684FF4C053C4F2A1
:101FD00001039A4215D07A684FF4E053C4F201032A
:101FE0009A420ED07A684FF40053C4F201039A4229
:101FF00007D044F25030C0F600004FF4BC71FEF739
:10200000B1FA7B88002B07D144F25030C0F60000B3
:1020100040F27911FEF7A6FA7A887B685A6107F1D7
:102020000807BD4680BD00BF80B582B000AF7860B4
:1020300013460A467A807B707A684FF40063C4F2D4
:1020400001039A4231D07A684FF44063C4F201032D
:102050009A422AD07A684FF48053C4F201039A421C
:1020600023D07A684FF4A053C4F201039A421CD0E3
:102070007A684FF4C053C4F201039A4215D07A68CB
:102080004FF4E053C4F201039A420ED07A684FF441
:102090000053C4F201039A4207D044F25030C0F614
:1020A00000004FF4C671FEF75DFA7B88012B3CD02F
:1020B0007B88022B39D07B88042B36D07B88082B79
:1020C00033D07B88102B30D07B88202B2DD07B8881
:1020D000402B2AD07B88802B27D07B88B3F5807F4C
:1020E00023D07B88B3F5007F1FD07B88B3F5806F4A
:1020F0001BD07B88B3F5006F17D07B88B3F5805F6A
:1021000013D07B88B3F5005F0FD07B88B3F5804F89
:102110000BD07B88B3F5004F07D044F25030C0F6A7
:10212000000040F28D11FEF71DFA7B78002B0AD0DB
:102130007B78012B07D044F25030C0F600004FF4FA
:10214000C771FEF70FFA7B78002B03D07A887B6883
:102150001A6102E07A887B685A6107F10807BD4678
:1021600080BD00BF80B582B000AF78600B467B8039
:102170007A684FF40063C4F201039A4231D07A685E
:102180004FF44063C4F201039A422AD07A684FF4B4
:102190008053C4F201039A4223D07A684FF4A053CB
:1021A000C4F201039A421CD07A684FF4C053C4F2BF
:1021B00001039A4215D07A684FF4E053C4F2010348
:1021C0009A420ED07A684FF40053C4F201039A4247
:1021D00007D044F25030C0F6000040F2A311FEF7E1
:1021E000C1F97A887B68DA6007F10807BD4680BDCF
:1021F00080B584B000AF78600B467B804FF48033AD
:10220000FB607A684FF40063C4F201039A4231D054
:102210007A684FF44063C4F201039A422AD07A6884
:102220004FF48053C4F201039A4223D07A684FF4EA
:10223000A053C4F201039A421CD07A684FF4C053F1
:10224000C4F201039A4215D07A684FF4E053C4F205
:1022500001039A420ED07A684FF40053C4F201038E
:102260009A4207D044F25030C0F600004FF4DA71C1
:10227000FEF778F97B88002B07D144F25030C0F686
:10228000000040F2B511FEF76DF97B88FA68134340
:10229000FB607B68FA689A617A887B689A617B68E0
:1022A000FA689A617B689B69FB607B689B69FB604D
:1022B00007F11007BD4680BD80B584B000AF02466F
:1022C0000B46FA71BB714FF00003FB60FB79002BEA
:1022D00013D0FB79012B10D0FB79022B0DD0FB79A9
:1022E000032B0AD0FB79042B07D044F25030C0F600
:1022F000000040F2D111FEF735F9BB79002B34D044
:10230000BB79012B31D0BB79022B2ED0BB79032BAB
:102310002BD0BB79042B28D0BB79052B25D0BB79DA
:10232000062B22D0BB79072B1FD0BB79082B1CD0E2
:10233000BB79092B19D0BB790A2B16D0BB790B2B93
:1023400013D0BB790C2B10D0BB790D2B0DD0BB79E2
:102350000E2B0AD0BB790F2B07D044F25030C0F6B9
:1023600000004FF4E971FEF7FDF84FF00003C4F2EE
:1023700001031B68FB60FA684FF680731340FB6033
:10238000FB794FEA0313FA681343FB60BB79FA68E1
:102390001343FB604FF00003C4F20103FA681A60B4
:1023A00007F11007BD4680BD80B582B000AF03467F
:1023B000FB71FB79002B0AD0FB79012B07D044F28B
:1023C0005030C0F6000040F2E511FEF7CBF84FF0B8
:1023D0001C03C4F22023FA791A6007F10807BD46EE
:1023E00080BD00BF80B586B000AF78600B46FB7043
:1023F0004FF000033B614FF00003FB604FF0000320
:102400007B614FF00003BB607B68012B00F01881FB
:102410007B68022B00F014817B68042B00F0108194
:102420007B68082B00F00C817A684FF01003C0F233
:1024300014039A4200F004817A684FF03003C0F22E
:1024400014039A4200F0FC807A684FF04003C0F217
:1024500016039A4200F0F4807A684FF0C003C0F28D
:1024600016039A4200F0EC807A684FF48073C0F251
:1024700018039A4200F0E4807A684FF40073C0F2C7
:1024800018039A4200F0DC807A684FF44073C0F27F
:1024900018039A4200F0D4807A684FF40063C0F2C7
:1024A0001A039A4200F0CC807A684FF44063C0F27D
:1024B0001A039A4200F0C4807B68B3F5805F00F095
:1024C000BF807B68B3F5EA1F00F0BA807B68B3F584
:1024D000EB1F00F0B5807B68B3F5004F00F0B080D3
:1024E0007A684FF00103C0F220039A4200F0A880FE
:1024F0007A684FF00203C0F220039A4200F0A080F5
:102500007A684FF00403C0F220039A4200F09880EA
:102510007A684FF00803C0F220039A4200F09080DE
:102520007A684FF01003C0F220039A4200F08880CE
:102530007B68B3F1201F00F083807A684FF040037E
:10254000C0F220039A427BD07A684FF48073C0F2C5
:1025500030039A4274D07A684FF40073C0F23003AB
:102560009A426DD07A684FF48063C0F230039A4289
:1025700066D07A684FF48053C0F220039A425FD04D
:102580007A684FF40053C0F220039A4258D07B6817
:10259000B3F5011F54D07A684FF00103C8F200036D
:1025A0009A424DD07A684FF00203C8F200039A4273
:1025B00046D07A684FF00403C8F200039A423FD035
:1025C0007A684FF00803C8F200039A4238D07A685C
:1025D0004FF01003C8F200039A4231D07A684FF0EE
:1025E0002003C8F200039A422AD07A684FF04003D1
:1025F000C8F200039A4223D07A684FF08003C8F2F1
:1026000000039A421CD07A684FF48073C8F200032A
:102610009A4215D07A684FF40073C8F200039A42C8
:102620000ED07A684FF48063C8F200039A4207D054
:1026300044F25030C0F6000040F22221FDF792FF34
:10264000FB78002B0AD0FB78012B07D044F25030E6
:10265000C0F6000040F22321FDF784FF7B68002BC9
:1026600006DA4FF00003C4F20103DB697B6105E089
:102670004FF00003C4F201035B687B617B6803F4E5
:1026800070234FEA1343BB607B684FEA03434FEA72
:1026900013433B617B6803F44013B3F5401F10D133
:1026A0007B6923F070637B614FF00003C4F2010388
:1026B0004FF00002C4F20102526822F070625A60C8
:1026C00026E07B6803F48013002B10D0BB684FF02A
:1026D000030202FA03F3FB60FB686FEA03037A6903
:1026E00013407B617B6943F070637B6110E07B6822
:1026F0004FEA53534FEA03133A6902FA03F36FEABE
:1027000003037A6913407B617B6943F070637B61EB
:10271000FB78002B0AD07B684FEA53534FEA031330
:102720003A6902FA03F37A6913437B617B68002BF1
:1027300006DA4FF00003C4F201037A69DA6105E0BA
:102740004FF00003C4F201037A695A6007F11807D9
:10275000BD4680BD90B585B000AF02460B46FA710C
:10276000BB714FF00003FB60FB79002B19D0FB79A4
:10277000012B16D0FB79022B13D0FB79032B10D041
:10278000FB79042B0DD0FB79052B0AD0FB79062BA6
:1027900007D044F25030C0F6000040F25D21FDF752
:1027A000E1FEBB79002B34D0BB79012B31D0BB7952
:1027B000022B2ED0BB79032B2BD0BB79042B28D036
:1027C000BB79052B25D0BB79062B22D0BB79072BF3
:1027D0001FD0BB79082B1CD0BB79092B19D0BB7932
:1027E0000A2B16D0BB790B2B13D0BB790C2B10D036
:1027F000BB790D2B0DD0BB790E2B0AD0BB790F2BDB
:1028000007D044F25030C0F6000040F25E21FDF7E0
:10281000A9FEBB7903F003034FEA83034FF00F02D5
:1028200002FA03F3FB604FF00003C4F20103BA792C
:102830004FEA9202D2B210464FF00002C4F20102F7
:10284000B9794FEA9101C9B201F1020152F82110A0
:10285000FA686FEA0202114000F1020243F8221006
:102860004FF00003C4F20103BA794FEA9202D2B2E8
:1028700010464FF00002C4F20102B9794FEA91010B
:10288000C9B201F1020152F82110FC79BA7902F0C3
:1028900003024FEA820204FA02F2114300F102023B
:1028A00043F8221007F11407BD4690BD80B582B0F1
:1028B00000AF78607B68002B0AD07B68012B07D0C3
:1028C00044F25030C0F600004FF41C71FDF74AFE90
:1028D0004FF0DC03C4F220237A681A6007F108077E
:1028E000BD4680BD80B582B000AF78607A684FF495
:1028F0004053C4F201039A4215D07A684FF46053F2
:10290000C4F200039A420ED07A684FF47053C4F2B6
:1029100000039A4207D044F2AC30C0F600004FF0FA
:102920007901FDF71FFE7A684FF44053C4F20103AA
:102930009A420CD14FF480504FF00101FEF7FEFC9B
:102940004FF480504FF00001FEF7F8FC26E07A6863
:102950004FF46053C4F200039A420CD14FF480400C
:102960004FF00101FEF734FD4FF480404FF00001BD
:10297000FEF72EFD12E07A684FF47053C4F20003A4
:102980009A420BD14FF400404FF00101FEF720FDB9
:102990004FF400404FF00001FEF71AFD07F1080761
:1029A000BD4680BD80B584B000AF786039604FF01F
:1029B0000003FB817A684FF44053C4F201039A424A
:1029C00015D07A684FF46053C4F200039A420ED0D7
:1029D0007A684FF47053C4F200039A4207D044F26D
:1029E000AC30C0F600004FF0A201FDF7BBFD3B6824
:1029F0001B88002B16D03B681B88B3F5806F11D065
:102A00003B681B88B3F5004F0CD03B681B88B3F5BF
:102A1000404F07D044F2AC30C0F600004FF0A501A3
:102A2000FDF7A0FD3B685B88B3F5827F0BD03B6868
:102A30005B88002B07D044F2AC30C0F600004FF0AA
:102A4000A601FDF78FFD3B689B88B3F5006F0BD0A7
:102A50003B689B88002B07D044F2AC30C0F60000E6
:102A60004FF0A701FDF77EFD3B68DB88002B0BD004
:102A70003B68DB88022B07D044F2AC30C0F6000084
:102A80004FF0A801FDF76EFD3B681B89002B0BD0B2
:102A90003B681B89012B07D044F2AC30C0F6000024
:102AA0004FF0A901FDF75EFD3B685B89B3F5007F40
:102AB0000BD03B685B89002B07D044F2AC30C0F6EA
:102AC00000004FF0AA01FDF74DFD3B689B89002BEC
:102AD00023D03B689B89082B1FD03B689B89102B18
:102AE0001BD03B689B89182B17D03B689B89202BF8
:102AF00013D03B689B89282B0FD03B689B89302BD8
:102B00000BD03B689B89382B07D044F2AC30C0F621
:102B100000004FF0AB01FDF725FD3B68DB89002B82
:102B20000BD03B68DB89802B07D044F2AC30C0F679
:102B300000004FF0AC01FDF715FD3B681B8A002B30
:102B400007D144F2AC30C0F600004FF0AD01FDF704
:102B500009FD7B681B88FB81FB8903F44153FB81E2
:102B60003B681A883B685B8813439AB23B689B8832
:102B700013439AB23B68DB8813439AB23B681B89C4
:102B800013439AB23B685B8913439AB23B689B89B3
:102B900013439AB23B68DB8913439AB2FB89134310
:102BA000FB817B68FA891A807B689B8B9BB223F43C
:102BB00000639AB27B689A833B681A8A7B681A82A0
:102BC00007F11007BD4680BD80B58CB000AF7860BE
:102BD00039604FF000037B844FF00203FB854FF018
:102BE0000003BB854FF001037B854FF000037B6240
:102BF0004FF00003FB617A684FF46053C4F20003A6
:102C00009A420ED07A684FF47053C4F200039A428D
:102C100007D044F2AC30C0F600004FF0E201FDF7FF
:102C2000A1FC3B681B88002B16D03B681B88B3F5C2
:102C3000807F11D03B681B88B3F5007F0CD03B68C8
:102C40001B88B3F5407F07D044F2AC30C0F60000DB
:102C50004FF0E301FDF786FC3B685B88002B17D043
:102C60003B685B88102B13D03B685B88202B0FD010
:102C70003B685B88302B0BD03B685B88B02B07D060
:102C800044F2AC30C0F600004FF0E401FDF76AFCFE
:102C90003B689B88002B13D03B689B88012B0FD08F
:102CA0003B689B88032B0BD03B689B88052B07D088
:102CB00044F2AC30C0F600004FF0E501FDF752FCE5
:102CC0003B68DB88B3F5007F0BD03B68DB88002BCB
:102CD00007D044F2AC30C0F600004FF0E601FDF73B
:102CE00041FC3B689A684FF4EE43C0F201039A42FC
:102CF00032D03B689A684BF680339A422CD03B68BE
:102D00009A684AF644439A4226D03B689B68B3F5DA
:102D1000FA4F21D03B689A6845F222639A421BD051
:102D20003B689B68B3F57A5F16D03B689A6842F6B9
:102D300011339A4210D03B689B68B3F5FA5F0BD011
:102D40003B689B68022B07D044F2AC30C0F6000011
:102D50004FF0E701FDF706FC3B689B89002B0BD089
:102D60003B689B89082B07D044F2AC30C0F60000CA
:102D70004FF0E801FDF7F6FB7B689B8B9BB223F4D9
:102D80007B6323F00F039AB27B689A837B684FF0D2
:102D900002021A847B689B8B7B843B689B68022BB6
:102DA00006D14FF00003BB854FF00203FB8567E0BF
:102DB0003B689B88002B03D14FF001037B8502E029
:102DC0004FF002037B857A684FF46053C4F200032E
:102DD0009A4203D14FF400337B6202E04FF4802328
:102DE0007B6207F108031846FEF7E6F8BB68FB6153
:102DF0003B68DB88B3F5007F13D1FB694FEA1322F0
:102E000013464FEA83039B184FEA43031A463B6875
:102E10009B68B2FBF3F39BB203F105039BB27B62A9
:102E200015E07B8D4FEA4313FA69B2FBF3F21346C8
:102E30004FEA83039B184FEA43031A463B689B689B
:102E4000B2FBF3F39BB203F105039BB27B627A6A98
:102E50004CF6CD43CCF6CC43A3FB02134FEAD3038D
:102E60007B627B6A9BB203F00103BB85BB8D7A6AF0
:102E7000D31A4FEA5303FB85BB8D4FEA0323BB856F
:102E8000FB8D012B02D9FB8DFF2B05D94FF00203DF
:102E9000FB854FF00003BB853B68DA88BB8D13438D
:102EA0009AB2FB8D13439AB27B681A843B681A88E6
:102EB0003B6859883B6898883B689B8903439BB271
:102EC0000B439BB213439AB27B8C13439BB243F4E4
:102ED00000637B847B687A8C9A8307F13007BD4658
:102EE00080BD00BF80B483B000AF78607B684FF0D6
:102EF00000021A807B684FF000025A807B684FF016
:102F000000029A807B684FF00002DA807B684FF005
:102F100000021A817B684FF000025A817B684FF0F3
:102F200000029A817B684FF00002DA817B684FF0E3
:102F300007021A8207F10C07BD4680BC704700BF2C
:102F400080B483B000AF78607B684FF000021A80D5
:102F50007B684FF000025A807B684FF000029A8035
:102F60007B684FF00002DA807B684FF002029A60C3
:102F70007B684FF000029A8107F10C07BD4680BCC8
:102F8000704700BF80B582B000AF78600B46FB7021
:102F90007A684FF44053C4F201039A4215D07A681C
:102FA0004FF46053C4F200039A420ED07A684FF493
:102FB0007053C4F200039A4207D044F2AC30C0F61A
:102FC000000040F2AD11FDF7CDFAFB78002B0AD0DE
:102FD000FB78012B07D044F2AC30C0F600004FF470
:102FE000D771FDF7BFFAFB78002B08D07B681B88F0
:102FF0009BB243F040039AB27B681A8007E07B687B
:103000001B889BB223F040039AB27B681A8007F1B9
:103010000807BD4680BD00BF80B582B000AF7860B4
:103020000B46FB707A684FF46053C4F200039A4277
:103030000ED07A684FF47053C4F200039A4207D05E
:1030400044F2AC30C0F6000040F2C511FDF78AFA38
:10305000FB78002B0AD0FB78012B07D044F2AC3070
:10306000C0F600004FF4E371FDF77CFAFB78002B0B
:1030700008D07B689B8B9BB243F480639AB27B68D9
:103080009A8307E07B689B8B9BB223F480639AB2A0
:103090007B689A8307F10807BD4680BD80B584B080
:1030A00000AF786013460A46FA70BB704FF0000319
:1030B000FB814FF00003BB817A684FF44053C4F2A8
:1030C00001039A4215D07A684FF46053C4F20003AA
:1030D0009A420ED07A684FF47053C4F200039A42B9
:1030E00007D044F2AC30C0F6000040F2E511FDF725
:1030F00039FABB78002B0AD0BB78012B07D044F2F9
:10310000AC30C0F600004FF4F371FDF72BFAFB78FA
:10311000712B0DD0FB78602B0AD0FB78502B07D099
:1031200044F2AC30C0F6000040F2E711FDF71AFAA5
:10313000FB784FEA1313DBB2FB81FB894FF00102EE
:1031400002FA03F3BB81BB78002B08D07B689B8815
:103150009AB2BB8913439AB27B689A800AE07B6873
:103160009B889AB2BB896FEA03039BB213409AB261
:103170007B689A8007F11007BD4680BD80B582B09C
:1031800000AF786013460A467A807B707A684FF405
:103190004053C4F201039A4215D07A684FF4605349
:1031A000C4F200039A420ED07A684FF47053C4F20E
:1031B00000039A4207D044F2AC30C0F6000040F25F
:1031C0000B21FDF7CFF97B78002B0AD07B78012B00
:1031D00007D044F2AC30C0F600004FF40371FDF7A5
:1031E000C1F97A884FF6FC731340002B02D17B881B
:1031F000002B07D144F2AC30C0F6000040F20D21A4
:10320000FDF7B0F97B78002B08D07B689B889AB2D9
:103210007B8813439AB27B689A800AE07B689B881C
:103220009AB27B886FEA03039BB213409AB27B6821
:103230009A8007F10807BD4680BD00BF80B582B007
:1032400000AF78600B467B807A684FF44053C4F23D
:1032500001039A4215D07A684FF46053C4F2000318
:103260009A420ED07A684FF47053C4F200039A4227
:1032700007D044F2AC30C0F6000040F22521FDF743
:1032800071F97B687A889A8107F10807BD4680BD8D
:1032900080B582B000AF78607A684FF44053C4F2D2
:1032A00001039A4215D07A684FF46053C4F20003C8
:1032B0009A420ED07A684FF47053C4F200039A42D7
:1032C00007D044F2AC30C0F6000040F23521FDF7E3
:1032D00049F97B689B899BB2184607F10807BD46F0
:1032E00080BD00BF80B582B000AF78600B467B80A8
:1032F0007A684FF44053C4F201039A4215D07A68B9
:103300004FF46053C4F200039A420ED07A684FF42F
:103310007053C4F200039A4207D044F2AC30C0F6B6
:10332000000040F24721FDF71DF97B88B3F5807F4F
:103330000CD07A884FF6FF639A4207D044F2AC3043
:10334000C0F600004FF41271FDF70CF97A884FF6C1
:10335000FF639A4208D07B681B889BB243F480735A
:103360009AB27B681A8007E07B681B889BB223F4C3
:1033700080739AB27B681A8007F10807BD4680BD4A
:1033800080B582B000AF78600B46FB707A684FF46E
:103390004053C4F201039A4215D07A684FF4605347
:1033A000C4F200039A420ED07A684FF47053C4F20C
:1033B00000039A4207D044F2AC30C0F6000040F25D
:1033C0005F21FDF7CFF8FB78002B0AD0FB78012BAB
:1033D00007D044F2AC30C0F600004FF41871FDF78E
:1033E000C1F8FB78002B08D07B689B889BB243F028
:1033F00004039AB27B689A8007E07B689B889BB243
:1034000023F004039AB27B689A8007F10807BD464F
:1034100080BD00BF80B582B000AF78600B467B8076
:103420007A684FF44053C4F201039A4215D07A6887
:103430004FF46053C4F200039A420ED07A684FF4FE
:103440007053C4F200039A4207D044F2AC30C0F685
:10345000000040F27921FDF785F87B88B3F5006F15
:103460000AD07B88002B07D044F2AC30C0F60000B5
:1034700040F27A21FDF776F87B681B889BB223F433
:1034800000639AB27B681A807B681B889AB27B883B
:1034900013439AB27B681A8007F10807BD4680BDC6
:1034A00080B582B000AF78607A684FF44053C4F2C0
:1034B00001039A4215D07A684FF46053C4F20003B6
:1034C0009A420ED07A684FF47053C4F200039A42C5
:1034D00007D044F2AC30C0F6000040F28921FDF77D
:1034E00041F87B681B889BB243F480539AB27B6897
:1034F0001A8007F10807BD4680BD00BF80B582B0C5
:1035000000AF78600B46FB707A684FF44053C4F20A
:1035100001039A4215D07A684FF46053C4F2000355
:103520009A420ED07A684FF47053C4F200039A4264
:1035300007D044F2AC30C0F6000040F29921FDF70C
:1035400011F8FB78002B0AD0FB78012B07D044F24E
:10355000AC30C0F6000040F29A21FDF703F8FB788A
:10356000002B08D07B681B889BB243F400539AB2AF
:103570007B681A8007E07B681B889BB223F40053AA
:103580009AB27B681A8007F10807BD4680BD00BF6C
:1035900080B584B000AF78600B46FB704FF000033D
:1035A000FB817A684FF44053C4F201039A4215D06C
:1035B0007A684FF46053C4F200039A420ED07A68DE
:1035C0004FF47053C4F200039A4207D044F2AC3077
:1035D000C0F600004FF42D71FCF7C4FFFB78002B00
:1035E0000AD0FB78012B07D044F2AC30C0F60000C3
:1035F00040F2B521FCF7B6FFFB78012B03D07B68C6
:103600001B8BFB8102E07B689B8AFB81FB89184650
:1036100007F11007BD4680BD80B582B000AF78606D
:103620007A684FF44053C4F201039A4215D07A6885
:103630004FF46053C4F200039A420ED07A684FF4FC
:103640007053C4F200039A4207D044F2AC30C0F683
:1036500000004FF43371FCF785FF7B681B8A9BB237
:10366000184607F10807BD4680BD00BF80B582B08F
:1036700000AF78600B467B807A684FF44053C4F209
:1036800001039A4215D07A684FF46053C4F20003E4
:103690009A420ED07A684FF47053C4F200039A42F3
:1036A00007D044F2AC30C0F6000040F2DE21FCF757
:1036B00059FF7A884BF6FF739A420BD07B88B3F59B
:1036C000804F07D044F2AC30C0F6000040F2DF215A
:1036D000FCF748FF7B88B3F5804F08D17B681B88D7
:1036E0009BB243F480439AB27B681A8007E07B6800
:1036F0001B889BB223F480439AB27B681A8007F13F
:103700000807BD4680BD00BF80B584B000AF7860BB
:103710000B467B804FF00003FB737A684FF44053F5
:10372000C4F201039A4215D07A684FF46053C4F290
:1037300000039A420ED07A684FF47053C4F200032B
:103740009A4207D044F2AC30C0F6000040F201319A
:10375000FCF708FF7B88802B1CD07B88402B19D07E
:103760007B88202B16D07B88102B13D07B88082BCE
:1037700010D07B88042B0DD07B88022B0AD07B884D
:10378000012B07D044F2AC30C0F6000040F2023109
:10379000FCF7E8FE7B681B899AB27B8813409BB2DA
:1037A000002B03D04FF00103FB7302E04FF0000346
:1037B000FB73FB7B184607F11007BD4680BD00BFB9
:1037C00080B582B000AF78600B467B807A684FF49A
:1037D0004053C4F201039A4215D07A684FF4605303
:1037E000C4F200039A420ED07A684FF47053C4F2C8
:1037F00000039A4207D044F2AC30C0F6000040F219
:103800002631FCF7AFFE7B88102B07D044F2AC309A
:10381000C0F6000040F22731FCF7A4FE7B886FEA77
:1038200003039AB27B681A8107F10807BD4680BD81
:1038300080B584B000AF78600B46FB704FF000039A
:10384000FB734FF00003BB814FF000037B814FF00F
:1038500000033B817A684FF44053C4F201039A425B
:1038600015D07A684FF46053C4F200039A420ED028
:103870007A684FF47053C4F200039A4207D044F2BE
:10388000AC30C0F6000040F24231FCF76BFEFB7832
:10389000602B16D0FB78712B13D0FB78532B10D0F4
:1038A000FB78542B0DD0FB78552B0AD0FB78562B88
:1038B00007D044F2AC30C0F6000040F24331FCF7D0
:1038C00051FEFB7803F00F034FF0010202FA03F3FD
:1038D000BB81FB784FEA1313DBB27B817B894FF00E
:1038E000010202FA03F37B817B689B889AB27B8991
:1038F00013403B817B681B899AB2BB8913409BB202
:10390000002B06D03B89002B03D04FF00103FB7343
:1039100002E04FF00003FB73FB7B184607F1100732
:10392000BD4680BD80B584B000AF78600B46FB70AB
:103930004FF00003FB817A684FF44053C4F2010357
:103940009A4215D07A684FF46053C4F200039A4249
:103950000ED07A684FF47053C4F200039A4207D035
:1039600044F2AC30C0F6000040F27631FCF7FAFDCC
:10397000FB78542B07D044F2AC30C0F6000040F284
:103980007731FCF7EFFDFB7803F00F034FF00102F6
:1039900002FA03F3FB81FB896FEA03039AB27B68A7
:1039A0001A8107F11007BD4680BD00BF34440008EE
:1039B000000000205C0400206C040020980400201B
:1039C00080B500AF4FF48053C4F202034FF480522D
:1039D000C4F20202126842F001021A604FF48052EF
:1039E000C4F202024FF48053C4F2020359684FF04C
:1039F0000003CFF6FF030B4053604FF48053C4F233
:103A000002034FF48052C4F20202126822F0847260
:103A100022F480321A604FF48053C4F202034FF450
:103A20008052C4F20202126822F480221A604FF41B
:103A30008053C4F202034FF48052C4F2020252686F
:103A400022F4FE025A604FF48053C4F202034FF492
:103A50001F029A604FF48053C4F202034FF0000239
:103A6000DA6200F09FF880BD80B485B000AF4FF0FF
:103A70000003FB604FF00003BB604FF000037B606E
:103A80004FF000033B604FF48053C4F202035B68C5
:103A900003F00C03FB60FB68042B0DD0082B15D042
:103AA000002B53D140F21803C2F200034FF490529E
:103AB000C0F27A021A6053E040F21803C2F2000327
:103AC0004FF49052C0F27A021A6049E04FF48053EA
:103AD000C4F202035B6803F47013BB604FF48053BD
:103AE000C4F202035B6803F480337B60BB684FEA77
:103AF000934303F10203BB607B68002B0CD1BA68CF
:103B00004FF41063C0F23D0303FB02F240F21803CE
:103B1000C2F200031A6023E04FF48053C4F20203A0
:103B2000DB6A03F00F0303F101033B604FF4905392
:103B3000C0F27A033A68B3FBF2F3BA6802FB03F20D
:103B400040F21803C2F200031A6009E040F21803C1
:103B5000C2F200034FF49052C0F27A021A6000BF22
:103B60004FF48053C4F202035B6803F0F0034FEAA2
:103B7000131240F21C03C2F200039B5CDBB2FB6039
:103B800040F21803C2F200031A68FB6822FA03F23B
:103B900040F21803C2F200031A6007F11407BD4691
:103BA00080BC704780B500AF00F002F880BD00BF58
:103BB00080B483B000AF4FF000037B604FF0000390
:103BC0003B604FF48053C4F202034FF48052C4F2BE
:103BD0000202126842F480321A604FF48053C4F239
:103BE00002031B6803F400333B607B6803F10103AD
:103BF0007B603B68002B03D17B68B3F5A06FECD1F1
:103C00004FF48053C4F202031B6803F40033002B0B
:103C100003D04FF001033B6002E04FF000033B6034
:103C20003B68012B6DD14FF48053C4F202034FF473
:103C30008052C4F2020252685A604FF48053C4F2B8
:103C400002034FF48052C4F2020252685A604FF4E9
:103C50008053C4F202034FF48052C4F2020252684D
:103C60005A604FF48053C4F202034FF48052C4F2FE
:103C70000202526822F47C125A604FF48053C4F25C
:103C800002034FF48052C4F20202526842F49812C6
:103C90005A604FF48053C4F202034FF48052C4F2CE
:103CA0000202126842F080721A6000BF4FF4805323
:103CB000C4F202031B6803F00073002BF6D04FF42C
:103CC0008053C4F202034FF48052C4F202025268DD
:103CD00022F003025A604FF48053C4F202034FF4FF
:103CE0008052C4F20202526842F002025A6000BFDF
:103CF0004FF48053C4F202035B6803F00C03082BFB
:103D0000F6D107F10C07BD4680BC7047002100F0DA
:103D100004B80D4B5B58435004310C480C4B42180F
:103D20009A42FFF4F6AF0B4A00F003B8002342F8C2
:103D3000043B094B9A42FFF4F9AFFFF741FE00F054
:103D40009DF8FCF707FB7047344400080000002092
:103D50005C0400206C04002098040020FFF7FEBFE4
:103D60002DE9F041274C84B025680746D5F8484135
:103D7000002C41D066681F2E1CDD234810B94FF07F
:103D8000FF301FE04FF4C870039102920193AFF32C
:103D9000008003990446029A019B0028EFD0D5F8D1
:103DA0004861002060602660C5F84841C4F8880179
:103DB000C4F88C01656847B9A81C013544F8201087
:103DC0006560002004B0BDE8F081012000FA05F034
:103DD000D4F8886104EB85080643022FC8F88820D0
:103DE000C4F88861C8F80831E6D1D4F88C3143EAC8
:103DF0000002C4F88C21DFE705F5A674C5F8484138
:103E0000B8E700BF0C4400080000000008B500211E
:103E1000044600F01DF9044B1868C16B01B18847D6
:103E2000204600F05FFA00BF0C440008114B124A14
:103E300070B5981A831018D0591E02EB83040D46F2
:103E400054F8042D01F00106904775B126B154F8DD
:103E5000040D8047013D08D054F8043D9847013DCA
:103E600054F8041D8847013DF6D1BDE8704000F0CC
:103E7000D5BA00BF0000000000000000F8B5204FD8
:103E8000204C381B871017D07A1E2368012502F0BA
:103E900001069847AF420FD02EB154F8041F0225F7
:103EA0008847AF4208D0606880470235A268261D67
:103EB00090470834AF42F6D1134F144C00F0A8FAE3
:103EC0003B1B9F1018D07D1E216805F001060125BF
:103ED0008847AF4211D02EB154F8040F0225804715
:103EE000AF420BD0626890470235A368261D984701
:103EF0000834AF42F6D1F8BDF8BDF8BDF8BD00BF3B
:103F000000000000000000000000000000000000B1
:103F1000F0B48407034600F08D80541E002A00F0A0
:103F20008780E507CEB211D41A4602F8016B13461A
:103F30001546920710D0621E002C79D003F8016B51
:103F400014469A071D4607D0013CEDE7034603F8E7
:103F5000016B9A071D46F7D1032C52D9CEB246EA1F
:103F600006270F2C47EA07432DD9A4F11002174664
:103F70000F2FC2F300162B606B60AB60EB6005F196
:103F8000100216D93EB1103F136053609360D360A6
:103F900010320F2F0DD9203F02F11006136053602D
:103FA0009360D360136153619361D36120320F2F0B
:103FB000F1D8A4F1100222F00F0204F00F04103225
:103FC000032C15441DD9271F3E462A46032E42F8CE
:103FD000043BC7F380070DD927B1043E032E42F8F6
:103FE000043B07D9174647F8043B083E53603A1D87
:103FF000032EF7D8231F23F00302131D04F003043C
:10400000ED18ACB1C9B2EA432C1905F8011BA3188D
:10401000A54203F001020BD01AB105F8011BA5421D
:1040200006D02B4603F8011B69705D1CA542F8D130
:10403000F0BC7047054614468EE700BF024B13B133
:10404000024800F049B97047000000002D3E00080A
:104050002DE9F04F9F4B87B01A68049002F5A470C9
:1040600003920D4605904FF0010A0399DDF8149074
:10407000D1F84841002C43D06268B2F1010838D42D
:1040800004F1880B1F320BEB820308F0010C002DAA
:1040900000F08C805BF82260AE4200F087801E1F2B
:1040A00008F1FF37B8F1000F23D0BCF1000F0BD09F
:1040B000002D00F0A28053F8043CAB4200F09D803C
:1040C000013F043E7B1C14D0B846E5B13768AF42CF
:1040D00019D008F1FF37A6F10408002D3FD056F89B
:1040E000046CAE423BD0A8F1040607F1FF38002F64
:1040F000EBD140F20000C0F20000002840F0DA806E
:1041000007B0BDE8F08F6168CBEB06004F1E2218A8
:10411000474552F8783C00F09280002142F8781C24
:10412000002BD6D00AFA08F0D4F88821676810422C
:104130003AD0D4F88C11084240F09780049856F891
:10414000801C98476368BB428FD1D9F80000A04219
:104150008BD108F1FF37A6F10408002DBFD16168AB
:10416000CBEB0802481EA618B84256F8783C69D036
:10417000002146F8781C002BB5D00AFA07F2D4F8D3
:1041800088016668024236D0D4F88C110A4270D099
:1041900058F8800C98476368B3427FF466AFD9F84B
:1041A0000020A2429FD060E79847CBE76068CBEB46
:1041B000030101386618404556F8782C70D000216C
:1041C00046F8781C002A3FF46AAF0AFA08F1D4F8DE
:1041D00088016668014237D0D4F88C01014255D17C
:1041E00053F8801C04980293CDF804C09047029BBA
:1041F000DDF804C02FE09847CDE76068CBEB0602FE
:10420000411EA218B94252F8783C4CD0002042F826
:10421000780C002B3FF454AF0AFA07F2D4F8881157
:10422000D4F804800A4229D19847636843457FF453
:104230001CAFD9F80020A2423FF442AF15E7C4F802
:1042400004806DE7676096E70293CDF804C090475D
:10425000029BDDF804C06268B2427FF406AFD9F871
:104260000010A1423FF41BAFFFE656F8800C9847C0
:1042700068E7049858F8801C98478CE7D4F88C01BC
:10428000024212D056F8800C9847CEE753F8800CC3
:104290000293CDF804C09047029BDDF804C0DAE732
:1042A000C4F804808EE76760B3E7049856F8801C72
:1042B0009847BAE7616849B9236843B12046C9F80D
:1042C0000030AFF30080D9F80040D3E62368A14660
:1042D0001C46CFE60C440008014600200246034677
:1042E000FFF73EBDFEE700BF7372632F6D61696E1D
:1042F0002E6300002E2E2F2E2E2F53544D33325668
:104300004C2D446973636F766572795F5061636B9E
:104310006167652F4C69627261726965732F5354CE
:104320004D3332463130785F537464506572697032
:10433000685F4472697665722F7372632F73746D50
:104340003332663130785F7263632E6300000000A1
:104350002E2E2F2E2E2F53544D3332564C2D446972
:1043600073636F766572795F5061636B6167652F08
:104370004C69627261726965732F53544D333246D2
:104380003130785F5374645065726970685F44724D
:10439000697665722F7372632F73746D3332663171
:1043A00030785F6770696F2E630000002E2E2F2E0D
:1043B0002E2F53544D3332564C2D446973636F7610
:1043C0006572795F5061636B6167652F4C696272DA
:1043D00061726965732F53544D3332463130785FC3
:1043E0005374645065726970685F4472697665726F
:1043F0002F7372632F73746D3332663130785F734D
:1044000070692E63000000004300000030000020AF
:0C441000F8B500BFF8BC08BC9E46704721
:0C441C00F8B500BFF8BC08BC9E46704715
:044428000000000090
:08442C00F8BDFF7F0100000054
:104434000000000000000000010203040102030464
:10444400060708090204060800366E010000000091
:104454000000000001020304060708090000000030
:10446400000000001C03002084030020EC03002053
:104474000000000000000000000000000000000038
:104484000000000000000000000000000000000028
:1044940000000000084400080000000000000000C4
:1044A4000000000000000000000000000000000008
:1044B40000000000000000000000000000000000F8
:1044C40000000000000000000000000000000000E8
:1044D40000000000000000000000000000000000D8
:1044E40000000000000000000000000000000000C8
:1044F40000000000000000000000000000000000B8
:1045040000000000000000000100000000000000A6
:104514000E33CDAB34126DE6ECDE05000B0000006B
:104524000000000000000000000000000000000087
:104534000000000000000000000000000000000077
:104544000000000000000000000000000000000067
:104554000000000000000000000000000000000057
:0C488400000000000000000030000020D8
:04489000F501000826
:04489400D101000846
:04489800000000001C
:04489C003D40000893
:0400000508003D0DA5
:00000001FF
