:020000040800F2
:1000000000200020312900088129000881290008EA
:1000100081290008812900088129000800000000CA
:10002000000000000000000000000000812900081E
:10003000812900080000000081290008A5020008AD
:1000400081290008812900088129000881290008E8
:1000500081290008812900088129000881290008D8
:1000600081290008812900088129000881290008C8
:1000700081290008812900088129000881290008B8
:10008000812900088129000881290008000000005A
:1000900000000000000000000000000081290008AE
:1000A0008129000881290008812900088129000888
:1000B0008129000881290008812900088129000878
:1000C0008129000881290008812900088129000868
:1000D0008129000881290008812900088129000858
:1000E00081290008812900088129000800000000FA
:1000F0000000000000000000000000000000000000
:1001000000000000000000000000000000000000EF
:10011000000000000000000081290008812900087B
:1001200000000000000000000000000000000000CF
:1001300000000000000000000000000000000000BF
:1001400000000000000000000000000000000000AF
:10015000000000000000000000000000000000009F
:10016000000000000000000000000000000000008F
:10017000000000000000000000000000000000007F
:10018000000000000000000000000000000000006F
:10019000000000000000000000000000000000005F
:1001A000000000000000000000000000000000004F
:1001B000000000000000000000000000000000003F
:1001C0000000000000000000000000005FF808F1DF
:1001D00010B5054C237833B9044810B10448AFF387
:1001E00000800121217010BD6C040020000000007F
:1001F0004030000808B5064B1BB106480649AFF36E
:1002000000800648016811B1054A02B1904708BD57
:10021000000000004030000870040020640400204A
:1002200000000000154B002B08BF134B9D46A3F5A3
:10023000803A00218B460F461348144A121A02F0E6
:1002400079FC0F4B002B00D098470E4B002B00D0B1
:1002500098470020002104460D4600200C4900224A
:10026000002302F08FFB02F01BFC2046294602F01F
:100270004BF902F0DDFB00BF0000080000000000A9
:1002800000000000000000006C0400209804002022
:10029000512A0008024A10601368002BFCD17047F5
:1002A00088040020034B1A6812B11868411E1960B7
:1002B000704700BF88040020FEE700BF70B54FF410
:1002C0004053C4F20103984286B0044622D001A8EC
:1002D00001F000FD00234FF4827201A92046ADF821
:1002E0000430ADF80620ADF80830ADF80A30ADF8AE
:1002F0000C304FF40072ADF810300723ADF80E202B
:10030000ADF8143001F07EFB2046012101F0F6FC2F
:1003100006B070BD012141F2050000F07FFB684688
:1003200000F006FF4FF400602022032569461826DE
:10033000C4F20100ADF800208DF803608DF8025082
:1003400000F05AFD684600F0F3FE4FF400604822CA
:1003500040236946C4F201008DF80320ADF8003057
:1003600000F04AFD684600F0E3FE4FF40060802391
:100370006946C4F20100ADF800308DF803608DF8D5
:10038000025000F039FD4FF4006002221023C4F245
:1003900001006946ADF800208DF803308DF8025059
:1003A00000F02AFD93E700BF2DE9F84FB3F1000AF2
:1003B00005460F46904626DD4FF400690026C4F23C
:1003C00001094FF0020BB8F1000F19D018F8012BFA
:1003D000AA81C9F810B02C89E307FCD5C9F814B07C
:1003E00057B1284601F080FD07F8010B013656454C
:1003F000E9D13046BDE8F88FA88938700127F5E7C4
:10040000FF23AB81E5E70020BDE8F88F038823F0E8
:10041000380213041A0C1143018070474FF48053C3
:10042000C4F202031968002241F001001860596803
:10043000CFF6FF020A405A601A6822F0847020F456
:10044000803119601A6822F48020186059684FF4CE
:100450001F0021F4FE0200215A609860D9627047A3
:1004600010B50446E8B1B0F5803F3CD0B0F5802F20
:1004700024D027484FF48D71FFF71EFF4FF48053AF
:10048000C4F202031A68B4F5803F22F48030186089
:10049000196821F480221A6031D0B4F5802F0CD174
:1004A00018E04FF48053C4F202031A6822F480303B
:1004B0001860196821F480221A6010BD4FF480532F
:1004C000C4F20203196821F480321A60186820F41B
:1004D000802119604FF48053C4F20203186840F47D
:1004E000A021196010BD4FF48053C4F202031868B4
:1004F00020F4803119601A6822F4802018604FF4CB
:100500008053C4F202031A6842F48030186010BDB0
:100510000C2F000882B04FF4805200230193C4F2E4
:100520000202106883030FD401994B1C01930198B8
:10053000B0F5A06FF5D14FF48053C4F202031868F0
:10054000C0F3404002B07047019A511C0191019BD9
:10055000F1E700BF1F2810B5044604D9074840F250
:100560005B11FFF7A9FE4FF48053C4F202031A682F
:1005700022F0F80040EAC4041C6010BD0C2F0008F3
:10058000012810B5044604D904484FF4B771FFF7A9
:1005900093FE0023C4F242231C6010BD0C2F000800
:1005A00038B505460C4638B1B0F5803F04D0204838
:1005B0004FF4C471FFF780FE74B3B4F5802F2BD0D5
:1005C000B4F5002F28D0B4F5402F25D0B4F5801F06
:1005D00022D0B4F5A01F1FD0B4F5C01F1CD0B4F5B5
:1005E000E01F19D0B4F5001F16D0B4F5101F13D0BA
:1005F000B4F5201F10D0B4F5301F0DD0B4F5401F56
:100600000AD0B4F5501F07D0B4F5601F04D00848D5
:1006100040F28911FFF750FE4FF48053C4F20203F9
:100620005A6822F4741005432C435C6038BD00BF47
:100630000C2F0008012810B5044604D9044840F2E4
:100640009D11FFF739FE6023C4F242231C6010BDE8
:100650000C2F000838B505460C4698B90F2C04D964
:100660000B4840F2B911FFF727FE4FF48053C4F254
:100670000203DA6A22F4803020F00F010D432C438C
:10068000DC6238BD02484FF4DC71FFF715FEE5E788
:100690000C2F0008022810B5044604D9074840F280
:1006A0004121FFF709FE4FF48053C4F202035A6858
:1006B00022F0030004435C6010BD00BF0C2F000853
:1006C0004FF48053C4F20203586800F00C007047E6
:1006D00010B50446A0B1802812D0902810D0A028D0
:1006E0000ED0B0280CD0C0280AD0D02808D0E028DE
:1006F00006D0F02804D0074840F26D21FFF7DCFD5A
:100700004FF48053C4F202035A6822F0F00004430D
:100710005C6010BD0C2F000810B5044680B1B0F528
:10072000806F0DD0B0F5A06F0AD0B0F5C06F07D0C4
:10073000B0F5E06F04D0074840F28721FFF7BCFD19
:100740004FF48053C4F202035A6822F4E060044379
:100750005C6010BD0C2F000810B5044680B1B0F5E8
:10076000806F0DD0B0F5A06F0AD0B0F5C06F07D084
:10077000B0F5E06F04D0084840F2A121FFF79CFDDE
:100780004FF48053C4F202035A6822F4605040EAE6
:10079000C4045C6010BD00BF0C2F000810F0E00F17
:1007A00038B504460D460FD170B1012D13D90F484D
:1007B00040F2C921FFF780FD41F20900C4F20200B6
:1007C00001780C43047038BD08484FF43271FFF7CC
:1007D00073FD012DEBD8002DEED141F20903C4F2D7
:1007E00002031A7822EA04041C7038BD0C2F00089A
:1007F000012810B5044604D904484FF43971FFF7B5
:100800005BFDD823C4F242231C6010BD0C2F0008EE
:1008100010B5044668B1B0F5804F0AD0B0F5004F6E
:1008200007D0B0F5404F04D0074840F20B31FFF736
:1008300043FD4FF48053C4F202035A6822F440404F
:1008400004435C6010BD00BF0C2F0008012810B5E8
:10085000044606D9042810D0104840F24931FFF769
:100860002BFD4FF481500021C4F20200012C0170D5
:10087000017010D0042C07D010BD4FF48153C4F286
:10088000020300221A701A704FF48153C4F202035B
:1008900005221A7010BD047010BD00BF0C2F000897
:1008A000012810B5044604D9054840F26A31FFF723
:1008B00003FD4FF49063C4F242231C6010BD00BFDF
:1008C0000C2F0008B0F5807F10B504460AD0B0F5B3
:1008D000007F07D0B0F5407F04D0064840F27B315E
:1008E000FFF7EAFC4FF48053C4F202031A6A144380
:1008F0001C6210BD0C2F0008012810B5044604D955
:10090000054840F28931FFF7D7FC40F23C43C4F27E
:1009100042231C6010BD00BF0C2F00084FF4805311
:10092000C4F202035A6810B402F00C01042901D089
:10093000082928D04FF49051C0F27A0101604FF499
:100940008053C4F202035C681D4AC4F30314145DAF
:1009500021FA04F141605C68C4F30224145D21FAB9
:1009600004F484605C68C4F3C224145D21FA04F1C9
:10097000C1605B68C3F38133D218137CB1FBF3F120
:10098000016110BC70475A685C68C2F383418A1CDD
:10099000E10307D44FF41063C0F23D0303FB02F1FF
:1009A0000160CCE7DC6A4FF4905304F00F014C1C5B
:1009B000C0F27A03B3FBF4F102FB01F10160BEE780
:1009C0000400002038B520F4AA63044623F0070091
:1009D0000D4678B974B1012D13D90F4840F2334157
:1009E000FFF76AFC4FF48053C4F2020358690443D2
:1009F0005C6138BD084840F23241FFF75DFC012DD3
:100A0000EBD8002DEED14FF48051C4F202014A69B7
:100A100022EA04044C6138BD0C2F000838B50223CB
:100A2000CFF6C073034004460D467BB970B1012D6B
:100A300013D90F4840F25241FFF73EFC4FF480516A
:100A4000C4F202018B691C438C6138BD084840F236
:100A50005141FFF731FC012DEBD8002DEED14FF4C1
:100A60008050C4F20200826922EA0404846138BD25
:100A70000C2F000838B54FF45853C8F20113034047
:100A800004460D467BB970B1012D13D90F4840F2D1
:100A90007141FFF711FC4FF48051C4F20201CB69A0
:100AA0001C43CC6138BD09484FF48E61FFF704FC4C
:100AB000012DEBD8002DEED14FF48050C4F202008E
:100AC000C26922EA0404C46138BD00BF0C2F0008CB
:100AD00038B50223CFF6C073034004460D467BB9F8
:100AE00070B1012D13D90F4840F2AC41FFF7E4FB80
:100AF0004FF48051C4F20201CB681C43CC6038BD76
:100B0000084840F2AB41FFF7D7FB012DEBD8002D91
:100B1000EED14FF48050C4F20200C26822EA04040D
:100B2000C46038BD0C2F000838B54FF45853C8F2D4
:100B30000113034004460D467BB970B1012D13D952
:100B40000F4840F2CB41FFF7B7FB4FF48051C4F29E
:100B500002010B691C430C6138BD094840F2CA41CF
:100B6000FFF7AAFB012DEBD8002DEED14FF48050FA
:100B7000C4F20200026922EA0404046138BD00BF25
:100B80000C2F0008012810B5044604D9054840F28E
:100B9000DF41FFF791FB4FF48863C4F242231C60EE
:100BA00010BD00BF0C2F0008012810B5044604D961
:100BB000044840F2EC41FFF77FFB4C23C4F2422390
:100BC0001C6010BD0C2F000810B5044660B105284C
:100BD0000AD0042808D0062806D0072804D00548E3
:100BE00040F20C51FFF768FB41F20703C4F2020325
:100BF0001C7010BD0C2F0008212810B5044623D00E
:100C0000312821D039281FD0412829D0612815D07A
:100C10007A2813D07B2811D07C280FD07D280DD0C6
:100C20007E280BD07F2809D0104840F23B51FFF7B7
:100C300043FB6309012B07D0022B11D04FF48050E6
:100C4000C4F20200416A04E04FF48053C4F202038C
:100C5000196804F01F0421FA04F000F0010010BD2F
:100C60004FF48052C4F20202116AF2E70C2F00081E
:100C70004FF48053C4F202035A6A42F08070586203
:100C8000704700BF431E012B10B504460CD9042841
:100C90000AD0082808D0102806D0802804D0074899
:100CA00040F28551FFF708FB4FF48050C4F2020078
:100CB00081680C420CBF0020012010BD0C2F0008E1
:100CC00010F0600F10B5044600D120B9054840F27D
:100CD000B251FFF7F1FA41F20A03C4F202031C70A9
:100CE00010BD00BF0C2F000808B54FF40063C4F21C
:100CF0000103984233D04FF44061C4F201018842AD
:100D000037D04FF48052C4F20102904247D04FF4E2
:100D1000A053C4F2010398424BD04FF4C051C4F227
:100D20000101884211D04FF4E052C4F20102904216
:100D300049D04FF40053C4F20103984223D027480E
:100D40006E21BDE80840FFF7B7BA40200121FFF748
:100D5000BFFE40200021BDE80840FFF7B9BE0420D7
:100D60000121FFF7B5FE04200021BDE80840FFF790
:100D7000AFBE08200121FFF7ABFE08200021BDE82F
:100D80000840FFF7A5BE01214FF48070FFF7A0FED9
:100D90004FF480700021BDE80840FFF799BE102095
:100DA0000121FFF795FE10200021BDE80840FFF764
:100DB0008FBE20200121FFF78BFE20200021BDE8FF
:100DC0000840FFF785BE80200121FFF781FE8020CB
:100DD0000021BDE80840FFF77BBE00BF682F000878
:100DE0000120014608B5FFF773FE01200021BDE890
:100DF0000840FFF76DBE00BF4FF40063C4F201036B
:100E0000984270B504460D4627D04FF44060C4F2B6
:100E10000100844221D04FF48051C4F201018C4280
:100E20001BD04FF4A052C4F20102944215D04FF4EB
:100E3000C056C4F20106B4420FD04FF4E053C4F2DE
:100E400001039C4209D04FF40050C4F201008442D7
:100E500003D0AE48B121FFF72FFAE97889B1042910
:100E60000FD028290DD048290BD0142909D01029DA
:100E700007D01C2905D0182903D0A448B221FFF7B8
:100E80001BFA2A88002A6CD0EB7803F00F06DB06E9
:100E900061D431462B8813F0FF0F2FD013F00100DF
:100EA000226840F0168103F0020080B2002840F072
:100EB000D48003F0040080B2002840F0B98003F031
:100EC000080080B2002840F0E08003F0100080B2FB
:100ED000002840F0E68003F0200080B2002840F0B7
:100EE000EC8003F0400080B2002840F0C28003F0A4
:100EF000800080B2002840F0A7802260FF2B29D913
:100F000003F4807290B2626800282FD103F400705D
:100F100080B2002836D103F4806080B200283DD131
:100F200003F4006080B2002844D103F4805080B202
:100F300000284BD103F4005080B2002852D103F4B2
:100F4000804080B2002858D103F400439BB2002BAC
:100F50005ED1626070BDA978481E022861D8314315
:100F600098E76A48B321FFF7A7F98DE7EE7822F0FA
:100F70000F02282E41EA020200F0C580482EC5D19A
:100F80002061C3E7EE7822F0F002282E42EA011237
:100F900000F0B780482EBED12061BCE7EE7822F485
:100FA0007062282E42EA012200F0A980482EB7D1B3
:100FB0002061B5E7EE7822F47042282E42EA013231
:100FC00000F09B80482EB0D12061AEE7EE7822F48D
:100FD0007022282E42EA014200F08D80482EA9D1CD
:100FE0002061A7E7EE7822F47002282E42EA01522F
:100FF0007FD0482EA3D12061A1E7EE7822F0706265
:10100000282E42EA016272D0482E9DD120619BE7D2
:10101000E87861F31F72282867D0482808BF236149
:1010200097E7BA213948FFF747F9A978314331E703
:10103000EE7822F47062282E42EA012268D0482E0F
:101040007FF43DAF20613AE7EE7861F31F72282EFE
:1010500064D0482E08BF20614FE7EE7822F0F002FE
:10106000282E42EA011257D0482E7FF422AF206189
:101070001FE7EE7822F07062282E42EA016255D016
:10108000482E7FF434AF206131E7EE7822F47042CD
:10109000282E42EA013247D0482E7FF416AF206155
:1010A00013E7EE7822F47022282E42EA014239D06A
:1010B000482E7FF410AF20610DE7EE7822F4700225
:1010C000282E42EA01522BD0482E7FF40AAF20612D
:1010D00007E7EE7822F00F02282E41EA020219D02B
:1010E000482E7FF4E0AE2061DDE6636131E76061A8
:1010F0002AE7606123E760611CE7606115E76061D2
:101100000EE7606107E7606100E700BF682F000835
:101110006061D4E66061C6E66061CAE66061ECE6E3
:101120006061DEE66061D6E66061CEE66061DEE6C3
:101130004FF6FF730221042203808170C270704752
:1011400038B54FF40063C4F20103984204460D46DB
:1011500028D04FF44060C4F20100844222D04FF402
:101160008051C4F201018C421CD04FF4A052C4F251
:101170000102944216D04FF4C053C4F201039C42C2
:1011800010D04FF4E050C4F2010084420AD04FF472
:101190000051C4F201018C4204D01B4840F21D11E1
:1011A000FFF78AF86A1E012A28D9042D26D0082DB7
:1011B00024D0102D22D0202D20D0402D1ED0802DC7
:1011C0001CD0B5F5807F19D0B5F5007F16D0B5F5E8
:1011D000806F13D0B5F5006F10D0B5F5805F0DD0DE
:1011E000B5F5005F0AD0B5F5804F07D0B5F5004FD3
:1011F00004D005484FF48F71FFF75EF8A3681D42D5
:101200000CBF0020012038BD682F00084FF4006398
:10121000C4F20103984210B5044628D04FF4406050
:10122000C4F20100844222D04FF48051C4F2010183
:101230008C421CD04FF4A052C4F20102944216D04A
:101240004FF4C053C4F201039C4210D04FF4E0505D
:10125000C4F2010084420AD04FF40051C4F20101EB
:101260008C4204D0034840F23311FFF725F8A268FE
:1012700090B210BD682F000838B54FF40063C4F277
:101280000103984204460D4628D04FF44060C4F252
:101290000100844222D04FF48051C4F201018C42FB
:1012A0001CD04FF4A052C4F20102944216D04FF465
:1012B000C053C4F201039C4210D04FF4E050C4F27A
:1012C000010084420AD04FF40051C4F201018C4263
:1012D00004D01B4840F24311FEF7EEFF6A1E012ABC
:1012E00028D9042D26D0082D24D0102D22D0202D31
:1012F00020D0402D1ED0802D1CD0B5F5807F19D078
:10130000B5F5007F16D0B5F5806F13D0B5F5006F39
:1013100010D0B5F5805F0DD0B5F5005F0AD0B5F5FA
:10132000804F07D0B5F5004F04D005484FF4A271A7
:10133000FEF7C2FFE3681D420CBF0020012038BD4C
:10134000682F00084FF40063C4F20103984210B5FF
:10135000044628D04FF44060C4F20100844222D0F9
:101360004FF48051C4F201018C421CD04FF4A052C2
:10137000C4F20102944216D04FF4C053C4F20103E8
:101380009C4210D04FF4E050C4F2010084420AD0D5
:101390004FF40051C4F201018C4204D0034840F2E2
:1013A0005911FEF789FFE26890B210BD682F00085E
:1013B00038B54FF40063C4F20103984204460D4669
:1013C00028D04FF44060C4F20100844222D04FF490
:1013D0008051C4F201018C421CD04FF4A052C4F2DF
:1013E0000102944216D04FF4C053C4F201039C4250
:1013F00010D04FF4E050C4F2010084420AD04FF400
:101400000051C4F201018C4204D006484FF4B4717B
:10141000FEF752FF25B9034840F26911FEF74CFF71
:10142000256138BD682F000838B54FF40063C4F259
:101430000103984204460D4628D04FF44060C4F2A0
:101440000100844222D04FF48051C4F201018C4249
:101450001CD04FF4A052C4F20102944216D04FF4B3
:10146000C053C4F201039C4210D04FF4E050C4F2C8
:10147000010084420AD04FF40051C4F201018C42B1
:1014800004D006484FF4BC71FEF716FF25B9034897
:1014900040F27911FEF710FF656138BD682F000832
:1014A0004FF40063C4F20103984270B504460D4640
:1014B000164628D04FF44060C4F20100844222D086
:1014C0004FF48051C4F201018C421CD04FF4A05261
:1014D000C4F20102944216D04FF4C053C4F2010387
:1014E0009C4210D04FF4E050C4F2010084420AD074
:1014F0004FF40051C4F201018C4204D01E484FF455
:10150000C671FEF7D9FE6A1E012A28D9042D26D0FD
:10151000082D24D0102D22D0202D20D0402D1ED0DB
:10152000802D1CD0B5F5807F19D0B5F5007F16D081
:10153000B5F5806F13D0B5F5006F10D0B5F5805FAD
:101540000DD0B5F5005F0AD0B5F5804F07D0B5F5E1
:10155000004F04D0084840F28D11FEF7ADFE012E79
:1015600006D905484FF4C771FEF7A6FE256170BD88
:10157000002EFBD1656170BD682F000838B54FF4AF
:101580000063C4F20103984204460D4628D04FF48C
:101590004060C4F20100844222D04FF48051C4F272
:1015A00001018C421CD04FF4A052C4F201029442BB
:1015B00016D04FF4C053C4F201039C4210D04FF434
:1015C000E050C4F2010084420AD04FF40051C4F24A
:1015D00001018C4204D0034840F2A311FEF76CFED7
:1015E000E56038BD682F000838B54FF40063C4F2D9
:1015F0000103984204460D4628D04FF44060C4F2DF
:101600000100844222D04FF48051C4F201018C4287
:101610001CD04FF4A052C4F20102944216D04FF4F1
:10162000C053C4F201039C4210D04FF4E050C4F206
:10163000010084420AD04FF40051C4F201018C42EF
:1016400004D009484FF4DA71FEF736FE25B9064892
:1016500040F2B511FEF730FE45F48032A261A5617B
:10166000A261A369A36938BD682F0008042838B5B2
:1016700005460C4613D80F2C04D90C484FF4E971D9
:10168000FEF71AFE0023C4F2010319684FF68072B8
:101690000A4044EA051444EA0200186038BD0348D1
:1016A00040F2D111FEF708FEE5E700BF682F000801
:1016B000012810B5044604D9044840F2E511FEF7AC
:1016C000FBFD1C23C4F220231C6010BD682F000802
:1016D00038B5431E012B04460D4640F2D280042843
:1016E00000F0CF80082800F0CC801020C0F2140059
:1016F000844200F0C6803021C0F214018C4200F018
:10170000C0804022C0F21602944200F0BA80C0238A
:10171000C0F216039C4200F0B4804FF48070C0F217
:101720001800844200F0AD804FF40071C0F218013F
:101730008C4200F0A6804FF44072C0F2180294422E
:1017400000F09F804FF40063C0F21A039C4200F047
:1017500098804FF44060C0F21A00844200F09180FB
:10176000B4F5805F00F08D80B4F5EA1F00F0898049
:10177000B4F5EB1F00F08580B4F5004F00F08180D8
:101780000121C0F220018C427BD00222C0F2200253
:10179000944276D00423C0F220039C4271D00820EA
:1017A000C0F2200084426CD01021C0F220018C4293
:1017B00067D0B4F1201F64D04022C0F220029442CE
:1017C0005FD04FF48073C0F230039C4259D04FF485
:1017D0000070C0F23000844253D04FF48061C0F2F8
:1017E00030018C424DD04FF48052C0F2200294421E
:1017F00047D04FF40053C0F220039C4241D0B4F5CF
:10180000011F3ED00120C8F20000844239D00221DD
:10181000C8F200018C4234D00422C8F20002944283
:101820002FD00823C8F200039C422AD01020C8F20F
:101830000000844225D02021C8F200018C4220D033
:101840004022C8F2000294421BD08023C8F2000359
:101850009C4216D04FF48070C8F20000844210D031
:101860004FF40071C8F200018C420AD04FF480623C
:10187000C8F20002944204D0224840F22221FEF72E
:101880001BFD012D04D91F4840F22321FEF714FD52
:101890000023C4F20103002C04F44010B4BFDB6940
:1018A0005B68B0F5401FA1B221D0E20216D5C4F3A7
:1018B0000342032000FA02F223EA020343F07063BA
:1018C00025B1620D100101FA00F10B430021C4F2B1
:1018D0000101002CB4BFCB614B6038BD620D10011B
:1018E00001FA00F223EA020343F07063E8E7002202
:1018F000C4F20102506823F0706320F07060506001
:10190000DEE700BF682F0008062838B505460C46FC
:101910001FD80F2C04D9124840F25E21FEF7CCFCF0
:1019200004F0030398000F2202FA00F205FA00F512
:10193000A1080023C4F20103023153F8210020EA78
:10194000020243F8212053F82100054343F82150B7
:1019500038BD034840F25D21FEF7AEFCD9E700BF79
:10196000682F0008012810B5044604D904484FF434
:101970001C71FEF7A1FCDC23C4F220231C6010BD07
:10198000682F000808B54FF44053C4F20103984291
:101990001DD04FF46051C4F20001884223D04FF4AF
:1019A0007052C4F20002904205D015487921BDE87A
:1019B0000840FEF781BC01214FF40040FFF7B4F866
:1019C0004FF400400021BDE80840FFF7ADB8012109
:1019D0004FF48050FFF77CF84FF480500021BDE8B1
:1019E0000840FFF775B801214FF48040FFF79CF8DD
:1019F0004FF480400021BDE80840FFF795B800BFD4
:101A0000C42F0008F8B54FF44053C4F201039842C4
:101A100005460C460FD04FF46050C4F200008542DA
:101A200009D04FF47051C4F200018D4203D04148F7
:101A3000A221FEF741FC228862B1B2F5806F09D085
:101A4000B2F5004F06D0B2F5404F03D03948A5217A
:101A5000FEF732FC6688B6F5827F01D0002E5FD19A
:101A6000A788B7F5006F01D0002F54D1E3882BB1C0
:101A7000022B03D02F48A821FEF71EFC2089012845
:101A800003D92C48A921FEF717FC6189B1F5007F25
:101A900001D0002949D1A2898AB1082A0FD0102A81
:101AA0000DD0182A0BD0202A09D0282A07D0302A96
:101AB00005D0382A03D01F48AB21FEF7FDFBE6898D
:101AC0002EB1802E03D01B48AC21FEF7F5FB228AF5
:101AD00022B91848AD21FEF7EFFB228A67882388D8
:101AE000A688E0883B432189334367890343A6895D
:101AF0000B43E08929883B43334301F441510343BD
:101B00000B4398B22880A98B21F400631804010CC0
:101B1000A9832A82F8BD0748A721FEF7CDFBA5E7D8
:101B20000448A621FEF7C8FB9AE70248AA21FEF75F
:101B3000C3FBB0E7C42F0008F0B54FF46053C4F204
:101B40000003984287B005460C4609D04FF4705008
:101B5000C4F20000854203D05D48E221FEF7ACFBF1
:101B6000218861B1B1F5807F09D0B1F5007F06D041
:101B7000B1F5407F03D05648E321FEF79DFB628814
:101B80005AB1102A09D0202A07D0302A05D0B02A0D
:101B900003D04F48E421FEF78FFBA688012E07D91A
:101BA000032E05D0052E03D04948E521FEF784FB1E
:101BB000E788B7F5007F01D0002F79D14FF4EE40D0
:101BC000A368C0F2010083421ED04BF680318B42E5
:101BD0001AD04AF64442934216D0B3F5FA4F13D0C6
:101BE00045F22266B3420FD0B3F57A5F0CD042F6CD
:101BF0001137BB4208D0B3F5FA5F05D0022B03D0F2
:101C00003348E721FEF758FBA08928B1082803D004
:101C10002F48E821FEF750FBAB8B022023F47B61B9
:101C200021F00F021604370CAF83A2682884AB8B17
:101C300082429EB23AD0A18801A8002914BF402751
:101C40002027FEF76BFEE388019AB3F5007F34D0BE
:101C5000B2FBF7F000EB8007A1687A00B2FBF1F06D
:101C6000471DBAB24CF6CD40CCF6CC40A0FB0202E8
:101C7000D7087908881E07F00102FD2894BF41EAC1
:101C8000022202222788B4F802C046EA070141F482
:101C90000061A788A08941EA0C013943134301433D
:101CA0009AB288B22A84A88307B0F0BDE388E9E736
:101CB0000748E621FEF700FB80E7110A01EB8107E8
:101CC000A0687A00B2FBF0F14F1DBAB2CAE700BFBC
:101CD000C42F000800230721038043808380C38032
:101CE000038143818381C3810182704700230222E3
:101CF0000360436082608381704700BF38B54FF452
:101D00004053C4F20103984204460D4610D04FF4EC
:101D10006050C4F2000084420AD04FF47051C4F203
:101D200000018C4204D00D4840F2AD11FEF7C4FA18
:101D3000012D0AD909484FF4D771FEF7BDFA228860
:101D400093B243F04000208038BD002DF7D12288A7
:101D500022F040031804010C218038BDC42F000874
:101D600038B54FF46053C4F20003984204460D4660
:101D70000AD04FF47050C4F20000844204D00D48E1
:101D800040F2C511FEF798FA012D0AD909484FF41F
:101D9000E371FEF791FAA18B8AB242F48063A383C8
:101DA00038BD002DF7D1A18B21F480621304180CEB
:101DB000A08338BDC42F00084FF44053C4F2010380
:101DC000984270B504460D46164610D04FF4605048
:101DD000C4F2000084420AD04FF47051C4F20001F2
:101DE0008C4204D0124840F2E511FEF765FA012E4C
:101DF00004D90F484FF4F371FEF75EFA712D08D045
:101E0000602D06D0502D04D0094840F2E711FEF7AE
:101E100053FA2A09012303FA02F5A088ADB281B270
:101E20001EB921EA0505A58070BD0D43A58070BDD2
:101E3000C42F00084FF44053C4F20103984270B518
:101E400004460D46164610D04FF46050C4F2000010
:101E500084420AD04FF47051C4F200018C4204D085
:101E6000114840F20B21FEF727FA012E04D90E4843
:101E70004FF40371FEF720FA4FF6FC722A403AB98C
:101E800035B1A38898B266B920EA0505A58070BD72
:101E9000054840F20D21FEF70FFAA38898B2002EF4
:101EA000F2D00543A58070BDC42F000838B54FF4AB
:101EB0004053C4F20103984204460D4610D04FF43B
:101EC0006050C4F2000084420AD04FF47051C4F252
:101ED00000018C4204D0034840F22521FEF7ECF9C2
:101EE000A58138BDC42F00084FF44053C4F201034C
:101EF000984210B5044610D04FF46050C4F2000070
:101F000084420AD04FF47051C4F200018C4204D0D4
:101F1000034840F23521FEF7CFF9A28990B210BDF7
:101F2000C42F000838B54FF44053C4F2010398425F
:101F300004460D4610D04FF46050C4F200008442B5
:101F40000AD04FF47051C4F200018C4204D00F4803
:101F500040F24721FEF7B0F9B5F5807F08D04FF683
:101F6000FF6295420AD009484FF41271FEF7A4F9B6
:101F7000238898B240F48071218038BD238823F4EF
:101F8000807001040A0C228038BD00BFC42F0008F5
:101F900038B54FF44053C4F20103984204460D464D
:101FA00010D04FF46050C4F2000084420AD04FF4C5
:101FB0007051C4F200018C4204D00D4840F25F2100
:101FC000FEF77AF9012D0AD909484FF41871FEF786
:101FD00073F9A28893B243F00400A08038BD002DAD
:101FE000F7D1A28822F004031804010CA18038BDA7
:101FF000C42F000838B54FF44053C4F2010398428F
:1020000004460D4610D04FF46050C4F200008442E4
:102010000AD04FF47051C4F200018C4204D00D4834
:1020200040F27921FEF748F9B5F5006F00D055B9B7
:10203000228822F400631804010C2180228893B2C4
:102040001D43258038BD034840F27A21FEF734F95C
:10205000EEE700BFC42F00084FF44053C4F2010361
:10206000984210B5044610D04FF46050C4F20000FE
:1020700084420AD04FF47051C4F200018C4204D063
:10208000054840F28921FEF717F9228893B243F4FC
:102090008050208010BD00BFC42F000838B54FF419
:1020A0004053C4F20103984204460D4610D04FF449
:1020B0006050C4F2000084420AD04FF47051C4F260
:1020C00000018C4204D00D4840F29921FEF7F4F84B
:1020D000012D0AD9094840F29A21FEF7EDF822882D
:1020E00093B243F40050208038BD002DF7D12288F0
:1020F00022F400531804010C218038BDC42F0008BD
:1021000038B54FF44053C4F20103984204460D46DB
:1021100010D04FF46050C4F2000084420AD04FF453
:102120007051C4F200018C4204D009484FF42D7163
:10213000FEF7C2F8012D07D9054840F2B521FEF798
:10214000BBF8238B98B238BDFBD1A28A90B238BDC0
:10215000C42F00084FF44053C4F20103984210B555
:10216000044610D04FF46050C4F2000084420AD0FC
:102170004FF47051C4F200018C4204D003484FF474
:102180003371FEF799F8228A90B210BDC42F00086F
:1021900038B54FF44053C4F20103984204460D464B
:1021A00010D04FF46050C4F2000084420AD04FF4C3
:1021B0007051C4F200018C4204D00F4840F2DE217D
:1021C000FEF77AF84BF6FF72954207D0B5F5804FCF
:1021D0000BD0094840F2DF21FEF76EF8228822F486
:1021E00080431804010C218038BD238898B240F444
:1021F0008041218038BD00BFC42F000838B54FF49E
:102200004053C4F20103984205460C4610D04FF4E7
:102210006050C4F2000085420AD04FF47051C4F2FD
:1022200000018D4204D0104840F20131FEF744F81D
:10223000802C12D0402C10D0202C0ED0102C0CD082
:10224000082C0AD0042C08D0022C06D0012C04D073
:10225000054840F20231FEF72FF82A8914420CBFDC
:102260000020012038BD00BFC42F000838B54FF44E
:102270004053C4F20103984204460D4610D04FF477
:102280006050C4F2000084420AD04FF47051C4F28E
:1022900000018C4204D0084840F22631FEF70CF8C9
:1022A000102D04D0044840F22731FEF705F8EA4328
:1022B00095B2258138BD00BFC42F000838B54FF452
:1022C0004053C4F20103984205460C4610D04FF427
:1022D0006050C4F2000085420AD04FF47051C4F23D
:1022E00000018D4204D0144840F24231FDF7E4FF72
:1022F000602C0ED0712C0CD0532C0AD0542C08D04A
:10230000552C06D0562C04D00B4840F24331FDF733
:10231000D3FF012204F00F0302FA03F3A9882889EE
:1023200089B280B2184006D0240902FA04F21142A0
:102330000CBF0020012038BDC42F000838B54FF471
:102340004053C4F20103984204460D4610D04FF4A6
:102350006050C4F2000084420AD04FF47051C4F2BD
:1023600000018C4204D00A4840F27631FDF7A4FF08
:10237000542D04D0064840F27731FDF79DFF05F05B
:102380000F02012303FA02F5E84385B2258138BD27
:10239000C42F00084C300008000000205C0400201E
:1023A0006C040020980400204FF48053C4F2020310
:1023B0001968002241F0010018605968CFF6FF0249
:1023C0000A405A601A68002122F0847020F480329A
:1023D0001A60186882B020F480221A6058681A4681
:1023E00020F4FE0058604FF41F009860D9620091FD
:1023F0000191196841F48030186003E00098B0F54D
:10240000A06F09D0136803F4003101910098431CB8
:10241000009301990029F1D04FF48052C4F20202D6
:10242000136813F4003106D001200190019A012AAB
:1024300005D002B070470191019A012AF9D14FF4F9
:102440008053C4F202035868194658605A685A60AB
:10245000586858605A6822F47C1058605A6842F4F0
:10246000981058601A6842F0807018600A684FF43B
:1024700080539201C4F20203F8D55968184621F03E
:1024800003025A60596841F002025A60436803F03F
:102490000C010829FAD1CCE74FF48053C4F20203AF
:1024A0005A6802F00C00082810D04FF49052C0F285
:1024B0007A024FF48051C4F202014868114BC0F314
:1024C0000311585C22FA00F21A6170475968586883
:1024D000C1F38342911CC00306D44FF41063C0F2D1
:1024E0003D0303FB01F2E4E7D86A4FF4905300F098
:1024F0000F02501CC0F27A03B3FBF0F201FB02F2B0
:10250000D7E700BF180000202DE9F047012182B075
:102510001020FEF783FA01A8FEF70AFE4FF4805060
:1025200010224FF4027301A9C4F2010003248DF8B4
:102530000720ADF804308DF80640FEF75DFC4FF43F
:102540004050C4F20100FDF7B9FE4FF48050C4F2D0
:1025500001000821FEF72CFFC84944F6D3500D684E
:10256000C1F26200A0FB05264EF21007B3094FF43A
:102570006D42CEF20007C24C581ECEF20002F0218E
:1025800000250726786082F82310BD603E604FF476
:10259000FA6727602668002EFCD1BA4D02234FF45B
:1025A000805008214FF00108C4F201003246B64FB6
:1025B000AB700323EB702E7085F80180FEF770FF7F
:1025C0004FF44050042339462A46C4F20100FDF777
:1025D000EBFE4FF48050C4F2010008214246FEF7A2
:1025E0005FFF3A782878824240F0A18179786B7851
:1025F000994240F09C81BA78A878824240F0978155
:10260000F978EB78994240F0928105236B704FF492
:102610008050062308214FF00409C4F2010032461D
:10262000AB700723EB7085F80090FEF739FF4FF48D
:10263000405039462A464B46C4F20100FDF7B4FE2D
:102640004FF48050C4F2010008214246FEF728FFF3
:102650003A782878824240F06A8179786B7899429A
:1026600040F06581BA78A878824240F06081F978BC
:10267000EB78994240F05B814FF0080A32464FF404
:10268000805009260A23C4F2010051466E700B26C1
:10269000AB7085F800A0EE70FEF702FF4FF44050DB
:1026A00039462A464B46C4F20100FDF77DFE4FF441
:1026B0008050C4F2010042465146FEF7F1FE3A78DE
:1026C0002878824240F0338179786B78B846994215
:1026D0002E4640F02C81BA78A878824240F02781BB
:1026E000F978EB78994240F022810C232B700D236E
:1026F0006B704FF480500E230022C4F2010051464B
:10270000AB700F23EB70FEF7CBFE4FF44050394611
:102710002A464B46C4F20100FDF746FE4FF48050B6
:102720000122C4F201005146FEF7BAFE3A78287839
:10273000824240F0FC8079786B78994240F0F780D3
:10274000BA78A878824240F0F280F978EB78994222
:1027500040F0ED8010232B7011236B704FF48050EC
:1027600012230022C4F201005146AB701323EB7018
:10277000FEF796FE4FF4405039462A464B46C4F2C7
:102780000100FDF711FE4FF480500122C4F2010058
:102790005146FEF785FE3A782878824240F0C7809D
:1027A00079786B78994240F0C280BA78A8788242F2
:1027B00040F0BD80F978EB78994240F0B88014235E
:1027C0002B7015236B704FF4805016230022C4F237
:1027D00001005146AB701723EB70FEF761FE4FF41A
:1027E000405039462A464B46C4F20100FDF7DCFD55
:1027F0004FF480500122C4F201005146FEF750FE12
:102800003A782878824240F0928079786B789942C1
:1028100040F08D80BA78A878824240F08880F978BC
:10282000EB78994240F0838018232B7019236B704A
:102830004FF480501A230022C4F201005146AB70BD
:102840001B23EB70FEF72CFE4FF4405039462A460E
:102850004B46C4F20100FDF7A7FD4FF48050012262
:10286000C4F201005146FEF71BFE3A7828788242F6
:102870005DD179786B78994259D107E02800002022
:10288000880400209404002090040020BA78A878DE
:1028900082424CD1F978EB78994248D11C232B70B5
:1028A0001D236B704FF480501E230022C4F20100E0
:1028B0005146AB701F23EB70FEF7F2FD4FF4405012
:1028C00039462A464B46C4F20100FDF76DFD4FF430
:1028D00080500122C4F201005146FEF7E1FD3A7832
:1028E0002878824223D17F786D78AF421FD198F843
:1028F0000230B1788B421AD198F80300F778B842C9
:1029000015D16668FA25321C4FF4805018BF012299
:10291000C4F201004FF40071FEF7C2FD6268256049
:10292000C2F1010666602368002BFCD1EBE7FEE7ED
:10293000002100F004B80D4B5B58435004310C48A3
:102940000C4B42189A42FFF4F6AF0B4A00F003B862
:10295000002342F8043B094B9A42FFF4F9AFFFF71A
:1029600023FD00F09DF8FFF7CFFD70474C300008C5
:10297000000000205C0400206C040020980400206B
:10298000FFF7FEBF2DE9F041274C84B025680746CC
:10299000D5F84841002C41D066681F2E1CDD234825
:1029A00010B94FF0FF301FE04FF4C870039102924E
:1029B0000193AFF3008003990446029A019B00281B
:1029C000EFD0D5F84861002060602660C5F8484126
:1029D000C4F88801C4F88C01656847B9A81C0135A2
:1029E00044F820106560002004B0BDE8F0810120AB
:1029F00000FA05F0D4F8886104EB85080643022F3D
:102A0000C8F88820C4F88861C8F80831E6D1D4F83D
:102A10008C3143EA0002C4F88C21DFE705F5A67487
:102A2000C5F84841B8E700BF2430000800000000A6
:102A300008B50021044600F01DF9044B1868C16B6D
:102A400001B18847204600F05FFA00BF243000083B
:102A5000114B124A70B5981A831018D0591E02EB08
:102A600083040D4654F8042D01F00106904775B11A
:102A700026B154F8040D8047013D08D054F8043DB8
:102A80009847013D54F8041D8847013DF6D1BDE843
:102A9000704000F0CFBA00BF00000000000000004E
:102AA000F8B5204F204C381B871017D07A1E2368AA
:102AB000012502F001069847AF420FD02EB154F81D
:102AC000041F02258847AF4208D06068804702355E
:102AD000A268261D90470834AF42F6D1134F144C1C
:102AE00000F0A2FA3B1B9F1018D07D1E216805F054
:102AF000010601258847AF4211D02EB154F8040FCA
:102B000002258047AF420BD0626890470235A36828
:102B1000261D98470834AF42F6D1F8BDF8BDF8BD80
:102B2000F8BD00BF00000000000000000000000031
:102B300000000000F0B48407034600F08D80541EAE
:102B4000002A00F08780E507CEB211D41A4602F8B9
:102B5000016B13461546920710D0621E002C79D0E7
:102B600003F8016B14469A071D4607D0013CEDE7B8
:102B7000034603F8016B9A071D46F7D1032C52D97F
:102B8000CEB246EA06270F2C47EA07432DD9A4F117
:102B9000100217460F2FC2F300162B606B60AB605C
:102BA000EB6005F1100216D93EB1103F136053607F
:102BB0009360D36010320F2F0DD9203F02F1100621
:102BC000136053609360D360136153619361D36169
:102BD00020320F2FF1D8A4F1100222F00F0204F0DE
:102BE0000F041032032C15441DD9271F3E462A46D8
:102BF000032E42F8043BC7F380070DD927B1043EEA
:102C0000032E42F8043B07D9174647F8043B083E19
:102C100053603A1D032EF7D8231F23F00302131D20
:102C200004F00304ED18ACB1C9B2EA432C1905F85D
:102C3000011BA318A54203F001020BD01AB105F83D
:102C4000011BA54206D02B4603F8011B69705D1CD1
:102C5000A542F8D1F0BC7047054614468EE700BF88
:102C6000024B13B1024800F049B970470000000060
:102C7000512A00082DE9F04F9F4B87B01A68049045
:102C800002F5A47003920D4605904FF0010A0399D6
:102C9000DDF81490D1F84841002C43D06268B2F1BD
:102CA000010838D404F1880B1F320BEB820308F0C3
:102CB000010C002D00F08C805BF82260AE4200F029
:102CC00087801E1F08F1FF37B8F1000F23D0BCF139
:102CD000000F0BD0002D00F0A28053F8043CAB4253
:102CE00000F09D80013F043E7B1C14D0B846E5B146
:102CF0003768AF4219D008F1FF37A6F10408002D5C
:102D00003FD056F8046CAE423BD0A8F1040607F160
:102D1000FF38002FEBD140F20000C0F20000002885
:102D200040F0DA8007B0BDE8F08F6168CBEB0600B9
:102D30004F1E2218474552F8783C00F0928000213F
:102D400042F8781C002BD6D00AFA08F0D4F8882173
:102D5000676810423AD0D4F88C11084240F097804E
:102D6000049856F8801C98476368BB428FD1D9F805
:102D70000000A0428BD108F1FF37A6F10408002D16
:102D8000BFD16168CBEB0802481EA618B84256F8BE
:102D9000783C69D0002146F8781C002BB5D00AFA9F
:102DA00007F2D4F888016668024236D0D4F88C1154
:102DB0000A4270D058F8800C98476368B3427FF499
:102DC00066AFD9F80020A2429FD060E79847CBE7D2
:102DD0006068CBEB030101386618404556F8782C43
:102DE00070D0002146F8781C002A3FF46AAF0AFA36
:102DF00008F1D4F888016668014237D0D4F88C0114
:102E0000014255D153F8801C04980293CDF804C0B8
:102E10009047029BDDF804C02FE09847CDE760683B
:102E2000CBEB0602411EA218B94252F8783C4CD0B6
:102E3000002042F8780C002B3FF454AF0AFA07F256
:102E4000D4F88811D4F804800A4229D198476368DD
:102E500043457FF41CAFD9F80020A2423FF442AFB3
:102E600015E7C4F804806DE7676096E70293CDF834
:102E700004C09047029BDDF804C06268B2427FF450
:102E800006AFD9F80010A1423FF41BAFFFE656F899
:102E9000800C984768E7049858F8801C98478CE79E
:102EA000D4F88C01024212D056F8800C9847CEE735
:102EB00053F8800C0293CDF804C09047029BDDF8D4
:102EC00004C0DAE7C4F804808EE76760B3E70498CB
:102ED00056F8801C9847BAE7616849B9236843B13E
:102EE0002046C9F80030AFF30080D9F80040D3E69F
:102EF0002368A1461C46CFE6243000080146002086
:102F000002460346FFF73EBDFEE700BF2E2E2F2EE2
:102F10002E2F53544D3332564C2D446973636F76C4
:102F20006572795F5061636B6167652F4C6962728E
:102F300061726965732F53544D3332463130785F77
:102F40005374645065726970685F44726976657223
:102F50002F7372632F73746D3332663130785F7202
:102F600063632E63000000002E2E2F2E2E2F53544D
:102F70004D3332564C2D446973636F766572795FB9
:102F80005061636B6167652F4C696272617269653C
:102F9000732F53544D3332463130785F537464503D
:102FA00065726970685F4472697665722F737263C7
:102FB0002F73746D3332663130785F6770696F2EAE
:102FC000630000002E2E2F2E2E2F53544D333256D9
:102FD0004C2D446973636F766572795F5061636BE2
:102FE0006167652F4C69627261726965732F535412
:102FF0004D3332463130785F537464506572697076
:10300000685F4472697665722F7372632F73746D93
:103010003332663130785F7370692E6300000000D0
:08302000430000003000002015
:0C302800F8B500BFF8BC08BC9E4670471D
:0C303400F8B500BFF8BC08BC9E46704711
:04304000000000008C
:08304400E0D1FF7F0100000054
:10304C000000000000000000010203040102030460
:10305C000607080902040608000000000000000032
:10306C00010203040607080900366E010000000087
:10307C00000000001C03002084030020EC0300204F
:10308C000000000000000000000000000000000034
:10309C000000000000000000000000000000000024
:1030AC0000000000203000080000000000000000BC
:1030BC000000000000000000000000000000000004
:1030CC0000000000000000000000000000000000F4
:1030DC0000000000000000000000000000000000E4
:1030EC0000000000000000000000000000000000D4
:1030FC0000000000000000000000000000000000C4
:10310C0000000000000000000000000000000000B3
:10311C0000000000000000000100000000000000A2
:10312C000E33CDAB34126DE6ECDE05000B00000067
:10313C000000000000000000000000000000000083
:10314C000000000000000000000000000000000073
:10315C000000000000000000000000000000000063
:10316C000000000000000000000000000000000053
:0C349C00000000000000000030000020D4
:0434A800F501000822
:0434AC00D101000842
:0434B0000000000018
:0434B400612C00087F
:040000050800293195
:00000001FF
