:020000040800F2
:100000000020002059A90008A9A90008A9A90008F2
:10001000A9A90008A9A90008A9A9000800000000D2
:10002000000000000000000000000000A9A9000876
:10003000A9A9000800000000A9A90008BD05000842
:10004000A9A90008A9A90008A9A90008A9A9000848
:10005000A9A90008A9A90008A9A90008A9A9000838
:10006000A9A90008A9A90008A9A90008A9A9000828
:10007000A9A90008A9A90008A9A90008A9A9000818
:10008000A9A90008A9A900081D0500080000000092
:10009000000000000000000000000000A9A9000806
:1000A000A9A90008A9A90008A9A90008A9A90008E8
:1000B000A9A90008A9A90008A9A90008A9A90008D8
:1000C000A9A90008A9A90008A9A90008A9A90008C8
:1000D000A9A90008A9A90008A9A90008A9A90008B8
:1000E000A9A90008A9A90008A9A900080000000002
:1000F0000000000000000000000000000000000000
:1001000000000000000000000000000000000000EF
:100110000000000000000000A9A90008A9A900082B
:1001200000000000000000000000000000000000CF
:1001300000000000000000000000000000000000BF
:1001400000000000000000000000000000000000AF
:10015000000000000000000000000000000000009F
:10016000000000000000000000000000000000008F
:10017000000000000000000000000000000000007F
:10018000000000000000000000000000000000006F
:10019000000000000000000000000000000000005F
:1001A000000000000000000000000000000000004F
:1001B000000000000000000000000000000000003F
:1001C0000000000000000000000000005FF808F1DF
:1001D00010B5054C237833B9044810B10448AFF387
:1001E00000800121217010BD6C040020000000007F
:1001F00014B1000808B5064B1BB106480649AFF319
:1002000000800648016811B1054A02B1904708BD57
:100210000000000014B100087004002064040020F5
:1002200000000000154B002B08BF134B9D46A3F5A3
:10023000803A00218B460F461348144A121A0AF0DE
:100240008DFC0F4B002B00D098470E4B002B00D09D
:1002500098470020002104460D4600200C4900224A
:1002600000230AF0A3FB0AF02FFC2046294600F0E9
:1002700071F80AF0F1FB00BF000008000000000068
:1002800000000000000000006C040020900400202A
:1002900079AA000880B483B000AF03463960FB71CF
:1002A00097F90730002B10DA4FF46D43CEF20003BC
:1002B000FA7902F00F02A2F104013A68D2B24FEAD1
:1002C0000212D2B25B181A760DE04FF46143CEF2FF
:1002D000000397F907103A68D2B24FEA0212D2B27D
:1002E0005B1883F8002307F10C07BD4680BC7047FC
:1002F00080B582B000AF78607A686FF07F439A4231
:1003000002D94FF001031FE04EF21003CEF20003BA
:100310007A6822F07F4202F1FF325A604FF0FF30DC
:100320004FF00F01FFF7B6FF4EF21003CEF20003BD
:100330004FF000029A604EF21003CEF200034FF02D
:1003400007021A604FF00003184607F10807BD4680
:1003500080BD00BF80B58AB000AF4FF405704FF08C
:10036000010100F0D3FE4FF002004FF0010100F058
:1003700017FF07F12403184601F060FB4FF40073E8
:10038000BB844FF0100387F827304FF0020387F843
:10039000263007F124034FF48050C4F201001946BF
:1003A00001F0F4F907F12403184601F047FB4FF080
:1003B0004003BB844FF0000387F8273007F1240384
:1003C0004FF40060C4F20100194601F0DFF907F1B3
:1003D0001803184603F048FD42F210733B834FF0B8
:1003E0006403BB834FF000037B8307F118034FF4D2
:1003F0008060C4F20000194602F0C4FB4FF4806034
:10040000C4F200004FF0200106F044FE4FF000035C
:100410007B604FF000033B724FF000037B724FF4A0
:100420000023FB604FF000033B614FF001033B757D
:1004300007F104034FF41050C4F20100194608F00C
:10044000FBFA4FF41050C4F201004FF006014FF0D8
:1004500001024FF0050308F00BFF4FF41050C4F2F7
:1004600001004FF408714FF0010208F0C5FC4FF491
:100470001050C4F201004FF0010109F05FF84FF095
:1004800012033B704FF00303BB704FF000037B700F
:100490004FF00103FB703B46184609F063FF4FF431
:1004A0001050C4F201004FF0010108F021FC00BF20
:1004B0004FF41050C4F2010008F02AFD0346002B4F
:1004C000F6D14FF41050C4F2010008F059FD00BFFE
:1004D0004FF41050C4F2010008F07EFD0346002BDB
:1004E000F6D14FF48060C4F200004FF0010103F038
:1004F00047FD40F21803C2F200031A6844F6D353D2
:10050000C1F26203A3FB02134FEA93131846FFF7ED
:10051000EFFE0346002B00D0FEE7FEE780B582B079
:1005200000AF4FF41053C4F20103DB6CFB8040F2C8
:100530008843C2F200031B78DBB2002B0CBF002300
:100540000123DBB24FF48050C4F201004FF400717C
:100550001A4601F0E5FC40F28843C2F200031B7822
:10056000DBB2C3F10103DAB240F28843C2F2000306
:100570001A704FF41050C4F201004FF4087109F0E2
:100580007DFE07F10807BD4680BD00BF80B483B083
:1005900000AF786040F28C43C2F200037A681A60C0
:1005A00000BF40F28C43C2F200031B68002BF8D15D
:1005B00007F10C07BD4680BC704700BF80B400AF98
:1005C00040F28C43C2F200031B68002B0BD040F2B8
:1005D0008C43C2F200031B6803F1FF3240F28C43EC
:1005E000C2F200031A60BD4680BC704780B483B07D
:1005F00000AF78603960FEE780B400AF4FF48053FD
:10060000C4F202034FF48052C4F20202126842F0B4
:1006100001021A604FF48052C4F202024FF4805378
:10062000C4F2020359684FF00003CFF6FF030B40FA
:1006300053604FF48053C4F202034FF48052C4F26B
:100640000202126822F0847222F480321A604FF49F
:100650008053C4F202034FF48052C4F202021268C3
:1006600022F480221A604FF48053C4F202034FF444
:100670008052C4F20202526822F4FE025A604FF421
:100680008053C4F202034FF41F029A604FF4805368
:10069000C4F202034FF00002DA62BD4680BC70472C
:1006A00080B582B000AF78607B68002B0FD07B688C
:1006B000B3F5803F0BD07B68B3F5802F07D04AF6A7
:1006C0003470C0F600004FF48D71FFF78FFF4FF4C8
:1006D0008053C4F202034FF48052C4F20202126843
:1006E00022F480321A604FF48053C4F202034FF4B4
:1006F0008052C4F20202126822F480221A607B68DF
:10070000B3F5803F03D0B3F5802F0DD019E04FF43F
:100710008053C4F202034FF48052C4F20202126802
:1007200042F480321A600DE04FF48053C4F20203A9
:100730004FF48052C4F20202126842F4A0221A60FE
:1007400000E000BF07F10807BD4680BD80B582B05C
:1007500000AF4FF000033B604FF00003FB714FF020
:100760000003BB714FF0310000F05AFE0346BB712D
:100770003B6803F101033B603B68B3F5A06F02D017
:10078000BB79002BEED04FF0310000F049FE03465C
:10079000002B03D04FF00103FB7102E04FF0000388
:1007A000FB71FB79184607F10807BD4680BD00BF05
:1007B00080B584B000AF0346FB714FF00003FB60CF
:1007C000FB791F2B07D94AF63470C0F6000040F2BF
:1007D0005B11FFF70BFF4FF48053C4F202031B6859
:1007E000FB60FB6823F0F803FB60FB794FEAC3036F
:1007F000FA681343FB604FF48053C4F20203FA68B3
:100800001A6007F11007BD4680BD00BF80B582B0F9
:1008100000AF0346FB71FB79002B0AD0FB79012B5B
:1008200007D04AF63470C0F600004FF4B771FFF7F6
:10083000DDFE4FF00003C4F24223FA791A6007F19B
:100840000807BD4680BD00BF80B584B000AF7860AA
:1008500039604FF00003FB607B68002B0BD07B6896
:10086000B3F5803F07D04AF63470C0F600004FF46D
:10087000C471FFF7BBFE3B68002B3FD03B68B3F56C
:10088000802F3BD03B68B3F5002F37D03B68B3F5E2
:10089000402F33D03B68B3F5801F2FD03B68B3F5B2
:1008A000A01F2BD03B68B3F5C01F27D03B68B3F522
:1008B000E01F23D03B68B3F5001F1FD03B68B3F5A2
:1008C000101F1BD03B68B3F5201F17D03B68B3F552
:1008D000301F13D03B68B3F5401F0FD03B68B3F512
:1008E000501F0BD03B68B3F5601F07D04AF6347039
:1008F000C0F6000040F28911FFF778FE4FF48053F4
:10090000C4F202035B68FB60FB6823F47413FB60B2
:100910007A683B681343FA681343FB604FF48053D3
:10092000C4F20203FA685A6007F11007BD4680BDA1
:1009300080B582B000AF0346FB71FB79002B0AD073
:10094000FB79012B07D04AF63470C0F6000040F264
:100950009D11FFF74BFE4FF06003C4F24223FA797A
:100960001A6007F10807BD4680BD00BF80B584B09E
:1009700000AF786039604FF00003FB607B68002BAC
:1009800007D04AF63470C0F600004FF4DC71FFF770
:100990002DFE3B68002B34D03B68012B31D03B68E7
:1009A000022B2ED03B68032B2BD03B68042B28D086
:1009B0003B68052B25D03B68062B22D03B68072BD4
:1009C0001FD03B68082B1CD03B68092B19D03B6813
:1009D0000A2B16D03B680B2B13D03B680C2B10D086
:1009E0003B680D2B0DD03B680E2B0AD03B680F2BBC
:1009F00007D04AF63470C0F6000040F2B911FFF794
:100A0000F5FD4FF48053C4F20203DB6AFB60FB6820
:100A100023F4803323F00F03FB607A683B681343B1
:100A2000FA681343FB604FF48053C4F20203FA6880
:100A3000DA6207F11007BD4680BD00BF80B584B003
:100A400000AF78604FF00003FB607B68002B0DD097
:100A50007B68012B0AD07B68022B07D04AF63470E2
:100A6000C0F6000040F24121FFF7C0FD4FF4805373
:100A7000C4F202035B68FB60FB6823F00303FB60C6
:100A8000FA687B681343FB604FF48053C4F202039F
:100A9000FA685A6007F11007BD4680BD80B400AF08
:100AA0004FF48053C4F202035B68DBB203F00C0323
:100AB000DBB21846BD4680BC704700BF80B584B02D
:100AC00000AF78604FF00003FB607B68002B1FD005
:100AD0007B68802B1CD07B68902B19D07B68A02B67
:100AE00016D07B68B02B13D07B68C02B10D07B68EE
:100AF000D02B0DD07B68E02B0AD07B68F02B07D081
:100B00004AF63470C0F6000040F26D21FFF76EFD2A
:100B10004FF48053C4F202035B68FB60FB6823F070
:100B2000F003FB60FA687B681343FB604FF480536B
:100B3000C4F20203FA685A6007F11007BD4680BD8F
:100B400080B584B000AF78604FF00003FB607B6835
:100B5000002B17D07B68B3F5806F13D07B68B3F59B
:100B6000A06F0FD07B68B3F5C06F0BD07B68B3F577
:100B7000E06F07D04AF63470C0F6000040F28721DB
:100B8000FFF734FD4FF48053C4F202035B68FB604F
:100B9000FB6823F4E063FB60FA687B681343FB6047
:100BA0004FF48053C4F20203FA685A6007F1100749
:100BB000BD4680BD80B584B000AF78604FF00003C3
:100BC000FB607B68002B17D07B68B3F5806F13D078
:100BD0007B68B3F5A06F0FD07B68B3F5C06F0BD007
:100BE0007B68B3F5E06F07D04AF63470C0F60000BA
:100BF00040F2A121FFF7FAFC4FF48053C4F2020344
:100C00005B68FB60FB6823F46053FB607B684FEA22
:100C1000C303FA681343FB604FF48053C4F202032A
:100C2000FA685A6007F11007BD4680BD80B582B0F2
:100C300000AF02460B46FA71BB71FB7903F0E0038B
:100C4000002B02D1FB79002B07D14AF63470C0F695
:100C500000004FF43271FFF7C9FCBB79002B0AD0BA
:100C6000BB79012B07D04AF63470C0F6000040F281
:100C7000C921FFF7BBFCBB79002B0ED041F2090361
:100C8000C4F2020341F20902C4F202021278D1B2A4
:100C9000FA790A43D2B21A7010E041F20903C4F2A1
:100CA000020341F20902C4F202021278D1B2FA79C7
:100CB0006FEA0202D2B20A40D2B21A7007F10807F4
:100CC000BD4680BD80B582B000AF78607B68002BE8
:100CD0000AD07B68012B07D04AF63470C0F60000BA
:100CE0004FF43971FFF782FC4FF0D803C4F242236E
:100CF0007A681A6007F10807BD4680BD80B584B0E8
:100D000000AF78604FF00003FB607B68002B13D0CE
:100D10007B68B3F5804F0FD07B68B3F5004F0BD0E5
:100D20007B68B3F5404F07D04AF63470C0F6000038
:100D300040F20B31FFF75AFC4FF48053C4F2020328
:100D40005B68FB60FB6823F44043FB60FA687B68E8
:100D50001343FB604FF48053C4F20203FA685A60F5
:100D600007F11007BD4680BD80B582B000AF0346D5
:100D7000FB71FB79002B0DD0FB79012B0AD0FB799D
:100D8000042B07D04AF63470C0F6000040F2493117
:100D9000FFF72CFC4FF48153C4F202034FF0000222
:100DA0001A704FF48153C4F202034FF000021A701C
:100DB000FB79012B02D0042B08D00FE04FF48153B4
:100DC000C4F202034FF001021A7008E04FF481539D
:100DD000C4F202034FF005021A7000E000BF07F1F1
:100DE0000807BD4680BD00BF80B582B000AF034696
:100DF000FB71FB79002B0AD0FB79012B07D04AF657
:100E00003470C0F6000040F26A31FFF7EFFB4FF498
:100E10009063C4F24223FA791A6007F10807BD46CD
:100E200080BD00BF80B582B000AF78607B68B3F54D
:100E3000807F0FD07B68B3F5007F0BD07B68B3F564
:100E4000407F07D04AF63470C0F6000040F27B3194
:100E5000FFF7CCFB4FF48053C4F202034FF48052EF
:100E6000C4F20202116A7A680A431A6207F108079B
:100E7000BD4680BD80B582B000AF0346FB71FB79F3
:100E8000002B0AD0FB79012B07D04AF63470C0F64C
:100E9000000040F28931FFF7A9FB40F23C43C4F265
:100EA0004223FA791A6007F10807BD4680BD00BFEA
:100EB00080B489B000AF78604FF00003FB614FF061
:100EC0000003BB614FF000037B614FF000033B6107
:100ED0004FF00003FB604FF48053C4F202035B68E1
:100EE00003F00C03FB61FB69042B0AD0082B0FD025
:100EF000002B47D17A684FF49053C0F27A03136005
:100F000047E07A684FF49053C0F27A03136040E0F0
:100F10004FF48053C4F202035B6803F47013BB61A7
:100F20004FF48053C4F202035B6803F480337B61A7
:100F3000BB694FEA934303F10203BB617B69002B5A
:100F400009D1BA694FF41063C0F23D0303FB02F20A
:100F50007B681A601DE04FF48053C4F20203DB6A21
:100F600003F00F0303F10103FB604FF49053C0F251
:100F70007A03FA68B3FBF2F3BA6902FB03F27B6807
:100F80001A6006E07A684FF49053C0F27A03136057
:100F900000BF4FF48053C4F202035B6803F0F00318
:100FA000FB61FB694FEA1313FB6140F20403C2F2D9
:100FB0000003FA699B181B78DBB23B617B681A68F7
:100FC0003B6922FA03F27B685A604FF48053C4F203
:100FD00002035B6803F4E063FB61FB694FEA1323E0
:100FE000FB6140F20403C2F20003FA699B181B780C
:100FF000DBB23B617B685A683B6922FA03F27B688B
:101000009A604FF48053C4F202035B6803F46053A8
:10101000FB61FB694FEAD323FB6140F20403C2F298
:101020000003FA699B181B78DBB23B617B685A6846
:101030003B6922FA03F27B68DA604FF48053C4F212
:1010400002035B6803F44043FB61FB694FEA93339F
:10105000FB6140F21403C2F20003FA699B181B788B
:10106000DBB23B617B68DA683B69B2FBF3F27B6819
:101070001A6107F12407BD4680BC704780B582B075
:1010800000AF78600B46FB707B6823F4AA6323F003
:101090000703002B02D17B68002B07D14AF634707E
:1010A000C0F6000040F23241FFF7A0FAFB78002BB7
:1010B0000AD0FB78012B07D04AF63470C0F6000046
:1010C00040F23341FFF792FAFB78002B0CD04FF43B
:1010D0008053C4F202034FF48052C4F202025169F9
:1010E0007A680A435A610DE04FF48053C4F2020358
:1010F0004FF48052C4F2020251697A686FEA020228
:101100000A405A6107F10807BD4680BD80B582B02C
:1011100000AF78600B46FB707A684FF00203CFF6A1
:10112000C0731340002B02D17B68002B07D14AF615
:101130003470C0F6000040F25141FFF757FAFB78D7
:10114000002B0AD0FB78012B07D04AF63470C0F68A
:10115000000040F25241FFF749FAFB78002B0CD017
:101160004FF48053C4F202034FF48052C4F20202DF
:1011700091697A680A439A610DE04FF48053C4F292
:1011800002034FF48052C4F2020291697A686FEA56
:1011900002020A409A6107F10807BD4680BD00BF00
:1011A00080B582B000AF78600B46FB707A684FF470
:1011B0005853C8F201131340002B02D17B68002B57
:1011C00007D14AF63470C0F600004FF48E61FFF785
:1011D0000DFAFB78002B0AD0FB78012B07D04AF6DA
:1011E0003470C0F6000040F27141FFF7FFF9FB7860
:1011F000002B0CD04FF48053C4F202034FF4805202
:10120000C4F20202D1697A680A43DA610DE04FF450
:101210008053C4F202034FF48052C4F20202D16937
:101220007A686FEA02020A40DA6107F10807BD46F0
:1012300080BD00BF80B582B000AF78600B46FB7008
:101240007A684FF00203CFF6C0731340002B02D12F
:101250007B68002B07D14AF63470C0F6000040F2DC
:10126000AB41FFF7C3F9FB78002B0AD0FB78012BC9
:1012700007D04AF63470C0F6000040F2AC41FFF7E8
:10128000B5F9FB78002B0CD04FF48053C4F2020365
:101290004FF48052C4F20202D1687A680A43DA60DD
:1012A0000DE04FF48053C4F202034FF48052C4F2B5
:1012B0000202D1687A686FEA02020A40DA6007F136
:1012C0000807BD4680BD00BF80B582B000AF786022
:1012D0000B46FB707A684FF45853C8F20113134061
:1012E000002B02D17B68002B07D14AF63470C0F680
:1012F000000040F2CA41FFF779F9FB78002B0AD0D1
:10130000FB78012B07D04AF63470C0F6000040F29B
:10131000CB41FFF76BF9FB78002B0CD04FF48053D7
:10132000C4F202034FF48052C4F2020211697A68D7
:101330000A431A610DE04FF48053C4F202034FF4E4
:101340008052C4F2020211697A686FEA02020A400E
:101350001A6107F10807BD4680BD00BF80B582B0A5
:1013600000AF0346FB71FB79002B0AD0FB79012B00
:1013700007D04AF63470C0F6000040F2DF41FFF7B4
:1013800035F94FF48863C4F24223FA791A6007F101
:101390000807BD4680BD00BF80B582B000AF0346E0
:1013A000FB71FB79002B0AD0FB79012B07D04AF6A1
:1013B0003470C0F6000040F2EC41FFF717F94FF02F
:1013C0004C03C4F24223FA791A6007F10807BD46BC
:1013D00080BD00BF80B582B000AF0346FB71FB79D2
:1013E000002B13D0FB79052B10D0FB79042B0DD0EB
:1013F000FB79062B0AD0FB79072B07D04AF634700D
:10140000C0F6000040F20C51FFF7F0F841F207037C
:10141000C4F20203FA791A7007F10807BD4680BDCD
:1014200080B586B000AF0346FB714FF00003FB6050
:101430004FF000037B614FF00003FB74FB79212B1D
:1014400025D0FB79312B22D0FB79392B1FD0FB79AA
:10145000412B1CD0FB79612B19D0FB797A2B16D04C
:10146000FB797B2B13D0FB797C2B10D0FB797D2B68
:101470000DD0FB797E2B0AD0FB797F2B07D04AF663
:101480003470C0F6000040F23B51FFF7AFF8FB7933
:101490004FEA5313DBB2FB60FB68012B06D14FF41C
:1014A0008053C4F202031B687B610FE0FB68022BD0
:1014B00006D14FF48053C4F202031B6A7B6105E03E
:1014C0004FF48053C4F202035B6A7B61FB7903F043
:1014D0001F03FB60FB687A6922FA03F303F0010340
:1014E000002B03D04FF00103FB7402E04FF0000328
:1014F000FB74FB7C184607F11807BD4680BD00BF92
:1015000080B400AF4FF48053C4F202034FF4805212
:10151000C4F20202526A42F080725A62BD4680BC36
:10152000704700BF80B584B000AF0346FB714FF039
:101530000003FB73FB79012B16D0FB79022B13D030
:10154000FB79042B10D0FB79082B0DD0FB79102BE5
:101550000AD0FB79802B07D04AF63470C0F6000021
:1015600040F28551FFF742F84FF48053C4F2020372
:101570009A68FB791340002B03D04FF00103FB73F3
:1015800002E04FF00003FB73FB7B184607F11007E6
:10159000BD4680BD80B582B000AF0346FB71FB79CC
:1015A00003F06003002B02D1FB79002B07D14AF630
:1015B0003470C0F6000040F2B251FFF717F841F264
:1015C0000A03C4F20203FA791A7007F10807BD464C
:1015D00080BD00BF80B582B000AF78607A684FF4FC
:1015E0000063C4F201039A4231D07A684FF4406339
:1015F000C4F201039A422AD07A684FF48053C4F2AD
:1016000001039A4223D07A684FF4A053C4F2010335
:101610009A421CD07A684FF4C053C4F201039A4234
:1016200015D07A684FF4E053C4F201039A420ED009
:101630007A684FF40053C4F201039A4207D04AF685
:101640009070C0F600004FF06E01FEF7CFFF7A6891
:101650004FF40063C4F201039A420CD14FF004002E
:101660004FF00101FFF7E6FD4FF004004FF00001DD
:10167000FFF7E0FD76E07A684FF44063C4F20103BF
:101680009A420CD14FF008004FF00101FFF7D2FD54
:101690004FF008004FF00001FFF7CCFD62E07A68E0
:1016A0004FF48053C4F201039A420CD14FF0100062
:1016B0004FF00101FFF7BEFD4FF010004FF00001A9
:1016C000FFF7B8FD4EE07A684FF4A053C4F201036F
:1016D0009A420CD14FF020004FF00101FFF7AAFD14
:1016E0004FF020004FF00001FFF7A4FD3AE07A68C8
:1016F0004FF4C053C4F201039A420CD14FF04000A2
:101700004FF00101FFF796FD4FF040004FF0000150
:10171000FFF790FD26E07A684FF4E053C4F201032E
:101720009A420CD14FF080004FF00101FFF782FD8B
:101730004FF080004FF00001FFF77CFD12E07A6867
:101740004FF40053C4F201039A420BD14FF480705E
:101750004FF00101FFF76EFD4FF480704FF0000174
:10176000FFF768FD07F10807BD4680BD80B500AFF3
:101770004FF001004FF00101FFF75CFD4FF0010059
:101780004FF00001FFF756FD80BD00BF80B588B067
:1017900000AF786039604FF00003FB614FF0000349
:1017A0003B614FF00003BB614FF00003FB604FF063
:1017B00000037B614FF00003BB607A684FF4006365
:1017C000C4F201039A4231D07A684FF44063C4F204
:1017D00001039A422AD07A684FF48053C4F201037D
:1017E0009A4223D07A684FF4A053C4F201039A427C
:1017F0001CD07A684FF4C053C4F201039A4215D04A
:101800007A684FF4E053C4F201039A420ED07A682A
:101810004FF40053C4F201039A4207D04AF6907085
:10182000C0F600004FF0B101FEF7E0FE3B68DB7848
:10183000002B23D03B68DB78042B1FD03B68DB7880
:10184000282B1BD03B68DB78482B17D03B68DB7814
:10185000142B13D03B68DB78102B0FD03B68DB7860
:101860001C2B0BD03B68DB78182B07D04AF6907006
:10187000C0F600004FF0B201FEF7B8FE3B681B88CF
:10188000002B07D14AF69070C0F600004FF0B3016C
:10189000FEF7ACFE3B68DB7803F00F03FB613B68AF
:1018A000DB7803F01003002B18D03B689B78012BEA
:1018B0000FD03B689B78022B0BD03B689B78032BA7
:1018C00007D04AF69070C0F600004FF0BA01FEF75C
:1018D0008DFE3B689B78FA691343FB613B681B886C
:1018E000DBB2002B4ED07B681B687B614FF000039E
:1018F000BB6141E0BB694FF0010202FA03F3FB60F8
:101900003B681B881A46FB6813403B613A69FB68D9
:101910009A422DD1BB694FEA8303FB60FB684FF00D
:101920000F0202FA03F3BB60BB686FEA03037A6934
:1019300013407B61FB68FA6902FA03F37A69134387
:101940007B613B68DB78282B07D1BB694FF0010234
:1019500002FA03F27B685A610AE03B68DB78482BA5
:1019600006D1BB694FF0010202FA03F27B681A61EB
:10197000BB6903F10103BB61BB69072BBAD97B6863
:101980007A691A603B681B88FF2B53D97B685B68B8
:101990007B614FF00003BB6146E0BB6903F10803C4
:1019A0004FF0010202FA03F3FB603B681B881A4602
:1019B000FB6813403B613A69FB689A4230D1BB69CE
:1019C0004FEA8303FB60FB684FF00F0202FA03F358
:1019D000BB60BB686FEA03037A6913407B61FB68F5
:1019E000FA6902FA03F37A6913437B613B68DB7897
:1019F000282B08D1BB6903F108034FF0010202FA5A
:101A000003F27B685A613B68DB78482B08D1BB69DD
:101A100003F108034FF0010202FA03F27B681A6136
:101A2000BB6903F10103BB61BB69072BB5D97B68B7
:101A30007A695A6007F12007BD4680BD80B483B043
:101A400000AF78607B684FF6FF721A807B684FF0BA
:101A500002029A707B684FF00402DA7007F10C07FB
:101A6000BD4680BC704700BF80B584B000AF7860D1
:101A70000B467B804FF00003FB737A684FF40063E2
:101A8000C4F201039A4231D07A684FF44063C4F241
:101A900001039A422AD07A684FF48053C4F20103BA
:101AA0009A4223D07A684FF4A053C4F201039A42B9
:101AB0001CD07A684FF4C053C4F201039A4215D087
:101AC0007A684FF4E053C4F201039A420ED07A6868
:101AD0004FF40053C4F201039A4207D04AF69070C3
:101AE000C0F6000040F21D11FEF780FD7B88012B3F
:101AF0003CD07B88022B39D07B88042B36D07B8866
:101B0000082B33D07B88102B30D07B88202B2DD016
:101B10007B88402B2AD07B88802B27D07B88B3F50D
:101B2000807F23D07B88B3F5007F1FD07B88B3F5FF
:101B3000806F1BD07B88B3F5006F17D07B88B3F51F
:101B4000805F13D07B88B3F5005F0FD07B88B3F53F
:101B5000804F0BD07B88B3F5004F07D04AF69070CA
:101B6000C0F600004FF48F71FEF740FD7B689A6865
:101B70007B881340002B03D04FF00103FB7302E07E
:101B80004FF00003FB73FB7B184607F11007BD46BF
:101B900080BD00BF80B582B000AF78607A684FF436
:101BA0000063C4F201039A4231D07A684FF4406373
:101BB000C4F201039A422AD07A684FF48053C4F2E7
:101BC00001039A4223D07A684FF4A053C4F2010370
:101BD0009A421CD07A684FF4C053C4F201039A426F
:101BE00015D07A684FF4E053C4F201039A420ED044
:101BF0007A684FF40053C4F201039A4207D04AF6C0
:101C00009070C0F6000040F23311FEF7EFFC7B68E5
:101C10009B689BB2184607F10807BD4680BD00BF10
:101C200080B584B000AF78600B467B804FF0000336
:101C3000FB737A684FF40063C4F201039A4231D017
:101C40007A684FF44063C4F201039A422AD07A685A
:101C50004FF48053C4F201039A4223D07A684FF4C0
:101C6000A053C4F201039A421CD07A684FF4C053C7
:101C7000C4F201039A4215D07A684FF4E053C4F2DB
:101C800001039A420ED07A684FF40053C4F2010364
:101C90009A4207D04AF69070C0F6000040F2431115
:101CA000FEF7A4FC7B88012B3CD07B88022B39D02B
:101CB0007B88042B36D07B88082B33D07B88102B75
:101CC00030D07B88202B2DD07B88402B2AD07B885E
:101CD000802B27D07B88B3F5807F23D07B88B3F51A
:101CE000007F1FD07B88B3F5806F1BD07B88B3F556
:101CF000006F17D07B88B3F5805F13D07B88B3F576
:101D0000005F0FD07B88B3F5804F0BD07B88B3F595
:101D1000004F07D04AF69070C0F600004FF4A27151
:101D2000FEF764FC7B68DA687B881340002B03D0E5
:101D30004FF00103FB7302E04FF00003FB73FB7BEA
:101D4000184607F11007BD4680BD00BF80B582B0C0
:101D500000AF78607A684FF40063C4F201039A42DE
:101D600031D07A684FF44063C4F201039A422AD01A
:101D70007A684FF48053C4F201039A4223D07A6800
:101D80004FF4A053C4F201039A421CD07A684FF476
:101D9000C053C4F201039A4215D07A684FF4E0535D
:101DA000C4F201039A420ED07A684FF40053C4F291
:101DB00001039A4207D04AF69070C0F6000040F244
:101DC0005911FEF713FC7B68DB689BB2184607F1DC
:101DD0000807BD4680BD00BF80B582B000AF786007
:101DE0000B467B807A684FF40063C4F201039A4289
:101DF00031D07A684FF44063C4F201039A422AD08A
:101E00007A684FF48053C4F201039A4223D07A686F
:101E10004FF4A053C4F201039A421CD07A684FF4E5
:101E2000C053C4F201039A4215D07A684FF4E053CC
:101E3000C4F201039A420ED07A684FF40053C4F200
:101E400001039A4207D04AF69070C0F600004FF4A2
:101E5000B471FEF7CBFB7B88002B07D14AF690705C
:101E6000C0F6000040F26911FEF7C0FB7A887B687B
:101E70001A6107F10807BD4680BD00BF80B582B07A
:101E800000AF78600B467B807A684FF40063C4F241
:101E900001039A4231D07A684FF44063C4F20103DF
:101EA0009A422AD07A684FF48053C4F201039A42CE
:101EB00023D07A684FF4A053C4F201039A421CD095
:101EC0007A684FF4C053C4F201039A4215D07A687D
:101ED0004FF4E053C4F201039A420ED07A684FF4F3
:101EE0000053C4F201039A4207D04AF69070C0F63C
:101EF00000004FF4BC71FEF779FB7B88002B07D103
:101F00004AF69070C0F6000040F27911FEF76EFBC1
:101F10007A887B685A6107F10807BD4680BD00BF1B
:101F200080B582B000AF786013460A467A807B7035
:101F30007A684FF40063C4F201039A4231D07A68A0
:101F40004FF44063C4F201039A422AD07A684FF4F6
:101F50008053C4F201039A4223D07A684FF4A0530D
:101F6000C4F201039A421CD07A684FF4C053C4F201
:101F700001039A4215D07A684FF4E053C4F201038A
:101F80009A420ED07A684FF40053C4F201039A4289
:101F900007D04AF69070C0F600004FF4C671FEF705
:101FA00025FB7B88012B3CD07B88022B39D07B889A
:101FB000042B36D07B88082B33D07B88102B30D075
:101FC0007B88202B2DD07B88402B2AD07B88802BB0
:101FD00027D07B88B3F5807F23D07B88B3F5007F43
:101FE0001FD07B88B3F5806F1BD07B88B3F5006F63
:101FF00017D07B88B3F5805F13D07B88B3F5005F83
:102000000FD07B88B3F5804F0BD07B88B3F5004FA2
:1020100007D04AF69070C0F6000040F28D11FEF72E
:10202000E5FA7B78002B0AD07B78012B07D04AF6A3
:102030009070C0F600004FF4C771FEF7D7FA7B78B6
:10204000002B03D07A887B681A6102E07A887B686B
:102050005A6107F10807BD4680BD00BF80B582B058
:1020600000AF78600B467B807A684FF40063C4F25F
:1020700001039A4231D07A684FF44063C4F20103FD
:102080009A422AD07A684FF48053C4F201039A42EC
:1020900023D07A684FF4A053C4F201039A421CD0B3
:1020A0007A684FF4C053C4F201039A4215D07A689B
:1020B0004FF4E053C4F201039A420ED07A684FF411
:1020C0000053C4F201039A4207D04AF69070C0F65A
:1020D000000040F2A311FEF789FA7A887B68DA6083
:1020E00007F10807BD4680BD80B584B000AF7860B9
:1020F0000B467B804FF48033FB607A684FF40063BB
:10210000C4F201039A4231D07A684FF44063C4F2BA
:1021100001039A422AD07A684FF48053C4F2010333
:102120009A4223D07A684FF4A053C4F201039A4232
:102130001CD07A684FF4C053C4F201039A4215D000
:102140007A684FF4E053C4F201039A420ED07A68E1
:102150004FF40053C4F201039A4207D04AF690703C
:10216000C0F600004FF4DA71FEF740FA7B88002BCE
:1021700007D14AF69070C0F6000040F2B511FEF7A4
:1021800035FA7B88FA681343FB607B68FA689A61CA
:102190007A887B689A617B68FA689A617B689B6938
:1021A000FB607B689B69FB6007F11007BD4680BD43
:1021B00080B584B000AF02460B46FA71BB714FF098
:1021C0000003FB60FB79002B13D0FB79012B10D0AF
:1021D000FB79022B0DD0FB79032B0AD0FB79042B62
:1021E00007D04AF69070C0F6000040F2D111FEF719
:1021F000FDF9BB79002B34D0BB79012B31D0BB79F1
:10220000022B2ED0BB79032B2BD0BB79042B28D0EB
:10221000BB79052B25D0BB79062B22D0BB79072BA8
:102220001FD0BB79082B1CD0BB79092B19D0BB79E7
:102230000A2B16D0BB790B2B13D0BB790C2B10D0EB
:10224000BB790D2B0DD0BB790E2B0AD0BB790F2B90
:1022500007D04AF69070C0F600004FF4E971FEF71F
:10226000C5F94FF00003C4F201031B68FB60FA6874
:102270004FF680731340FB60FB794FEA0313FA6853
:102280001343FB60BB79FA681343FB604FF0000314
:10229000C4F20103FA681A6007F11007BD4680BD59
:1022A00080B582B000AF0346FB71FB79002B0AD0EA
:1022B000FB79012B07D04AF69070C0F6000040F27F
:1022C000E511FEF793F94FF01C03C4F22023FA79CD
:1022D0001A6007F10807BD4680BD00BF80B586B013
:1022E00000AF78600B46FB704FF000033B614FF08E
:1022F0000003FB604FF000037B614FF00003BB6005
:102300007B68012B00F018817B68022B00F01481A0
:102310007B68042B00F010817B68082B00F00C8197
:102320007A684FF01003C0F214039A4200F004815F
:102330007A684FF03003C0F214039A4200F0FC8038
:102340007A684FF04003C0F216039A4200F0F4801E
:102350007A684FF0C003C0F216039A4200F0EC8096
:102360007A684FF48073C0F218039A4200F0E48058
:102370007A684FF40073C0F218039A4200F0DC80D0
:102380007A684FF44073C0F218039A4200F0D48088
:102390007A684FF40063C0F21A039A4200F0CC80CE
:1023A0007A684FF44063C0F21A039A4200F0C48086
:1023B0007B68B3F5805F00F0BF807B68B3F5EA1FF0
:1023C00000F0BA807B68B3F5EB1F00F0B5807B6846
:1023D000B3F5004F00F0B0807A684FF00103C0F20F
:1023E00020039A4200F0A8807A684FF00203C0F2FE
:1023F00020039A4200F0A0807A684FF00403C0F2F4
:1024000020039A4200F098807A684FF00803C0F2E7
:1024100020039A4200F090807A684FF01003C0F2D7
:1024200020039A4200F088807B68B3F1201F00F0FF
:1024300083807A684FF04003C0F220039A427BD039
:102440007A684FF48073C0F230039A4274D07A688D
:102450004FF40073C0F230039A426DD07A684FF4A3
:102460008063C0F230039A4266D07A684FF480539A
:10247000C0F220039A425FD07A684FF40053C0F252
:1024800020039A4258D07B68B3F5011F54D07A6874
:102490004FF00103C8F200039A424DD07A684FF022
:1024A0000203C8F200039A4246D07A684FF0040350
:1024B000C8F200039A423FD07A684FF00803C8F28E
:1024C00000039A4238D07A684FF01003C8F2000334
:1024D0009A4231D07A684FF02003C8F200039A4242
:1024E0002AD07A684FF04003C8F200039A4223D002
:1024F0007A684FF08003C8F200039A421CD07A68D1
:102500004FF48073C8F200039A4215D07A684FF4F2
:102510000073C8F200039A420ED07A684FF48063C9
:10252000C8F200039A4207D04AF69070C0F6000045
:1025300040F22221FEF75AF8FB78002B0AD0FB78F4
:10254000012B07D04AF69070C0F6000040F223211C
:10255000FEF74CF87B68002B06DA4FF00003C4F25C
:102560000103DB697B6105E04FF00003C4F2010366
:102570005B687B617B6803F470234FEA1343BB60A5
:102580007B684FEA03434FEA13433B617B6803F4E4
:102590004013B3F5401F10D17B6923F070637B615A
:1025A0004FF00003C4F201034FF00002C4F2010235
:1025B000526822F070625A6026E07B6803F4801350
:1025C000002B10D0BB684FF0030202FA03F3FB604C
:1025D000FB686FEA03037A6913407B617B6943F010
:1025E00070637B6110E07B684FEA53534FEA03133B
:1025F0003A6902FA03F36FEA03037A6913407B61D5
:102600007B6943F070637B61FB78002B0AD07B68A9
:102610004FEA53534FEA03133A6902FA03F37A6914
:1026200013437B617B68002B06DA4FF00003C4F292
:1026300001037A69DA6105E04FF00003C4F2010397
:102640007A695A6007F11807BD4680BD90B585B01C
:1026500000AF02460B46FA71BB714FF00003FB60FE
:10266000FB79002B19D0FB79012B16D0FB79022BBB
:1026700013D0FB79032B10D0FB79042B0DD0FB7901
:10268000052B0AD0FB79062B07D04AF69070C0F6CE
:10269000000040F25D21FDF7A9FFBB79002B34D08B
:1026A000BB79012B31D0BB79022B2ED0BB79032B08
:1026B0002BD0BB79042B28D0BB79052B25D0BB7937
:1026C000062B22D0BB79072B1FD0BB79082B1CD03F
:1026D000BB79092B19D0BB790A2B16D0BB790B2BF0
:1026E00013D0BB790C2B10D0BB790D2B0DD0BB793F
:1026F0000E2B0AD0BB790F2B07D04AF69070C0F68C
:10270000000040F25E21FDF771FFBB7903F0030387
:102710004FEA83034FF00F0202FA03F3FB604FF01E
:102720000003C4F20103BA794FEA9202D2B2104612
:102730004FF00002C4F20102B9794FEA9101C9B227
:1027400001F1020152F82110FA686FEA0202114009
:1027500000F1020243F822104FF00003C4F201031B
:10276000BA794FEA9202D2B210464FF00002C4F298
:102770000102B9794FEA9101C9B201F1020152F89F
:102780002110FC79BA7902F003024FEA820204FABE
:1027900002F2114300F1020243F8221007F114077C
:1027A000BD4690BD80B582B000AF78607B68002BDD
:1027B0000AD07B68012B07D04AF69070C0F6000063
:1027C0004FF41C71FDF712FF4FF0DC03C4F220231D
:1027D0007A681A6007F10807BD4680BD80B582B0EF
:1027E00000AF78607A684FF43053C4F201039A4224
:1027F00074D07B68B3F1804F70D07A684FF48063F7
:10280000C4F200039A4269D07A684FF40063C4F2BC
:1028100000039A4262D07A684FF44063C4F2000326
:102820009A425BD07A684FF48053C4F200039A4214
:1028300054D07A684FF4A053C4F200039A424DD0AA
:102840007A684FF45053C4F201039A4246D07A6832
:102850004FF49843C4F201039A423FD07A684FF490
:10286000A043C4F201039A4238D07A684FF4A843D7
:10287000C4F201039A4231D07A684FF4C053C4F2D3
:1028800000039A422AD07A684FF4E053C4F200035E
:102890009A4223D07A684FF40053C4F200039A425C
:1028A0001CD07A684FF48043C4F201039A4215D0D9
:1028B0007A684FF48843C4F201039A420ED07A68D2
:1028C0004FF49043C4F201039A4207D04AF6EC70E9
:1028D000C0F600004FF07C01FDF788FE7A684FF4E7
:1028E0003053C4F201039A420CD14FF400604FF010
:1028F0000101FEF79FFC4FF400604FF00001FEF76E
:1029000099FC3BE17B68B3F1804F0CD14FF00100A3
:102910004FF00101FEF7D8FC4FF001004FF000012D
:10292000FEF7D2FC2AE17A684FF48063C4F2000318
:102930009A420CD14FF002004FF00101FEF7C4FCA7
:102940004FF002004FF00001FEF7BEFC16E17A687E
:102950004FF40063C4F200039A420CD14FF004001C
:102960004FF00101FEF7B0FC4FF004004FF0000102
:10297000FEF7AAFC02E17A684FF44063C4F2000358
:102980009A420CD14FF008004FF00101FEF79CFC79
:102990004FF008004FF00001FEF796FCEEE07A6879
:1029A0004FF48053C4F200039A420CD14FF0100050
:1029B0004FF00101FEF788FC4FF010004FF00001CE
:1029C000FEF782FCDAE07A684FF4A053C4F2000309
:1029D0009A420CD14FF020004FF00101FEF774FC39
:1029E0004FF020004FF00001FEF76EFCC6E07A6861
:1029F0004FF45053C4F201039A420CD14FF40050EB
:102A00004FF00101FEF716FC4FF400504FF00001AB
:102A1000FEF710FCB2E07A684FF49843C4F2010369
:102A20009A420CD14FF400204FF00101FEF702FC56
:102A30004FF400204FF00001FEF7FCFB9EE07A68A7
:102A40004FF4A043C4F201039A420CD14FF480101A
:102A50004FF00101FEF7EEFB4FF480104FF0000144
:102A6000FEF7E8FB8AE07A684FF4A843C4F201035A
:102A70009A420CD14FF400104FF00101FEF7DAFB3F
:102A80004FF400104FF00001FEF7D4FB76E07A68B7
:102A90004FF4C053C4F200039A420CD14FF04000EF
:102AA0004FF00101FEF710FC4FF040004FF0000125
:102AB000FEF70AFC62E07A684FF4E053C4F20003C8
:102AC0009A420CD14FF080004FF00101FEF7FCFB61
:102AD0004FF080004FF00001FEF7F6FB4EE07A6801
:102AE0004FF40053C4F200039A420CD14FF48070AB
:102AF0004FF00101FEF7E8FB4FF480704FF000014A
:102B0000FEF7E2FB3AE07A684FF48043C4F2010337
:102B10009A420CD14FF480304FF00101FEF78AFB4E
:102B20004FF480304FF00001FEF784FB26E07A6816
:102B30004FF48843C4F201039A420CD14FF40030A1
:102B40004FF00101FEF776FB4FF400304FF000012B
:102B5000FEF770FB12E07A684FF49043C4F2010371
:102B60009A420BD14FF480204FF00101FEF762FB37
:102B70004FF480204FF00001FEF75CFB07F10807DF
:102B8000BD4680BD80B584B000AF786039604FF03D
:102B90000003FB817A684FF43053C4F201039A4278
:102BA00074D07B68B3F1804F70D07A684FF4806343
:102BB000C4F200039A4269D07A684FF40063C4F209
:102BC00000039A4262D07A684FF44063C4F2000373
:102BD0009A425BD07A684FF48053C4F200039A4261
:102BE00054D07A684FF4A053C4F200039A424DD0F7
:102BF0007A684FF45053C4F201039A4246D07A687F
:102C00004FF49843C4F201039A423FD07A684FF4DC
:102C1000A043C4F201039A4238D07A684FF4A84323
:102C2000C4F201039A4231D07A684FF4C053C4F21F
:102C300000039A422AD07A684FF4E053C4F20003AA
:102C40009A4223D07A684FF40053C4F200039A42A8
:102C50001CD07A684FF48043C4F201039A4215D025
:102C60007A684FF48843C4F201039A420ED07A681E
:102C70004FF49043C4F201039A4207D04AF6EC7035
:102C8000C0F600004FF0E501FDF7B0FC3B685B8843
:102C9000002B17D03B685B88102B13D03B685B88F8
:102CA000202B0FD03B685B88402B0BD03B685B88A8
:102CB000602B07D04AF6EC70C0F600004FF0E6013A
:102CC000FDF794FC3B68DB88002B11D03B68DB8868
:102CD000B3F5807F0CD03B68DB88B3F5007F07D06D
:102CE0004AF6EC70C0F600004FF0E701FDF77EFCFD
:102CF0007B681B88FB817A684FF43053C4F2010370
:102D00009A421FD07A684FF45053C4F201039A429A
:102D100018D07B68B3F1804F14D07A684FF4806389
:102D2000C4F200039A420DD07A684FF40063C4F2F3
:102D300000039A4206D07A684FF44063C4F200035D
:102D40009A4208D1FB8923F07003FB813B685A88C3
:102D5000FB891343FB817A684FF48053C4F200036C
:102D60009A420FD07A684FF4A053C4F200039A42FB
:102D700008D0FB8923F44073FB813B68DA88FB8928
:102D80001343FB817B68FA891A803B689A887B68C9
:102D90009A853B681A887B681A857A684FF43053A5
:102DA000C4F201039A421BD07A684FF45053C4F224
:102DB00001039A4214D07A684FF48043C4F20103AD
:102DC0009A420DD07A684FF48843C4F201039A42C4
:102DD00006D07A684FF49043C4F201039A4204D1BA
:102DE0003B681B7A1A467B681A867B684FF00102A3
:102DF0009A8207F11007BD4680BD00BF80B584B040
:102E000000AF786039604FF000037B814FF0000322
:102E1000FB814FF00003BB817A684FF43053C4F25A
:102E200001039A4266D07B68B3F1804F62D07A6822
:102E30004FF48063C4F200039A425BD07A684FF487
:102E40000063C4F200039A4254D07A684FF440639E
:102E5000C4F200039A424DD07A684FF45053C4F242
:102E600001039A4246D07A684FF49843C4F20103B2
:102E70009A423FD07A684FF4A043C4F201039A42C9
:102E800038D07A684FF4A843C4F201039A4231D093
:102E90007A684FF4C053C4F200039A422AD07A6889
:102EA0004FF4E053C4F200039A4223D07A684FF4FF
:102EB0000053C4F200039A421CD07A684FF4804356
:102EC000C4F201039A4215D07A684FF48843C4F2E1
:102ED00001039A420ED07A684FF49043C4F2010382
:102EE0009A4207D04AF6EC70C0F600004FF48D719C
:102EF000FDF77CFB3B681B88002B1BD03B681B88C5
:102F0000102B17D03B681B88202B13D03B681B88E5
:102F1000302B0FD03B681B88602B0BD03B681B8885
:102F2000702B07D04AF6EC70C0F6000040F21B117F
:102F3000FDF75CFB3B685B88002B0BD03B685B8834
:102F4000012B07D04AF6EC70C0F600004FF48E71EA
:102F5000FDF74CFB3B681B89002B0BD03B681B89A2
:102F6000022B07D04AF6EC70C0F6000040F21D11AB
:102F7000FDF73CFB7B681B8C9BB223F001039AB2EC
:102F80007B681A847B681B8CFB817B689B88BB8178
:102F90007B681B8B7B817B8923F070037B817B8922
:102FA00023F003037B813B681A887B8913437B8171
:102FB000FB8923F00203FB813B681A89FB891343D9
:102FC000FB813B685A88FB891343FB817A684FF485
:102FD0003053C4F201039A421BD07A684FF4505325
:102FE000C4F201039A4214D07A684FF48043C4F2C9
:102FF00001039A420DD07A684FF48843C4F201036A
:103000009A4206D07A684FF49043C4F201039A4280
:1030100065D13B689B88002B0BD03B689B88042BB9
:1030200007D04AF6EC70C0F600004FF49D71FDF732
:10303000DDFA3B685B89002B0BD03B685B89082B72
:1030400007D04AF6EC70C0F6000040F23B11FDF7E5
:10305000CDFA3B68DB89B3F5007F0BD03B68DB8999
:10306000002B07D04AF6EC70C0F600004FF49E71BA
:10307000FDF7BCFA3B689B89B3F5807F0BD03B68BA
:103080009B89002B07D04AF6EC70C0F6000040F296
:103090003D11FDF7ABFAFB8923F00803FB813B6888
:1030A0005A89FB891343FB81FB8923F00403FB81CD
:1030B0003B689A88FB891343FB81BB8923F48073A7
:1030C000BB81BB8923F40073BB813B689A89BB89B0
:1030D0001343BB813B68DA89BB891343BB817B689F
:1030E000BA899A807B687A891A833B68DA887B6818
:1030F0009A867B68FA891A8407F11007BD4680BD5D
:1031000080B584B000AF786039604FF000037B81F8
:103110004FF00003FB814FF00003BB817A684FF44E
:103120003053C4F201039A423CD07B68B3F1804F24
:1031300038D07A684FF48063C4F200039A4231D0E9
:103140007A684FF40063C4F200039A422AD07A6886
:103150004FF44063C4F200039A4223D07A684FF4DC
:103160005053C4F201039A421CD07A684FF498433A
:10317000C4F201039A4215D07A684FF4C053C4F2E6
:1031800000039A420ED07A684FF48043C4F20103E0
:103190009A4207D04AF6EC70C0F6000040F26D117A
:1031A000FDF724FA3B681B88002B1BD03B681B886B
:1031B000102B17D03B681B88202B13D03B681B8833
:1031C000302B0FD03B681B88602B0BD03B681B88D3
:1031D000702B07D04AF6EC70C0F600004FF4B771C0
:1031E000FDF704FA3B685B88002B0BD03B685B88DB
:1031F000012B07D04AF6EC70C0F6000040F26F11C8
:10320000FDF7F4F93B681B89002B0BD03B681B8949
:10321000022B07D04AF6EC70C0F600004FF4B871EC
:10322000FDF7E4F97B681B8C9BB223F010039AB284
:103230007B681A847B681B8CFB817B689B88BB81C5
:103240007B681B8B7B817B8923F4E0437B817B89BB
:1032500023F440737B813B681B884FEA03239AB2B7
:103260007B8913437B81FB8923F02003FB813B682F
:103270001B894FEA03139AB2FB891343FB813B6816
:103280005B884FEA03139AB2FB891343FB817A6888
:103290004FF43053C4F201039A4206D07A684FF4D7
:1032A0005053C4F201039A4271D13B689B88002BB2
:1032B0000BD03B689B88042B07D04AF6EC70C0F615
:1032C000000040F28D11FDF791F93B685B89002BFE
:1032D0000BD03B685B89082B07D04AF6EC70C0F630
:1032E00000004FF4C771FDF781F93B68DB89B3F546
:1032F000007F0BD03B68DB89002B07D04AF6EC70CF
:10330000C0F6000040F28F11FDF770F93B689B8911
:10331000B3F5807F0BD03B689B89002B07D04AF622
:10332000EC70C0F600004FF4C871FDF75FF9FB893F
:1033300023F08003FB813B685B894FEA03139AB259
:10334000FB891343FB81FB8923F04003FB813B682E
:103350009B884FEA03139AB2FB891343FB81BB8915
:1033600023F48063BB81BB8923F40063BB813B688A
:103370009B894FEA83039AB2BB891343BB813B68A5
:10338000DB894FEA83039AB2BB891343BB817B6815
:10339000BA899A807B687A891A833B68DA887B6865
:1033A0001A877B68FA891A8407F11007BD4680BD29
:1033B00080B584B000AF786039604FF000037B8146
:1033C0004FF00003FB814FF00003BB817A684FF49C
:1033D0003053C4F201039A4227D07B68B3F1804F87
:1033E00023D07A684FF48063C4F200039A421CD061
:1033F0007A684FF40063C4F200039A4215D07A68E9
:103400004FF44063C4F200039A420ED07A684FF43E
:103410005053C4F201039A4207D04AF6EC70C0F64A
:10342000000040F2BF11FDF7E1F83B681B88002B5C
:103430001BD03B681B88102B17D03B681B88202BA8
:1034400013D03B681B88302B0FD03B681B88602B48
:103450000BD03B681B88702B07D04AF6EC70C0F687
:1034600000004FF4E071FDF7C1F83B685B88002B6A
:103470000BD03B685B88012B07D04AF6EC70C0F696
:10348000000040F2C111FDF7B1F83B681B89002B29
:103490000BD03B681B89022B07D04AF6EC70C0F6B4
:1034A00000004FF4E171FDF7A1F87B681B8C9BB223
:1034B00023F480739AB27B681A847B681B8CFB812F
:1034C0007B689B88BB817B689B8B7B817B8923F09E
:1034D00070037B817B8923F003037B813B681A881F
:1034E0007B8913437B81FB8923F40073FB813B6859
:1034F0001B894FEA03239AB2FB891343FB813B6884
:103500005B884FEA03239AB2FB891343FB817A68F5
:103510004FF43053C4F201039A4206D07A684FF454
:103520005053C4F201039A4271D13B689B88002B2F
:103530000BD03B689B88042B07D04AF6EC70C0F692
:1035400000004FF4EF71FDF751F83B685B89002BE9
:103550000BD03B685B89082B07D04AF6EC70C0F6AD
:10356000000040F2DF11FDF741F83B68DB89B3F55D
:10357000007F0BD03B68DB89002B07D04AF6EC704C
:10358000C0F600004FF4F071FDF730F83B689B89FE
:10359000B3F5807F0BD03B689B89002B07D04AF6A0
:1035A000EC70C0F6000040F2E111FDF71FF8FB8956
:1035B00023F40063FB813B685B894FEA03239AB2E3
:1035C000FB891343FB81FB8923F48063FB813B6808
:1035D0009B884FEA03239AB2FB891343FB81BB8983
:1035E00023F48053BB81BB8923F40053BB813B6828
:1035F0009B894FEA03139AB2BB891343BB813B6893
:10360000DB894FEA03139AB2BB891343BB817B6802
:10361000BA899A807B687A899A833B68DA887B6862
:103620009A877B68FA891A8407F11007BD4680BD26
:1036300080B584B000AF786039604FF00003BB8183
:103640004FF000037B814FF00003FB817A684FF459
:103650003053C4F201039A4227D07B68B3F1804F04
:1036600023D07A684FF48063C4F200039A421CD0DE
:103670007A684FF40063C4F200039A4215D07A6866
:103680004FF44063C4F200039A420ED07A684FF4BC
:103690005053C4F201039A4207D04AF6EC70C0F6C8
:1036A000000040F20E21FCF7A1FF3B681B88002BB5
:1036B0001BD03B681B88102B17D03B681B88202B26
:1036C00013D03B681B88302B0FD03B681B88602BC6
:1036D0000BD03B681B88702B07D04AF6EC70C0F605
:1036E000000040F20F21FCF781FF3B685B88002B54
:1036F0000BD03B685B88012B07D04AF6EC70C0F614
:1037000000004FF40471FCF771FF3B681B89002B2C
:103710000BD03B681B89022B07D04AF6EC70C0F631
:10372000000040F21121FCF761FF7B681B8C9BB20B
:1037300023F480539AB27B681A847B681B8C7B814C
:103740007B689B88FB817B689B8BBB81BB8923F457
:10375000E043BB81BB8923F44073BB813B681B887A
:103760004FEA03239AB2BB891343BB817B8923F4BD
:1037700000537B813B681B894FEA03339AB27B89F4
:1037800013437B813B685B884FEA03339AB27B89A2
:1037900013437B817A684FF43053C4F201039A4299
:1037A00006D07A684FF45053C4F201039A421CD1F8
:1037B0003B689B89B3F5807F0BD03B689B89002BCE
:1037C00007D04AF6EC70C0F6000040F22E21FCF75C
:1037D0000DFFFB8923F48043FB813B689B894FEA03
:1037E00083139AB2FB891343FB817B68FA899A8021
:1037F0007B68BA899A833B68DA887B68A3F84020A3
:103800007B687A891A8407F11007BD4680BD00BF26
:1038100080B582B000AF786039603B681B88002BB0
:1038200013D03B681B88042B0FD03B681B88082BE8
:103830000BD03B681B880C2B07D04AF6EC70C0F607
:1038400000004FF41371FCF7D1FE3B685B88002B3E
:103850000BD03B685B88022B07D04AF6EC70C0F6B1
:10386000000040F24D21FCF7C1FE3B689B88012B14
:103870000FD03B689B88022B0BD03B689B88032BA7
:1038800007D04AF6EC70C0F6000040F24E21FCF77B
:10389000ADFE3B68DB88002B13D03B68DB88042B34
:1038A0000FD03B68DB88082B0BD03B68DB880C2BE8
:1038B00007D04AF6EC70C0F6000040F24F21FCF74A
:1038C00095FE3B681B890F2B07D94AF6EC70C0F6B2
:1038D00000004FF41471FCF789FE3B681B88002B35
:1038E0007DD17A684FF43053C4F201039A4266D016
:1038F0007B68B3F1804F62D07A684FF48063C4F282
:1039000000039A425BD07A684FF40063C4F200036C
:103910009A4254D07A684FF44063C4F200039A424A
:103920004DD07A684FF45053C4F201039A4246D006
:103930007A684FF49843C4F201039A423FD07A6800
:103940004FF4A043C4F201039A4238D07A684FF48E
:10395000A843C4F201039A4231D07A684FF4C053AD
:10396000C4F200039A422AD07A684FF4E053C4F2BA
:1039700000039A4223D07A684FF40053C4F2000344
:103980009A421CD07A684FF48043C4F201039A42F1
:1039900015D07A684FF48843C4F201039A420ED0DE
:1039A0007A684FF49043C4F201039A4207D04AF672
:1039B000EC70C0F600004FF41571FCF717FE3B6881
:1039C00059883B689A883B681B89786804F0B2FE86
:1039D0003B68DB887868194603F022FFD8E03B6833
:1039E0001B88042B53D17A684FF43053C4F201037F
:1039F0009A423CD07B68B3F1804F38D07A684FF45C
:103A00008063C4F200039A4231D07A684FF40063B5
:103A1000C4F200039A422AD07A684FF44063C4F299
:103A200000039A4223D07A684FF45053C4F2010342
:103A30009A421CD07A684FF49843C4F201039A4228
:103A400015D07A684FF4C053C4F200039A420ED0E6
:103A50007A684FF48043C4F201039A4207D04AF6D1
:103A6000EC70C0F6000040F25E21FCF7BFFD3B6841
:103A700059883B689A883B681B89786804F09AFEED
:103A80003B68DB887868194603F066FF80E03B6896
:103A90001B88082B3ED17A684FF43053C4F20103DF
:103AA0009A4227D07B68B3F1804F23D07A684FF4D5
:103AB0008063C4F200039A421CD07A684FF400631A
:103AC000C4F200039A4215D07A684FF44063C4F2FE
:103AD00000039A420ED07A684FF45053C4F20103A7
:103AE0009A4207D04AF6EC70C0F600004FF41A7103
:103AF000FCF77CFD3B6859883B689A883B681B89CA
:103B0000786804F0A5FE3B68DB887868194603F006
:103B100099FF3DE07A684FF43053C4F201039A42B2
:103B200027D07B68B3F1804F23D07A684FF480634D
:103B3000C4F200039A421CD07A684FF40063C4F2C6
:103B400000039A4215D07A684FF44063C4F2000330
:103B50009A420ED07A684FF45053C4F201039A424D
:103B600007D04AF6EC70C0F6000040F27221FCF774
:103B70003DFD3B6859883B689A883B681B8978689B
:103B800004F0ACFE3B68DB887868194603F0B8FFA8
:103B900007F10807BD4680BD80B584B000AF7860EE
:103BA00039604FF00003FB814FF00103BB817A685D
:103BB0004FF43053C4F201039A423CD07B68B3F116
:103BC000804F38D07A684FF48063C4F200039A4281
:103BD00031D07A684FF40063C4F200039A422AD0CD
:103BE0007A684FF44063C4F200039A4223D07A68A3
:103BF0004FF45053C4F201039A421CD07A684FF438
:103C00009843C4F201039A4215D07A684FF4C05326
:103C1000C4F200039A420ED07A684FF48043C4F293
:103C200001039A4207D04AF6EC70C0F6000040F259
:103C30008921FCF7DBFC3B685B88002B03D14FF04C
:103C40000203FB8102E04FF00003FB813B689B888D
:103C5000012B03D14FF00203BB8102E04FF00103BF
:103C6000BB813B681B88002B1CD13B6859883B6893
:103C70009A883B681B89786804F05CFD3B68DB88A8
:103C80007868194603F0CCFD3B681B89F989BA892D
:103C9000786804F08FFD3B68DB887868194603F08C
:103CA0005BFE1BE03B6859883B689A883B681B8930
:103CB000786804F07FFD3B68DB887868194603F07C
:103CC0004BFE3B681B89F989BA89786804F032FD9C
:103CD0003B68DB887868194603F0A2FD07F11007FE
:103CE000BD4680BD80B582B000AF786039607A682B
:103CF0004FF43053C4F201039A4223D07A684FF450
:103D00005053C4F201039A421CD07A684FF48043A6
:103D1000C4F201039A4215D07A684FF48843C4F282
:103D200001039A420ED07A684FF49043C4F2010323
:103D30009A4207D04AF6EC70C0F6000040F2C1216A
:103D4000FCF754FC3B681B88B3F5006F0BD03B6855
:103D50001B88002B07D04AF6EC70C0F6000040F23A
:103D6000C221FCF743FC3B685B88B3F5806F0BD046
:103D70003B685B88002B07D04AF6EC70C0F6000069
:103D800040F2C321FCF732FC3B689B88002B16D025
:103D90003B689B88B3F5807F11D03B689B88B3F567
:103DA000007F0CD03B689B88B3F5407F07D04AF674
:103DB000EC70C0F600004FF43171FCF717FC3B6863
:103DC0001B89B3F5805F0BD03B681B89002B07D0A4
:103DD0004AF6EC70C0F6000040F2C521FCF706FC84
:103DE0003B685B89002B0CD03B685B89B3F5005FB7
:103DF00007D04AF6EC70C0F6000040F2C621FCF78E
:103E0000F5FB3B689B89B3F5804F0BD03B689B89E2
:103E1000002B07D04AF6EC70C0F6000040F2C72134
:103E2000FCF7E4FB3B681A883B685B8813439AB253
:103E30003B689B8813439AB23B68DB8813439AB272
:103E40003B681B8913439AB23B685B8913439AB260
:103E50003B689B8913439AB27B68A3F8442007F11F
:103E60000807BD4680BD00BF80B483B000AF786056
:103E70007B684FF6FF729A807B684FF000021A80D1
:103E80007B684FF00002DA807B684FF000025A80B6
:103E90007B684FF000021A7207F10C07BD4680BC28
:103EA000704700BF80B483B000AF78607B684FF08C
:103EB00000021A807B684FF000025A807B684FF046
:103EC00000029A807B684FF00002DA807B684FF036
:103ED00000021A817B684FF000025A817B684FF024
:103EE00000029A817B684FF00002DA8107F10C072B
:103EF000BD4680BC704700BF80B483B000AF78601F
:103F00007B684FF000021A807B684FF000025A80F5
:103F10007B684FF001029A807B684FF00002DA80E4
:103F20007B684FF000021A8107F10C07BD4680BC88
:103F3000704700BF80B483B000AF78607B684FF0FB
:103F400000021A807B684FF000025A807B684FF0B5
:103F500000029A807B684FF00002DA807B684FF0A5
:103F600000021A817B684FF000025A817B684FF093
:103F700000029A8107F10C07BD4680BC704700BF64
:103F800080B582B000AF78600B46FB707A684FF462
:103F90003053C4F201039A4274D07B68B3F1804F6E
:103FA00070D07A684FF48063C4F200039A4269D0FB
:103FB0007A684FF40063C4F200039A4262D07A68D0
:103FC0004FF44063C4F200039A425BD07A684FF426
:103FD0008053C4F200039A4254D07A684FF4A0533D
:103FE000C4F200039A424DD07A684FF45053C4F2A1
:103FF00001039A4246D07A684FF49843C4F2010311
:104000009A423FD07A684FF4A043C4F201039A4227
:1040100038D07A684FF4A843C4F201039A4231D0F1
:104020007A684FF4C053C4F200039A422AD07A68E7
:104030004FF4E053C4F200039A4223D07A684FF45D
:104040000053C4F200039A421CD07A684FF48043B4
:10405000C4F201039A4215D07A684FF48843C4F23F
:1040600001039A420ED07A684FF49043C4F20103E0
:104070009A4207D04AF6EC70C0F6000040F21F31B9
:10408000FCF7B4FAFB78002B0AD0FB78012B07D0A1
:104090004AF6EC70C0F600004FF44871FCF7A6FA3F
:1040A000FB78002B08D07B681B889BB243F0010390
:1040B0009AB27B681A8007E07B681B889BB223F06A
:1040C00001039AB27B681A8007F10807BD4680BDDC
:1040D00080B582B000AF78600B46FB707A684FF411
:1040E0003053C4F201039A4223D07A684FF45053FC
:1040F000C4F201039A421CD07A684FF48043C4F2A0
:1041000001039A4215D07A684FF48843C4F2010340
:104110009A420ED07A684FF49043C4F201039A4257
:1041200007D04AF6EC70C0F600004FF44E71FCF771
:104130005DFAFB78002B0AD0FB78012B07D04AF6FA
:10414000EC70C0F6000040F23931FCF74FFAFB7812
:10415000002B0CD07B68B3F844309BB26FEA43432A
:104160006FEA53439AB27B68A3F844200BE07B6864
:10417000B3F844309BB24FEA43434FEA53439AB2F9
:104180007B68A3F8442007F10807BD4680BD00BF47
:1041900080B582B000AF786013460A467A807B70A3
:1041A0007A684FF43053C4F201039A4274D07B68AA
:1041B000B3F1804F70D07A684FF48063C4F200038B
:1041C0009A4269D07A684FF40063C4F200039A42BD
:1041D00062D07A684FF44063C4F200039A425BD025
:1041E0007A684FF48053C4F200039A4254D07A683C
:1041F0004FF4A053C4F200039A424DD07A684FF4B2
:104200005053C4F201039A4246D07A684FF498435F
:10421000C4F201039A423FD07A684FF4A043C4F23B
:1042200001039A4238D07A684FF4A843C4F20103DC
:104230009A4231D07A684FF4C053C4F200039A42D4
:104240002AD07A684FF4E053C4F200039A4223D094
:104250007A684FF40053C4F200039A421CD07A6883
:104260004FF48043C4F201039A4215D07A684FF4A8
:104270008843C4F201039A420ED07A684FF4904307
:10428000C4F201039A4207D04AF6EC70C0F600006F
:1042900040F26131FCF7AAF97B8803F47F43002BDD
:1042A00002D17B88002B07D14AF6EC70C0F60000E3
:1042B00040F26231FCF79AF97B78002B0AD07B78C8
:1042C000012B07D04AF6EC70C0F6000040F26331D3
:1042D000FCF78CF97B78002B08D07B689B899AB21D
:1042E0007B8813439AB27B689A810AE07B689B893A
:1042F0009AB27B886FEA03039BB213409AB27B6841
:104300009A8107F10807BD4680BD00BF80B582B025
:1043100000AF78600B467B807A684FF43053C4F26C
:1043200001039A4274D07B68B3F1804F70D07A68F1
:104330004FF48063C4F200039A4269D07A684FF464
:104340000063C4F200039A4262D07A684FF440637B
:10435000C4F200039A425BD07A684FF48053C4F2EF
:1043600000039A4254D07A684FF4A053C4F2000379
:104370009A424DD07A684FF45053C4F201039A42E6
:1043800046D07A684FF49843C4F201039A423FD072
:104390007A684FF4A043C4F201039A4238D07A6895
:1043A0004FF4A843C4F201039A4231D07A684FF423
:1043B000C053C4F200039A422AD07A684FF4E05303
:1043C000C4F200039A4223D07A684FF40053C4F237
:1043D00000039A421CD07A684FF48043C4F2010370
:1043E0009A4215D07A684FF48843C4F201039A4286
:1043F0000ED07A684FF49043C4F201039A4207D07A
:104400004AF6EC70C0F6000040F28631FCF7EEF898
:104410007B8803F47F43002B02D17B88002B07D1DC
:104420004AF6EC70C0F6000040F28731FCF7DEF887
:104430007B687A889A8207F10807BD4680BD00BF75
:1044400080B582B000AF786013460A467A803B8020
:104450007A684FF43053C4F201039A423CD07B682F
:10446000B3F1804F38D07A684FF48063C4F2000310
:104470009A4231D07A684FF40063C4F200039A4242
:104480002AD07A684FF44063C4F200039A4223D0E2
:104490007A684FF45053C4F201039A421CD07A68F0
:1044A0004FF48043C4F201039A4215D07A684FF466
:1044B0008843C4F201039A420ED07A684FF49043C5
:1044C000C4F201039A4207D04AF6EC70C0F600002D
:1044D00040F2A231FCF78AF87B88002B3DD07B8824
:1044E000012B3AD07B88022B37D07B88032B34D02A
:1044F0007B88042B31D07B88052B2ED07B88062B24
:104500002BD07B88072B28D07B88082B25D07B8855
:10451000092B22D07B880A2B1FD07B880B2B1CD029
:104520007B880C2B19D07B880D2B16D07B880E2B0B
:1045300013D07B880F2B10D07B88102B0DD07B885D
:10454000112B0AD07B88122B07D04AF6EC70C0F6EC
:10455000000040F2A331FCF749F83B88002B4BD018
:104560003B88B3F5807F47D03B88B3F5007F43D0CD
:104570003B88B3F5407F3FD03B88B3F5806F3BD09D
:104580003B88B3F5A06F37D03B88B3F5C06F33D00D
:104590003B88B3F5E06F2FD03B88B3F5006F2BD08D
:1045A0003B88B3F5106F27D03B88B3F5206F23D03D
:1045B0003B88B3F5306F1FD03B88B3F5406F1BD0FD
:1045C0003B88B3F5506F17D03B88B3F5606F13D0BD
:1045D0003B88B3F5706F0FD03B88B3F5805F0BD08D
:1045E0003B88B3F5885F07D04AF6EC70C0F6000050
:1045F0004FF46971FBF7FAFF7A883B8813439AB24C
:104600007B68A3F8482007F10807BD4680BD00BFBE
:1046100080B582B000AF786013460A467A807B701E
:104620007A684FF43053C4F201039A424AD07B684F
:10463000B3F1804F46D07A684FF48063C4F2000330
:104640009A423FD07A684FF40063C4F200039A4262
:1046500038D07A684FF44063C4F200039A4231D0F4
:104660007A684FF48053C4F200039A422AD07A68E1
:104670004FF4A053C4F200039A4223D07A684FF457
:104680005053C4F201039A421CD07A684FF480431D
:10469000C4F201039A4215D07A684FF48843C4F2F9
:1046A00001039A420ED07A684FF49043C4F201039A
:1046B0009A4207D04AF6EC70C0F6000040F2BD31D5
:1046C000FBF794FF7A8848F2FF031340002B02D1D6
:1046D0007B88002B07D14AF6EC70C0F6000040F250
:1046E000BE31FBF783FF7B78002B0AD07B78012B50
:1046F00007D04AF6EC70C0F6000040F2BF31FBF77D
:1047000075FF7B78002B08D07B689B899AB27B88E9
:1047100013439AB27B689A810AE07B689B899AB2BC
:104720007B886FEA03039BB213409AB27B689A813D
:1047300007F10807BD4680BD80B582B000AF786044
:104740007A684FF43053C4F201039A423CD07B683C
:10475000B3F1804F38D07A684FF48063C4F200031D
:104760009A4231D07A684FF40063C4F200039A424F
:104770002AD07A684FF44063C4F200039A4223D0EF
:104780007A684FF45053C4F201039A421CD07A68FD
:104790004FF49843C4F201039A4215D07A684FF45B
:1047A000C053C4F200039A420ED07A684FF480439B
:1047B000C4F201039A4207D04AF6EC70C0F600003A
:1047C00040F2D631FBF712FF7B681B899BB223F0C6
:1047D00007039AB27B681A8107F10807BD4680BDBE
:1047E00080B582B000AF78600B467B807A684FF46A
:1047F0003053C4F201039A423CD07B68B3F1804F3E
:1048000038D07A684FF48063C4F200039A4231D002
:104810007A684FF40063C4F200039A422AD07A689F
:104820004FF44063C4F200039A4223D07A684FF4F5
:104830005053C4F201039A421CD07A684FF4984353
:10484000C4F201039A4215D07A684FF4C053C4F2FF
:1048500000039A420ED07A684FF48043C4F20103F9
:104860009A4207D04AF6EC70C0F6000040F2E931F7
:10487000FBF7BCFE7B88002B10D07B88102B0DD063
:104880007B88202B0AD07B88302B07D04AF6EC702F
:10489000C0F6000040F2EA31FBF7A8FE7B8878689A
:1048A000194600F02DFB7B681B899BB243F0070380
:1048B0009AB27B681A8107F10807BD4680BD00BF28
:1048C00080B584B000AFF86079813A81FB80FA68E6
:1048D0004FF43053C4F201039A423CD0FB68B3F169
:1048E000804F38D0FA684FF48063C4F200039A42D4
:1048F00031D0FA684FF40063C4F200039A422AD020
:10490000FA684FF44063C4F200039A4223D0FA6875
:104910004FF45053C4F201039A421CD0FA684FF48A
:104920009843C4F201039A4215D0FA684FF4C05379
:10493000C4F200039A420ED0FA684FF48043C4F2E6
:1049400001039A4207D04AF6EC70C0F6000040F22C
:104950000541FBF74BFE7B89502B0DD07B89602BEB
:104960000AD07B89402B07D04AF6EC70C0F60000D5
:1049700040F20641FBF73AFE3B89002B0AD03B8907
:10498000022B07D04AF6EC70C0F6000040F2074157
:10499000FBF72CFEFB880F2B07D94AF6EC70C0F60C
:1049A00000004FF48161FBF721FE7B89602B08D169
:1049B0003A89FB88F86811464FF0010203F0FAFECD
:1049C00007E03A89FB88F86811464FF0010203F0CE
:1049D000B1FE7B89F868194600F092FAFB681B89E2
:1049E0009BB243F007039AB2FB681A8107F11007E4
:1049F000BD4680BD80B586B000AFF86079813A8150
:104A0000FB804FF00003FB82FA684FF43053C4F28E
:104A100001039A4227D0FB68B3F1804F23D0FA6894
:104A20004FF48063C4F200039A421CD0FA684FF43A
:104A30000063C4F200039A4215D0FA684FF4406351
:104A4000C4F200039A420ED0FA684FF45053C4F2F5
:104A500001039A4207D04AF6EC70C0F6000040F21B
:104A60002E41FBF7C3FD7B89002B13D07B89B3F567
:104A7000805F0FD07B89B3F5005F0BD07B89B3F5E6
:104A8000405F07D04AF6EC70C0F6000040F22F41BC
:104A9000FBF7ACFD3B89B3F5004F0AD03B89002BF7
:104AA00007D04AF6EC70C0F600004FF48661FBF7C1
:104AB0009DFDFB880F2B07D94AF6EC70C0F600006D
:104AC00040F23141FBF792FD79893A89FB88F86819
:104AD00000F094F8FB681B89FB82FB8A23F0070334
:104AE000FB82FB8A43F00703FB82FB8A23F07003FF
:104AF000FB82FB8A43F07003FB82FB68FA8A1A810F
:104B000007F11807BD4680BD80B584B000AFF860DE
:104B100079813A81FB80FA684FF43053C4F2010383
:104B20009A4227D0FB68B3F1804F23D0FA684FF444
:104B30008063C4F200039A421CD0FA684FF4006309
:104B4000C4F200039A4215D0FA684FF44063C4F2ED
:104B500000039A420ED0FA684FF45053C4F2010396
:104B60009A4207D04AF6EC70C0F6000040F2574176
:104B7000FBF73CFD7B89002B13D07B89B3F5805F6D
:104B80000FD07B89B3F5005F0BD07B89B3F5405F15
:104B900007D04AF6EC70C0F600004FF48B61FBF7CB
:104BA00025FD3B89B3F5004F0AD03B89002B07D088
:104BB0004AF6EC70C0F6000040F25941FBF716FDD2
:104BC000FB880F2B07D94AF6EC70C0F6000040F2C4
:104BD0005A41FBF70BFD79893A89FB88F86800F0A8
:104BE0000DF8FB681B899BB243F480439AB2FB68C3
:104BF0001A8107F11007BD4680BD00BF80B586B0A1
:104C000000AFF86079813A81FB804FF00003FB82AE
:104C1000FA684FF43053C4F201039A4227D0FB687C
:104C2000B3F1804F23D0FA684FF48063C4F20003DD
:104C30009A421CD0FA684FF40063C4F200039A420F
:104C400015D0FA684FF44063C4F200039A420ED0C4
:104C5000FA684FF45053C4F201039A4207D04AF65F
:104C6000EC70C0F6000040F27741FBF7BFFC7B8997
:104C7000002B13D07B89B3F5805F0FD07B89B3F510
:104C8000005F0BD07B89B3F5405F07D04AF6EC702C
:104C9000C0F600004FF48F61FBF7A8FC3B89B3F529
:104CA000004F0AD03B89002B07D04AF6EC70C0F6C3
:104CB000000040F27941FBF799FCFB880F2B07D9E4
:104CC0004AF6EC70C0F6000040F27A41FBF78EFC29
:104CD000FB681B89FB82FB8ADBB2FB82FB884FEA05
:104CE00003239AB23B8913439AB27B8913439AB246
:104CF000FB8A1343FB82FB68FA8A1A8107F11807C3
:104D0000BD4680BD80B582B000AF786013460A46CC
:104D10007A803B807A684FF43053C4F201039A42A0
:104D200074D07B68B3F1804F70D07A684FF48063A1
:104D3000C4F200039A4269D07A684FF40063C4F267
:104D400000039A4262D07A684FF44063C4F20003D1
:104D50009A425BD07A684FF48053C4F200039A42BF
:104D600054D07A684FF4A053C4F200039A424DD055
:104D70007A684FF45053C4F201039A4246D07A68DD
:104D80004FF49843C4F201039A423FD07A684FF43B
:104D9000A043C4F201039A4238D07A684FF4A84382
:104DA000C4F201039A4231D07A684FF4C053C4F27E
:104DB00000039A422AD07A684FF4E053C4F2000309
:104DC0009A4223D07A684FF40053C4F200039A4207
:104DD0001CD07A684FF48043C4F201039A4215D084
:104DE0007A684FF48843C4F201039A420ED07A687D
:104DF0004FF49043C4F201039A4207D04AF6EC7094
:104E0000C0F6000040F29141FBF7F0FB3B88002B1D
:104E10000AD03B88012B07D04AF6EC70C0F60000A0
:104E200040F29241FBF7E2FB7B687A881A857B6847
:104E30003A889A8207F10807BD4680BD80B584B0E4
:104E400000AF78600B467B804FF00003FB817A68EF
:104E50004FF43053C4F201039A4227D07B68B3F178
:104E6000804F23D07A684FF48063C4F200039A42E3
:104E70001CD07A684FF40063C4F200039A4215D044
:104E80007A684FF44063C4F200039A420ED07A6805
:104E90004FF45053C4F201039A4207D04AF6EC7023
:104EA000C0F6000040F2A941FBF7A0FB7B88002B75
:104EB00013D07B88102B10D07B88202B0DD07B88C3
:104EC000402B0AD07B88602B07D04AF6EC70C0F6E6
:104ED000000040F2AA41FBF789FB7B681B88FB813D
:104EE000FB8923F07003FB81FA897B881343FB81E4
:104EF0007B68FA891A8007F11007BD4680BD00BFA4
:104F000080B584B000AF78600B467B804FF0000323
:104F1000FB817A684FF43053C4F201039A423CD0CB
:104F20007B68B3F1804F38D07A684FF48063C4F265
:104F300000039A4231D07A684FF40063C4F2000350
:104F40009A422AD07A684FF44063C4F200039A422E
:104F500023D07A684FF45053C4F201039A421CD014
:104F60007A684FF49843C4F201039A4215D07A68E4
:104F70004FF4C053C4F200039A420ED07A684FF443
:104F80008043C4F201039A4207D04AF6EC70C0F69F
:104F9000000040F2C741FBF729FB7B88002B1CD0A7
:104FA0007B88102B19D07B88202B16D07B88302B48
:104FB00013D07B88402B10D07B88502B0DD07B8862
:104FC000602B0AD07B88702B07D04AF6EC70C0F6B5
:104FD00000004FF49961FBF709FB7B681B89FB819B
:104FE000FB8923F07003FB81FA897B881343FB81E3
:104FF0007B68FA891A8107F11007BD4680BD00BFA2
:1050000080B586B000AFF86079813A81FB804FF0BF
:105010000003FB824FF00003BB824FF000037B8252
:10502000FA684FF43053C4F201039A422ED0FB6861
:10503000B3F1804F2AD0FA684FF48063C4F20003C2
:105040009A4223D0FA684FF40063C4F200039A42F4
:105050001CD0FA684FF44063C4F200039A4215D0A2
:10506000FA684FF45053C4F201039A420ED0FA6822
:105070004FF48043C4F201039A4207D04AF6EC7021
:10508000C0F6000040F2EE41FBF7B0FA7B89012B3D
:105090000DD07B89022B0AD07B89032B07D04AF6DF
:1050A000EC70C0F6000040F2EF41FBF79FFA3B893D
:1050B000002B0AD03B89022B07D04AF6EC70C0F6D1
:1050C00000004FF49E61FBF791FAFB88002B0AD099
:1050D000FB88022B07D04AF6EC70C0F6000040F2C5
:1050E000F141FBF783FAFB681B89FB82FB681B8B92
:1050F000BB82FB681B8C7B82FB8A23F00703FB824D
:10510000FA8A7B891343FB82BB8A23F4407323F022
:105110000303BB82BB8A43F4807343F00103BB8269
:105120007B8A23F022037B82FB884FEA03139AB227
:105130003B8913439AB27B8A13437B82FB68FA8ACA
:105140001A81FB68BA8A1A83FB687A8A1A8407F183
:105150001807BD4680BD00BF80B584B000AF786041
:105160000B467B804FF00003FB817A684FF430538D
:10517000C4F201039A4266D07B68B3F1804F62D0DB
:105180007A684FF48063C4F200039A425BD07A6875
:105190004FF40063C4F200039A4254D07A684FF48B
:1051A0004063C4F200039A424DD07A684FF45053E2
:1051B000C4F201039A4246D07A684FF49843C4F28D
:1051C00001039A423FD07A684FF4A043C4F201032E
:1051D0009A4238D07A684FF4A843C4F201039A4245
:1051E00031D07A684FF4C053C4F200039A422AD0F7
:1051F0007A684FF4E053C4F200039A4223D07A68ED
:105200004FF40053C4F200039A421CD07A684FF462
:105210008043C4F201039A4215D07A684FF4884360
:10522000C4F201039A420ED07A684FF49043C4F25C
:1052300001039A4207D04AF6EC70C0F6000040F233
:105240001D51FBF7D3F97B88502B0AD07B88402B6C
:1052500007D04AF6EC70C0F6000040F21E51FBF792
:10526000C5F97B681B8BFB81FB8923F07003FB81F5
:10527000FA897B881343FB817B68FA891A8307F1DB
:105280001007BD4680BD00BF80B584B000AF786018
:105290000B467B804FF00003FB817A684FF430535C
:1052A000C4F201039A423CD07B68B3F1804F38D0FE
:1052B0007A684FF48063C4F200039A4231D07A686E
:1052C0004FF40063C4F200039A422AD07A684FF484
:1052D0004063C4F200039A4223D07A684FF45053DB
:1052E000C4F201039A421CD07A684FF49843C4F286
:1052F00001039A4215D07A684FF4C053C4F20003F8
:105300009A420ED07A684FF48043C4F201039A4265
:1053100007D04AF6EC70C0F6000040F23551FBF7BA
:1053200065F97B88502B0AD07B88402B07D04AF642
:10533000EC70C0F6000040F23651FBF757F97B687D
:105340001B8BFB81FB8923F4E043FB817B884FEAC5
:1053500003239AB2FB891343FB817B68FA891A8382
:1053600007F11007BD4680BD80B584B000AF7860FE
:105370000B467B804FF00003FB817A684FF430537B
:10538000C4F201039A4227D07B68B3F1804F23D047
:105390007A684FF48063C4F200039A421CD07A68A2
:1053A0004FF40063C4F200039A4215D07A684FF4B8
:1053B0004063C4F200039A420ED07A684FF450530F
:1053C000C4F201039A4207D04AF6EC70C0F600001E
:1053D00040F24D51FBF70AF97B88502B0AD07B88AD
:1053E000402B07D04AF6EC70C0F6000040F24E5158
:1053F000FBF7FCF87B689B8BFB81FB8923F0700338
:10540000FB81FA897B881343FB817B68FA899A8345
:1054100007F11007BD4680BD80B584B000AF78604D
:105420000B467B804FF00003FB817A684FF43053CA
:10543000C4F201039A4227D07B68B3F1804F23D096
:105440007A684FF48063C4F200039A421CD07A68F1
:105450004FF40063C4F200039A4215D07A684FF407
:105460004063C4F200039A420ED07A684FF450535E
:10547000C4F201039A4207D04AF6EC70C0F600006D
:1054800040F26551FBF7B2F87B88502B0AD07B883D
:10549000402B07D04AF6EC70C0F6000040F266518F
:1054A000FBF7A4F87B689B8BFB81FB8923F4E0432B
:1054B000FB817B884FEA03239AB2FB891343FB816C
:1054C0007B68FA899A8307F11007BD4680BD00BF4B
:1054D00080B582B000AF78600B46FB707A684FF4FD
:1054E0003053C4F201039A4274D07B68B3F1804F09
:1054F00070D07A684FF48063C4F200039A4269D096
:105500007A684FF40063C4F200039A4262D07A686A
:105510004FF44063C4F200039A425BD07A684FF4C0
:105520008053C4F200039A4254D07A684FF4A053D7
:10553000C4F200039A424DD07A684FF45053C4F23B
:1055400001039A4246D07A684FF49843C4F20103AB
:105550009A423FD07A684FF4A043C4F201039A42C2
:1055600038D07A684FF4A843C4F201039A4231D08C
:105570007A684FF4C053C4F200039A422AD07A6882
:105580004FF4E053C4F200039A4223D07A684FF4F8
:105590000053C4F200039A421CD07A684FF480434F
:1055A000C4F201039A4215D07A684FF48843C4F2DA
:1055B00001039A420ED07A684FF49043C4F201037B
:1055C0009A4207D04AF6EC70C0F6000040F27A51D9
:1055D000FBF70CF8FB78002B0AD0FB78012B07D0E7
:1055E0004AF6EC70C0F6000040F27B51FAF7FEFF7D
:1055F000FB78002B08D07B681B889BB243F08003AC
:105600009AB27B681A8007E07B681B889BB223F004
:1056100080039AB27B681A8007F10807BD4680BDF7
:1056200080B582B000AF78600B46FB707A684FF4AB
:105630003053C4F201039A4223D07A684FF4505396
:10564000C4F201039A421CD07A684FF48043C4F23A
:1056500001039A4215D07A684FF48843C4F20103DB
:105660009A420ED07A684FF49043C4F201039A42F2
:1056700007D04AF6EC70C0F6000040F29251FAF7FB
:10568000B5FFFB78002B0AD0FB78012B07D04AF638
:10569000EC70C0F6000040F29351FAF7A7FFFB78D8
:1056A000002B08D07B689B889BB243F004039AB21E
:1056B0007B689A8007E07B689B889BB223F0040399
:1056C0009AB27B689A8007F10807BD4680BD00BF8B
:1056D00080B582B000AF78600B46FB707A684FF4FB
:1056E0003053C4F201039A423CD07B68B3F1804F3F
:1056F00038D07A684FF48063C4F200039A4231D004
:105700007A684FF40063C4F200039A422AD07A68A0
:105710004FF44063C4F200039A4223D07A684FF4F6
:105720005053C4F201039A421CD07A684FF480436C
:10573000C4F201039A4215D07A684FF48843C4F248
:1057400001039A420ED07A684FF49043C4F20103E9
:105750009A4207D04AF6EC70C0F6000040F2AB5116
:10576000FAF744FFFB78002B0AD0FB78012B07D017
:105770004AF6EC70C0F6000040F2AC51FAF736FF82
:10578000FB78002B08D07B689B889BB243F0080312
:105790009AB27B689A8007E07B689B889BB223F073
:1057A00008039AB27B689A8007F10807BD4680BD5E
:1057B00080B582B000AF78600B46FB707A684FF41A
:1057C0003053C4F201039A422ED07B68B3F1804F6C
:1057D0002AD07A684FF48063C4F200039A4223D03F
:1057E0007A684FF40063C4F200039A421CD07A68CE
:1057F0004FF44063C4F200039A4215D07A684FF424
:105800005053C4F201039A420ED07A684FF4804399
:10581000C4F201039A4207D04AF6EC70C0F60000C9
:1058200040F2C451FAF7E2FEFB78002B0AD0FB7875
:10583000012B07D04AF6EC70C0F6000040F2C551CB
:10584000FAF7D4FEFB78002B08D07B689B889BB2CC
:1058500043F001039AB27B689A8007E07B689B88DB
:105860009BB223F001039AB27B689A8007F1080784
:10587000BD4680BD80B584B000AF78600B467B80AC
:105880004FF00003FB817A684FF43053C4F20103F8
:105890009A4266D07B68B3F1804F62D07A684FF449
:1058A0008063C4F200039A425BD07A684FF40063CD
:1058B000C4F200039A4254D07A684FF44063C4F2B1
:1058C00000039A424DD07A684FF45053C4F201035A
:1058D0009A4246D07A684FF49843C4F201039A4240
:1058E0003FD07A684FF4A043C4F201039A4238D003
:1058F0007A684FF4A843C4F201039A4231D07A681F
:105900004FF4C053C4F200039A422AD07A684FF48D
:10591000E053C4F200039A4223D07A684FF4005354
:10592000C4F200039A421CD07A684FF48043C4F258
:1059300001039A4215D07A684FF48843C4F20103F8
:105940009A420ED07A684FF49043C4F201039A420F
:1059500007D04AF6EC70C0F6000040F2DF51FAF7CB
:1059600045FE7B88082B0AD07B88002B07D04AF69F
:10597000EC70C0F600004FF4BC61FAF737FE7B68AC
:105980001B8BFB81FB8923F00803FB81FA897B8851
:105990001343FB817B68FA891A8307F11007BD4620
:1059A00080BD00BF80B584B000AF78600B467B80BF
:1059B0004FF00003FB817A684FF43053C4F20103C7
:1059C0009A423CD07B68B3F1804F38D07A684FF46C
:1059D0008063C4F200039A4231D07A684FF40063C6
:1059E000C4F200039A422AD07A684FF44063C4F2AA
:1059F00000039A4223D07A684FF45053C4F2010353
:105A00009A421CD07A684FF49843C4F201039A4238
:105A100015D07A684FF4C053C4F200039A420ED0F6
:105A20007A684FF48043C4F201039A4207D04AF6E1
:105A3000EC70C0F600004FF4BF61FAF7D7FD7B8829
:105A4000082B0AD07B88002B07D04AF6EC70C0F6F2
:105A5000000040F2F951FAF7C9FD7B681B8BFB810E
:105A6000FB8923F40063FB817B884FEA03239AB20E
:105A7000FB891343FB817B68FA891A8307F11007BE
:105A8000BD4680BD80B584B000AF78600B467B809A
:105A90004FF00003FB817A684FF43053C4F20103E6
:105AA0009A4227D07B68B3F1804F23D07A684FF4B5
:105AB0008063C4F200039A421CD07A684FF40063FA
:105AC000C4F200039A4215D07A684FF44063C4F2DE
:105AD00000039A420ED07A684FF45053C4F2010387
